{
  "contractName": "ownwership",
  "abi": [
    {
      "inputs": [
        {
          "internalType": "address",
          "name": "product_contract",
          "type": "address"
        }
      ],
      "stateMutability": "nonpayable",
      "type": "constructor"
    },
    {
      "anonymous": false,
      "inputs": [
        {
          "indexed": true,
          "internalType": "bytes32",
          "name": "p",
          "type": "bytes32"
        },
        {
          "indexed": true,
          "internalType": "address",
          "name": "account",
          "type": "address"
        }
      ],
      "name": "TransferPartOwnership",
      "type": "event"
    },
    {
      "anonymous": false,
      "inputs": [
        {
          "indexed": true,
          "internalType": "bytes32",
          "name": "p",
          "type": "bytes32"
        },
        {
          "indexed": true,
          "internalType": "address",
          "name": "account",
          "type": "address"
        }
      ],
      "name": "TransferProductOwnership",
      "type": "event"
    },
    {
      "inputs": [
        {
          "internalType": "bytes32",
          "name": "",
          "type": "bytes32"
        }
      ],
      "name": "currentPartOwner",
      "outputs": [
        {
          "internalType": "address",
          "name": "",
          "type": "address"
        }
      ],
      "stateMutability": "view",
      "type": "function",
      "constant": true
    },
    {
      "inputs": [
        {
          "internalType": "bytes32",
          "name": "",
          "type": "bytes32"
        }
      ],
      "name": "currentProductOwner",
      "outputs": [
        {
          "internalType": "address",
          "name": "",
          "type": "address"
        }
      ],
      "stateMutability": "view",
      "type": "function",
      "constant": true
    },
    {
      "inputs": [
        {
          "internalType": "uint256",
          "name": "op_type",
          "type": "uint256"
        },
        {
          "internalType": "bytes32",
          "name": "p_hash",
          "type": "bytes32"
        }
      ],
      "name": "add_ownership",
      "outputs": [
        {
          "internalType": "bool",
          "name": "sucess",
          "type": "bool"
        }
      ],
      "stateMutability": "nonpayable",
      "type": "function"
    },
    {
      "inputs": [
        {
          "internalType": "uint256",
          "name": "op_type",
          "type": "uint256"
        },
        {
          "internalType": "bytes32",
          "name": "p_hash",
          "type": "bytes32"
        },
        {
          "internalType": "address",
          "name": "to",
          "type": "address"
        }
      ],
      "name": "changeOwnership",
      "outputs": [
        {
          "internalType": "bool",
          "name": "sucess",
          "type": "bool"
        }
      ],
      "stateMutability": "nonpayable",
      "type": "function"
    }
  ],
  "bytecode": "0x60806040523480156200001157600080fd5b506040516200155b3803806200155b8339818101604052810190620000379190620000e9565b80600260006101000a81548173ffffffffffffffffffffffffffffffffffffffff021916908373ffffffffffffffffffffffffffffffffffffffff160217905550506200011b565b600080fd5b600073ffffffffffffffffffffffffffffffffffffffff82169050919050565b6000620000b18262000084565b9050919050565b620000c381620000a4565b8114620000cf57600080fd5b50565b600081519050620000e381620000b8565b92915050565b6000602082840312156200010257620001016200007f565b5b60006200011284828501620000d2565b91505092915050565b611430806200012b6000396000f3fe608060405234801561001057600080fd5b506004361061004c5760003560e01c806379ab6eba14610051578063978011bd14610081578063ac814490146100b1578063f0fddc94146100e1575b600080fd5b61006b60048036038101906100669190610aff565b610111565b6040516100789190610b6d565b60405180910390f35b61009b60048036038101906100969190610bbe565b610144565b6040516100a89190610c19565b60405180910390f35b6100cb60048036038101906100c69190610c60565b610644565b6040516100d89190610c19565b60405180910390f35b6100fb60048036038101906100f69190610aff565b610a82565b6040516101089190610b6d565b60405180910390f35b60006020528060005260406000206000915054906101000a900473ffffffffffffffffffffffffffffffffffffffff1681565b600080600181111561015957610158610cb3565b5b83036103c3576000600260009054906101000a900473ffffffffffffffffffffffffffffffffffffffff1673ffffffffffffffffffffffffffffffffffffffff16637281a039846040518263ffffffff1660e01b81526004016101bc9190610cf1565b600060405180830381865afa1580156101d9573d6000803e3d6000fd5b505050506040513d6000823e3d601f19601f820116820180604052508101906102029190610ec5565b90919293509091925090915090505080915050600073ffffffffffffffffffffffffffffffffffffffff1660008085815260200190815260200160002060009054906101000a900473ffffffffffffffffffffffffffffffffffffffff1673ffffffffffffffffffffffffffffffffffffffff16146102b6576040517f08c379a00000000000000000000000000000000000000000000000000000000081526004016102ad90611003565b60405180910390fd5b3373ffffffffffffffffffffffffffffffffffffffff168173ffffffffffffffffffffffffffffffffffffffff1614610324576040517f08c379a000000000000000000000000000000000000000000000000000000000815260040161031b9061106f565b60405180910390fd5b3360008085815260200190815260200160002060006101000a81548173ffffffffffffffffffffffffffffffffffffffff021916908373ffffffffffffffffffffffffffffffffffffffff1602179055503373ffffffffffffffffffffffffffffffffffffffff16837f6a67eae68bb9deea9cbb16299fce22702092dc03cbcfd6a7babc7ac0036c7d4b60405160405180910390a3600191505061063e565b6001808111156103d6576103d5610cb3565b5b830361063d576000600260009054906101000a900473ffffffffffffffffffffffffffffffffffffffff1673ffffffffffffffffffffffffffffffffffffffff1663b224149c846040518263ffffffff1660e01b81526004016104399190610cf1565b600060405180830381865afa158015610456573d6000803e3d6000fd5b505050506040513d6000823e3d601f19601f8201168201806040525081019061047f919061108f565b9091925090915090505080915050600073ffffffffffffffffffffffffffffffffffffffff166001600085815260200190815260200160002060009054906101000a900473ffffffffffffffffffffffffffffffffffffffff1673ffffffffffffffffffffffffffffffffffffffff161461052f576040517f08c379a000000000000000000000000000000000000000000000000000000000815260040161052690611003565b60405180910390fd5b3373ffffffffffffffffffffffffffffffffffffffff168173ffffffffffffffffffffffffffffffffffffffff161461059d576040517f08c379a00000000000000000000000000000000000000000000000000000000081526004016105949061106f565b60405180910390fd5b336001600085815260200190815260200160002060006101000a81548173ffffffffffffffffffffffffffffffffffffffff021916908373ffffffffffffffffffffffffffffffffffffffff1602179055503373ffffffffffffffffffffffffffffffffffffffff16837fe2d5b74efaa0dc370d71f08be6bc6c865613194b7345262a998fb5232622c0b260405160405180910390a3600191505061063e565b5b92915050565b600080600181111561065957610658610cb3565b5b840361079d573373ffffffffffffffffffffffffffffffffffffffff1660008085815260200190815260200160002060009054906101000a900473ffffffffffffffffffffffffffffffffffffffff1673ffffffffffffffffffffffffffffffffffffffff16146106ff576040517f08c379a00000000000000000000000000000000000000000000000000000000081526004016106f6906111aa565b60405180910390fd5b8160008085815260200190815260200160002060006101000a81548173ffffffffffffffffffffffffffffffffffffffff021916908373ffffffffffffffffffffffffffffffffffffffff1602179055508173ffffffffffffffffffffffffffffffffffffffff16837f6a67eae68bb9deea9cbb16299fce22702092dc03cbcfd6a7babc7ac0036c7d4b60405160405180910390a360019050610a7b565b6001808111156107b0576107af610cb3565b5b8403610a7a573373ffffffffffffffffffffffffffffffffffffffff166001600085815260200190815260200160002060009054906101000a900473ffffffffffffffffffffffffffffffffffffffff1673ffffffffffffffffffffffffffffffffffffffff1614610857576040517f08c379a000000000000000000000000000000000000000000000000000000000815260040161084e9061123c565b60405180910390fd5b816001600085815260200190815260200160002060006101000a81548173ffffffffffffffffffffffffffffffffffffffff021916908373ffffffffffffffffffffffffffffffffffffffff1602179055508173ffffffffffffffffffffffffffffffffffffffff16837fe2d5b74efaa0dc370d71f08be6bc6c865613194b7345262a998fb5232622c0b260405160405180910390a36000600260009054906101000a900473ffffffffffffffffffffffffffffffffffffffff1673ffffffffffffffffffffffffffffffffffffffff16636e730329856040518263ffffffff1660e01b815260040161094a9190610cf1565b60c060405180830381865afa158015610967573d6000803e3d6000fd5b505050506040513d601f19601f8201168201806040525081019061098b9190611327565b905060005b6006811015610a6f57836000808484600681106109b0576109af611354565b5b6020020151815260200190815260200160002060006101000a81548173ffffffffffffffffffffffffffffffffffffffff021916908373ffffffffffffffffffffffffffffffffffffffff1602179055508373ffffffffffffffffffffffffffffffffffffffff16828260068110610a2b57610a2a611354565b5b60200201517f6a67eae68bb9deea9cbb16299fce22702092dc03cbcfd6a7babc7ac0036c7d4b60405160405180910390a38080610a67906113b2565b915050610990565b506001915050610a7b565b5b9392505050565b60016020528060005260406000206000915054906101000a900473ffffffffffffffffffffffffffffffffffffffff1681565b6000604051905090565b600080fd5b600080fd5b6000819050919050565b610adc81610ac9565b8114610ae757600080fd5b50565b600081359050610af981610ad3565b92915050565b600060208284031215610b1557610b14610abf565b5b6000610b2384828501610aea565b91505092915050565b600073ffffffffffffffffffffffffffffffffffffffff82169050919050565b6000610b5782610b2c565b9050919050565b610b6781610b4c565b82525050565b6000602082019050610b826000830184610b5e565b92915050565b6000819050919050565b610b9b81610b88565b8114610ba657600080fd5b50565b600081359050610bb881610b92565b92915050565b60008060408385031215610bd557610bd4610abf565b5b6000610be385828601610ba9565b9250506020610bf485828601610aea565b9150509250929050565b60008115159050919050565b610c1381610bfe565b82525050565b6000602082019050610c2e6000830184610c0a565b92915050565b610c3d81610b4c565b8114610c4857600080fd5b50565b600081359050610c5a81610c34565b92915050565b600080600060608486031215610c7957610c78610abf565b5b6000610c8786828701610ba9565b9350506020610c9886828701610aea565b9250506040610ca986828701610c4b565b9150509250925092565b7f4e487b7100000000000000000000000000000000000000000000000000000000600052602160045260246000fd5b610ceb81610ac9565b82525050565b6000602082019050610d066000830184610ce2565b92915050565b600081519050610d1b81610c34565b92915050565b600080fd5b600080fd5b6000601f19601f8301169050919050565b7f4e487b7100000000000000000000000000000000000000000000000000000000600052604160045260246000fd5b610d7482610d2b565b810181811067ffffffffffffffff82111715610d9357610d92610d3c565b5b80604052505050565b6000610da6610ab5565b9050610db28282610d6b565b919050565b600067ffffffffffffffff821115610dd257610dd1610d3c565b5b610ddb82610d2b565b9050602081019050919050565b60005b83811015610e06578082015181840152602081019050610deb565b83811115610e15576000848401525b50505050565b6000610e2e610e2984610db7565b610d9c565b905082815260208101848484011115610e4a57610e49610d26565b5b610e55848285610de8565b509392505050565b600082601f830112610e7257610e71610d21565b5b8151610e82848260208601610e1b565b91505092915050565b600081519050610e9a81610b92565b92915050565b60058110610ead57600080fd5b50565b600081519050610ebf81610ea0565b92915050565b60008060008060008060c08789031215610ee257610ee1610abf565b5b6000610ef089828a01610d0c565b965050602087015167ffffffffffffffff811115610f1157610f10610ac4565b5b610f1d89828a01610e5d565b955050604087015167ffffffffffffffff811115610f3e57610f3d610ac4565b5b610f4a89828a01610e5d565b945050606087015167ffffffffffffffff811115610f6b57610f6a610ac4565b5b610f7789828a01610e5d565b9350506080610f8889828a01610e8b565b92505060a0610f9989828a01610eb0565b9150509295509295509295565b600082825260208201905092915050565b7f7061727420697320616c72656164792072656769737465726564000000000000600082015250565b6000610fed601a83610fa6565b9150610ff882610fb7565b602082019050919050565b6000602082019050818103600083015261101c81610fe0565b9050919050565b7f7061727420776173206e6f74206d616465206279207265717565737465720000600082015250565b6000611059601e83610fa6565b915061106482611023565b602082019050919050565b600060208201905081810360008301526110888161104c565b9050919050565b600080600080600060a086880312156110ab576110aa610abf565b5b60006110b988828901610d0c565b955050602086015167ffffffffffffffff8111156110da576110d9610ac4565b5b6110e688828901610e5d565b945050604086015167ffffffffffffffff81111561110757611106610ac4565b5b61111388828901610e5d565b935050606086015167ffffffffffffffff81111561113457611133610ac4565b5b61114088828901610e5d565b925050608061115188828901610e8b565b9150509295509295909350565b7f50617274206973206e6f74206f776e6564206279207265717565737465720000600082015250565b6000611194601e83610fa6565b915061119f8261115e565b602082019050919050565b600060208201905081810360008301526111c381611187565b9050919050565b7f50726f64756374206973206e6f74206f776e656420627920726571756573746560008201527f7200000000000000000000000000000000000000000000000000000000000000602082015250565b6000611226602183610fa6565b9150611231826111ca565b604082019050919050565b6000602082019050818103600083015261125581611219565b9050919050565b600067ffffffffffffffff82111561127757611276610d3c565b5b602082029050919050565b600080fd5b60008151905061129681610ad3565b92915050565b60006112af6112aa8461125c565b610d9c565b905080602084028301858111156112c9576112c8611282565b5b835b818110156112f257806112de8882611287565b8452602084019350506020810190506112cb565b5050509392505050565b600082601f83011261131157611310610d21565b5b600661131e84828561129c565b91505092915050565b600060c0828403121561133d5761133c610abf565b5b600061134b848285016112fc565b91505092915050565b7f4e487b7100000000000000000000000000000000000000000000000000000000600052603260045260246000fd5b7f4e487b7100000000000000000000000000000000000000000000000000000000600052601160045260246000fd5b60006113bd82610b88565b91507fffffffffffffffffffffffffffffffffffffffffffffffffffffffffffffffff82036113ef576113ee611383565b5b60018201905091905056fea2646970667358221220be795d7b9590a7eda1981629e724d1024abfeb9702c1e352e2d148ae05d25b6c64736f6c634300080d0033",
  "immutableReferences": {},
  "source": "// SPDX-License-Identifier: MIT\npragma solidity >=0.5.22 <=0.9.0;\n\ncontract Supply_Chain {\n    enum  State    {NOTVIEWED,ACCEPTED,DECLINED,PENDING,PAID}\n    struct Part {\n        address supplier;\n        string manufacturedate;\n        string part_type;\n        string serialno;\n        uint256 price;\n        State state;\n    }\n    struct Product {\n       address manufacturer;\n        string serial_number;\n        string product_type;\n        string manufacturedate;\n        bytes32[6] parts;\n        uint256 price;\n    }\n\n    mapping(bytes32 => Product) public product;\n    mapping(bytes32 => Part) public part;\n    State public stats;\n    function getParts(bytes32 product_hash)\n        public\n        view\n        returns (bytes32[6] memory)\n    {}\n}\n\ncontract ownwership {\n      enum  State   {NOTVIEWED,ACCEPTED,DECLINED,PENDING,PAID}\n    enum Operation {PART,PRODUCT}\n    mapping(bytes32=>address) public currentPartOwner;\n    mapping(bytes32=>address) public currentProductOwner;\n    event TransferPartOwnership(bytes32 indexed p,address indexed account );\n    event TransferProductOwnership(bytes32 indexed p,address indexed account );\n    Supply_Chain private SC;\n    \n    constructor(address product_contract){\n        SC = Supply_Chain(product_contract);\n\n    }\n  \n    function add_ownership(uint op_type,bytes32 p_hash) public returns (bool sucess){\n        if(op_type==uint (Operation.PART)){\n            address manufacturer;\n             \n           \n            (manufacturer, , , , ,) = SC.part(p_hash);\n            require(currentPartOwner[p_hash]==address(0),\"part is already registered\");\n            require(manufacturer==msg.sender,\"part was not made by requester\");\n\n            currentPartOwner[p_hash]=msg.sender;\n            emit TransferPartOwnership(p_hash,msg.sender);\n                return true;\n        }\n        else if (op_type==uint (Operation.PRODUCT)){\n                address manufacturer;\n                (manufacturer, , , ,) = SC.product(p_hash);\n               require(currentProductOwner[p_hash]==address(0),\"part is already registered\");\n            require(manufacturer==msg.sender,\"part was not made by requester\");\n            currentProductOwner[p_hash]=msg.sender;\n            emit TransferProductOwnership(p_hash,msg.sender); \n            return true;\n        }\n    }\n\n    function changeOwnership(uint op_type, bytes32 p_hash, address to) public returns (bool sucess) {\n      \n        if(op_type == uint(Operation.PART)){\n            require(currentPartOwner[p_hash] == msg.sender, \"Part is not owned by requester\");\n            currentPartOwner[p_hash] = to;\n            emit TransferPartOwnership(p_hash, to);\n            return true;\n        } else if (op_type == uint(Operation.PRODUCT)){\n            require(currentProductOwner[p_hash] == msg.sender, \"Product is not owned by requester\");\n            currentProductOwner[p_hash] = to;\n            emit TransferProductOwnership(p_hash, to);\n            \n            bytes32[6] memory part_list = SC.getParts(p_hash);\n            for(uint i = 0; i < part_list.length; i++){\n                currentPartOwner[part_list[i]] = to;\n                emit TransferPartOwnership(part_list[i], to);\n            }\n            return true;\n        }\n    }\n}\n",
  "sourcePath": "/home/surajkumarprajapati/Desktop/SupplyChain/2_supplychain/contracts/changeownership.sol",
  "compiler": {
    "name": "solc",
    "version": "0.8.13+commit.abaa5c0e.Emscripten.clang"
  },
  "schemaVersion": "3.4.7",
  "updatedAt": "2022-06-30T09:38:13.439Z",
  "networkType": "ethereum",
  "devdoc": {
    "kind": "dev",
    "methods": {},
    "version": 1
  },
  "userdoc": {
    "kind": "user",
    "methods": {},
    "version": 1
  }
}