{
  "contractName": "Supply_Chain",
  "abi": [
    {
      "anonymous": false,
      "inputs": [
        {
          "indexed": false,
          "internalType": "address",
          "name": "reciver",
          "type": "address"
        },
        {
          "indexed": false,
          "internalType": "address",
          "name": "sender",
          "type": "address"
        },
        {
          "indexed": false,
          "internalType": "uint256",
          "name": "amount",
          "type": "uint256"
        },
        {
          "indexed": false,
          "internalType": "bytes32",
          "name": "",
          "type": "bytes32"
        }
      ],
      "name": "paymentDone",
      "type": "event"
    },
    {
      "inputs": [
        {
          "internalType": "uint256",
          "name": "",
          "type": "uint256"
        }
      ],
      "name": "arr",
      "outputs": [
        {
          "internalType": "bytes32",
          "name": "",
          "type": "bytes32"
        }
      ],
      "stateMutability": "view",
      "type": "function",
      "constant": true
    },
    {
      "inputs": [
        {
          "internalType": "uint256",
          "name": "",
          "type": "uint256"
        }
      ],
      "name": "arry",
      "outputs": [
        {
          "internalType": "bytes32",
          "name": "",
          "type": "bytes32"
        }
      ],
      "stateMutability": "view",
      "type": "function",
      "constant": true
    },
    {
      "inputs": [
        {
          "internalType": "bytes32",
          "name": "",
          "type": "bytes32"
        }
      ],
      "name": "order",
      "outputs": [
        {
          "internalType": "address",
          "name": "manufactureradd",
          "type": "address"
        },
        {
          "internalType": "string",
          "name": "part_type",
          "type": "string"
        },
        {
          "internalType": "string",
          "name": "deliverOn",
          "type": "string"
        },
        {
          "internalType": "string",
          "name": "orderdate",
          "type": "string"
        },
        {
          "internalType": "string",
          "name": "quantity",
          "type": "string"
        },
        {
          "internalType": "uint256",
          "name": "time",
          "type": "uint256"
        },
        {
          "internalType": "enum Supply_Chain.State",
          "name": "state",
          "type": "uint8"
        }
      ],
      "stateMutability": "view",
      "type": "function",
      "constant": true
    },
    {
      "inputs": [
        {
          "internalType": "bytes32",
          "name": "",
          "type": "bytes32"
        }
      ],
      "name": "part",
      "outputs": [
        {
          "internalType": "address",
          "name": "supplier",
          "type": "address"
        },
        {
          "internalType": "string",
          "name": "manufacturedate",
          "type": "string"
        },
        {
          "internalType": "string",
          "name": "part_type",
          "type": "string"
        },
        {
          "internalType": "string",
          "name": "serialno",
          "type": "string"
        },
        {
          "internalType": "uint256",
          "name": "price",
          "type": "uint256"
        },
        {
          "internalType": "enum Supply_Chain.State",
          "name": "state",
          "type": "uint8"
        }
      ],
      "stateMutability": "view",
      "type": "function",
      "constant": true
    },
    {
      "inputs": [
        {
          "internalType": "bytes32",
          "name": "",
          "type": "bytes32"
        }
      ],
      "name": "part_detail",
      "outputs": [
        {
          "internalType": "bytes32",
          "name": "orderhash",
          "type": "bytes32"
        },
        {
          "internalType": "address",
          "name": "supplier",
          "type": "address"
        },
        {
          "internalType": "uint256",
          "name": "partPrice",
          "type": "uint256"
        },
        {
          "internalType": "string",
          "name": "parttype",
          "type": "string"
        },
        {
          "internalType": "enum Supply_Chain.State",
          "name": "state",
          "type": "uint8"
        }
      ],
      "stateMutability": "view",
      "type": "function",
      "constant": true
    },
    {
      "inputs": [
        {
          "internalType": "bytes32",
          "name": "",
          "type": "bytes32"
        }
      ],
      "name": "product",
      "outputs": [
        {
          "internalType": "address",
          "name": "manufacturer",
          "type": "address"
        },
        {
          "internalType": "string",
          "name": "serial_number",
          "type": "string"
        },
        {
          "internalType": "string",
          "name": "product_type",
          "type": "string"
        },
        {
          "internalType": "string",
          "name": "manufacturedate",
          "type": "string"
        },
        {
          "internalType": "uint256",
          "name": "price",
          "type": "uint256"
        }
      ],
      "stateMutability": "view",
      "type": "function",
      "constant": true
    },
    {
      "inputs": [
        {
          "internalType": "string",
          "name": "part_type",
          "type": "string"
        },
        {
          "internalType": "string",
          "name": "deliverOn",
          "type": "string"
        },
        {
          "internalType": "string",
          "name": "orderdate",
          "type": "string"
        },
        {
          "internalType": "string",
          "name": "quantity",
          "type": "string"
        }
      ],
      "name": "create_order",
      "outputs": [
        {
          "internalType": "bytes32",
          "name": "",
          "type": "bytes32"
        }
      ],
      "stateMutability": "nonpayable",
      "type": "function"
    },
    {
      "inputs": [
        {
          "internalType": "bytes32",
          "name": "orderhash",
          "type": "bytes32"
        }
      ],
      "name": "view_order",
      "outputs": [
        {
          "components": [
            {
              "internalType": "address",
              "name": "manufactureradd",
              "type": "address"
            },
            {
              "internalType": "string",
              "name": "part_type",
              "type": "string"
            },
            {
              "internalType": "string",
              "name": "deliverOn",
              "type": "string"
            },
            {
              "internalType": "string",
              "name": "orderdate",
              "type": "string"
            },
            {
              "internalType": "string",
              "name": "quantity",
              "type": "string"
            },
            {
              "internalType": "uint256",
              "name": "time",
              "type": "uint256"
            },
            {
              "internalType": "enum Supply_Chain.State",
              "name": "state",
              "type": "uint8"
            }
          ],
          "internalType": "struct Supply_Chain.Order",
          "name": "",
          "type": "tuple"
        }
      ],
      "stateMutability": "nonpayable",
      "type": "function"
    },
    {
      "inputs": [],
      "name": "accept_order",
      "outputs": [
        {
          "internalType": "bytes32[]",
          "name": "",
          "type": "bytes32[]"
        }
      ],
      "stateMutability": "view",
      "type": "function",
      "constant": true
    },
    {
      "inputs": [
        {
          "internalType": "bytes32",
          "name": "orderhash",
          "type": "bytes32"
        },
        {
          "internalType": "string",
          "name": "manufacturedate",
          "type": "string"
        },
        {
          "internalType": "string",
          "name": "serialno",
          "type": "string"
        },
        {
          "internalType": "uint256",
          "name": "price",
          "type": "uint256"
        }
      ],
      "name": "make_part",
      "outputs": [
        {
          "internalType": "bytes32",
          "name": "partHash",
          "type": "bytes32"
        }
      ],
      "stateMutability": "nonpayable",
      "type": "function"
    },
    {
      "inputs": [],
      "name": "partowned",
      "outputs": [
        {
          "internalType": "bytes32[]",
          "name": "",
          "type": "bytes32[]"
        }
      ],
      "stateMutability": "view",
      "type": "function",
      "constant": true
    },
    {
      "inputs": [
        {
          "internalType": "bytes32",
          "name": "orderhash",
          "type": "bytes32"
        },
        {
          "internalType": "bytes32",
          "name": "partHash",
          "type": "bytes32"
        }
      ],
      "name": "partrecepit",
      "outputs": [
        {
          "internalType": "bytes32",
          "name": "",
          "type": "bytes32"
        }
      ],
      "stateMutability": "nonpayable",
      "type": "function"
    },
    {
      "inputs": [
        {
          "internalType": "bytes32",
          "name": "orderhash",
          "type": "bytes32"
        }
      ],
      "name": "getpartrecepit",
      "outputs": [
        {
          "components": [
            {
              "internalType": "bytes32",
              "name": "orderhash",
              "type": "bytes32"
            },
            {
              "internalType": "address",
              "name": "supplier",
              "type": "address"
            },
            {
              "internalType": "uint256",
              "name": "partPrice",
              "type": "uint256"
            },
            {
              "internalType": "string",
              "name": "parttype",
              "type": "string"
            },
            {
              "internalType": "enum Supply_Chain.State",
              "name": "state",
              "type": "uint8"
            }
          ],
          "internalType": "struct Supply_Chain.part_recepit",
          "name": "",
          "type": "tuple"
        }
      ],
      "stateMutability": "view",
      "type": "function",
      "constant": true
    },
    {
      "inputs": [
        {
          "internalType": "address payable",
          "name": "receiver",
          "type": "address"
        },
        {
          "internalType": "bytes32",
          "name": "orderh",
          "type": "bytes32"
        }
      ],
      "name": "getparts",
      "outputs": [
        {
          "internalType": "bool",
          "name": "",
          "type": "bool"
        }
      ],
      "stateMutability": "payable",
      "type": "function",
      "payable": true
    },
    {
      "inputs": [
        {
          "internalType": "string",
          "name": "serialno",
          "type": "string"
        },
        {
          "internalType": "string",
          "name": "product_type",
          "type": "string"
        },
        {
          "internalType": "string",
          "name": "creation_date",
          "type": "string"
        },
        {
          "internalType": "bytes32[6]",
          "name": "parts_array",
          "type": "bytes32[6]"
        },
        {
          "internalType": "uint256",
          "name": "price",
          "type": "uint256"
        }
      ],
      "name": "make_Product",
      "outputs": [
        {
          "internalType": "bytes32",
          "name": "",
          "type": "bytes32"
        }
      ],
      "stateMutability": "nonpayable",
      "type": "function"
    },
    {
      "inputs": [
        {
          "internalType": "bytes32",
          "name": "product_hash",
          "type": "bytes32"
        }
      ],
      "name": "getProductParts",
      "outputs": [
        {
          "internalType": "bytes32[6]",
          "name": "",
          "type": "bytes32[6]"
        }
      ],
      "stateMutability": "view",
      "type": "function",
      "constant": true
    },
    {
      "inputs": [
        {
          "internalType": "bytes32",
          "name": "parthash",
          "type": "bytes32"
        }
      ],
      "name": "getPartInfo",
      "outputs": [
        {
          "components": [
            {
              "internalType": "address",
              "name": "supplier",
              "type": "address"
            },
            {
              "internalType": "string",
              "name": "manufacturedate",
              "type": "string"
            },
            {
              "internalType": "string",
              "name": "part_type",
              "type": "string"
            },
            {
              "internalType": "string",
              "name": "serialno",
              "type": "string"
            },
            {
              "internalType": "uint256",
              "name": "price",
              "type": "uint256"
            },
            {
              "internalType": "enum Supply_Chain.State",
              "name": "state",
              "type": "uint8"
            }
          ],
          "internalType": "struct Supply_Chain.Part",
          "name": "detail",
          "type": "tuple"
        }
      ],
      "stateMutability": "view",
      "type": "function",
      "constant": true
    }
  ],
  "bytecode": "0x608060405234801561001057600080fd5b50613aed806100206000396000f3fe6080604052600436106100fe5760003560e01c80637281a039116100955780639a069a42116100645780639a069a42146103db578063b224149c14610406578063d760fa3d14610447578063d9a2130814610484578063e80160ab146104af576100fe565b80637281a039146102de57806379f3c588146103205780639670c79c1461035d578063977990801461039a576100fe565b80634c9b90e9116100d15780634c9b90e9146101f7578063622f06941461022757806371e5ee5f14610264578063724e203d146102a1576100fe565b8063016d997414610103578063070660e51461014057806320ff3f4e1461017d5780634bc8e47b146101ba575b600080fd5b34801561010f57600080fd5b5061012a60048036038101906101259190612a8a565b6104f2565b6040516101379190612b6a565b60405180910390f35b34801561014c57600080fd5b5061016760048036038101906101629190612b85565b610722565b6040516101749190612b6a565b60405180910390f35b34801561018957600080fd5b506101a4600480360381019061019f9190612bb2565b610746565b6040516101b19190612c8a565b60405180910390f35b3480156101c657600080fd5b506101e160048036038101906101dc9190612bb2565b61084c565b6040516101ee9190612e6a565b60405180910390f35b610211600480360381019061020c9190612eca565b6109b0565b60405161021e9190612f25565b60405180910390f35b34801561023357600080fd5b5061024e60048036038101906102499190612f40565b610c31565b60405161025b9190612b6a565b60405180910390f35b34801561027057600080fd5b5061028b60048036038101906102869190612b85565b610e51565b6040516102989190612b6a565b60405180910390f35b3480156102ad57600080fd5b506102c860048036038101906102c39190612bb2565b610e75565b6040516102d59190613031565b60405180910390f35b3480156102ea57600080fd5b5061030560048036038101906103009190612bb2565b6111ca565b604051610317969594939291906130ca565b60405180910390f35b34801561032c57600080fd5b5061034760048036038101906103429190613140565b6113cb565b6040516103549190612b6a565b60405180910390f35b34801561036957600080fd5b50610384600480360381019061037f91906131df565b611894565b6040516103919190612b6a565b60405180910390f35b3480156103a657600080fd5b506103c160048036038101906103bc9190612bb2565b611a5a565b6040516103d29594939291906132b6565b60405180910390f35b3480156103e757600080fd5b506103f0611b45565b6040516103fd91906133a7565b60405180910390f35b34801561041257600080fd5b5061042d60048036038101906104289190612bb2565b611b9d565b60405161043e9594939291906133c9565b60405180910390f35b34801561045357600080fd5b5061046e60048036038101906104699190612bb2565b611d8b565b60405161047b91906134c8565b60405180910390f35b34801561049057600080fd5b50610499612009565b6040516104a691906133a7565b60405180910390f35b3480156104bb57600080fd5b506104d660048036038101906104d19190612bb2565b612061565b6040516104e997969594939291906134ea565b60405180910390f35b600080600090505b60068110156105d257600073ffffffffffffffffffffffffffffffffffffffff166005600086846006811061053257610531613575565b5b6020020151815260200190815260200160002060000160009054906101000a900473ffffffffffffffffffffffffffffffffffffffff1673ffffffffffffffffffffffffffffffffffffffff16036105bf576040517f08c379a00000000000000000000000000000000000000000000000000000000081526004016105b6906135f0565b60405180910390fd5b80806105ca9061363f565b9150506104fa565b5060006105e1338888886122f0565b905060006040518060c001604052803373ffffffffffffffffffffffffffffffffffffffff168152602001898152602001888152602001878152602001868152602001670de0b6b3a7640000866106389190613687565b8152509050806004600084815260200190815260200160002060008201518160000160006101000a81548173ffffffffffffffffffffffffffffffffffffffff021916908373ffffffffffffffffffffffffffffffffffffffff16021790555060208201518160010190805190602001906106b49291906125cf565b5060408201518160020190805190602001906106d19291906125cf565b5060608201518160030190805190602001906106ee9291906125cf565b50608082015181600401906006610706929190612655565b5060a082015181600a0155905050819250505095945050505050565b6001818154811061073257600080fd5b906000526020600020016000915090505481565b61074e612695565b600073ffffffffffffffffffffffffffffffffffffffff166004600084815260200190815260200160002060000160009054906101000a900473ffffffffffffffffffffffffffffffffffffffff1673ffffffffffffffffffffffffffffffffffffffff16036107f3576040517f08c379a00000000000000000000000000000000000000000000000000000000081526004016107ea9061372d565b60405180910390fd5b60046000838152602001908152602001600020600401600680602002604051908101604052809291908260068015610840576020028201915b81548152602001906001019080831161082c575b50505050509050919050565b6108546126b7565b600260008381526020019081526020016000206040518060a0016040529081600082015481526020016001820160009054906101000a900473ffffffffffffffffffffffffffffffffffffffff1673ffffffffffffffffffffffffffffffffffffffff1673ffffffffffffffffffffffffffffffffffffffff168152602001600282015481526020016003820180546108ec9061377c565b80601f01602080910402602001604051908101604052809291908181526020018280546109189061377c565b80156109655780601f1061093a57610100808354040283529160200191610965565b820191906000526020600020905b81548152906001019060200180831161094857829003601f168201915b505050505081526020016004820160009054906101000a900460ff16600481111561099357610992612d7d565b5b60048111156109a5576109a4612d7d565b5b815250509050919050565b600081838073ffffffffffffffffffffffffffffffffffffffff166002600084815260200190815260200160002060010160009054906101000a900473ffffffffffffffffffffffffffffffffffffffff1673ffffffffffffffffffffffffffffffffffffffff1614610a58576040517f08c379a0000000000000000000000000000000000000000000000000000000008152600401610a4f906137f9565b60405180910390fd5b833373ffffffffffffffffffffffffffffffffffffffff166003600083815260200190815260200160002060000160009054906101000a900473ffffffffffffffffffffffffffffffffffffffff1673ffffffffffffffffffffffffffffffffffffffff1614610afd576040517f08c379a0000000000000000000000000000000000000000000000000000000008152600401610af490613865565b60405180910390fd5b600034905080600260008881526020019081526020016000206002015414610b5a576040517f08c379a0000000000000000000000000000000000000000000000000000000008152600401610b51906138d1565b60405180910390fd5b8673ffffffffffffffffffffffffffffffffffffffff166108fc829081150290604051600060405180830381858888f19350505050158015610ba0573d6000803e3d6000fd5b50600060049050806003600089815260200190815260200160002060060160006101000a81548160ff02191690836004811115610be057610bdf612d7d565b5b02179055507f8872194aef2c35bdaa0eea5f770ce68d7262902a3c74661704a2912c56a88f9e8833348a604051610c1a9493929190613950565b60405180910390a160019550505050505092915050565b600080600560008481526020019081526020016000206004015490506000600560008581526020019081526020016000206002018054610c709061377c565b80601f0160208091040260200160405190810160405280929190818152602001828054610c9c9061377c565b8015610ce95780601f10610cbe57610100808354040283529160200191610ce9565b820191906000526020600020905b815481529060010190602001808311610ccc57829003601f168201915b5050505050905060006005600086815260200190815260200160002060000160009054906101000a900473ffffffffffffffffffffffffffffffffffffffff16905060006003905060006040518060a001604052808981526020018473ffffffffffffffffffffffffffffffffffffffff168152602001868152602001858152602001836004811115610d7f57610d7e612d7d565b5b815250905080600260008a81526020019081526020016000206000820151816000015560208201518160010160006101000a81548173ffffffffffffffffffffffffffffffffffffffff021916908373ffffffffffffffffffffffffffffffffffffffff160217905550604082015181600201556060820151816003019080519060200190610e0f9291906125cf565b5060808201518160040160006101000a81548160ff02191690836004811115610e3b57610e3a612d7d565b5b0217905550905050879550505050505092915050565b60008181548110610e6157600080fd5b906000526020600020016000915090505481565b610e7d612711565b600060019050806003600085815260200190815260200160002060060160006101000a81548160ff02191690836004811115610ebc57610ebb612d7d565b5b0217905550600360008481526020019081526020016000206040518060e00160405290816000820160009054906101000a900473ffffffffffffffffffffffffffffffffffffffff1673ffffffffffffffffffffffffffffffffffffffff1673ffffffffffffffffffffffffffffffffffffffff168152602001600182018054610f459061377c565b80601f0160208091040260200160405190810160405280929190818152602001828054610f719061377c565b8015610fbe5780601f10610f9357610100808354040283529160200191610fbe565b820191906000526020600020905b815481529060010190602001808311610fa157829003601f168201915b50505050508152602001600282018054610fd79061377c565b80601f01602080910402602001604051908101604052809291908181526020018280546110039061377c565b80156110505780601f1061102557610100808354040283529160200191611050565b820191906000526020600020905b81548152906001019060200180831161103357829003601f168201915b505050505081526020016003820180546110699061377c565b80601f01602080910402602001604051908101604052809291908181526020018280546110959061377c565b80156110e25780601f106110b7576101008083540402835291602001916110e2565b820191906000526020600020905b8154815290600101906020018083116110c557829003601f168201915b505050505081526020016004820180546110fb9061377c565b80601f01602080910402602001604051908101604052809291908181526020018280546111279061377c565b80156111745780601f1061114957610100808354040283529160200191611174565b820191906000526020600020905b81548152906001019060200180831161115757829003601f168201915b50505050508152602001600582015481526020016006820160009054906101000a900460ff1660048111156111ac576111ab612d7d565b5b60048111156111be576111bd612d7d565b5b81525050915050919050565b60056020528060005260406000206000915090508060000160009054906101000a900473ffffffffffffffffffffffffffffffffffffffff16908060010180546112139061377c565b80601f016020809104026020016040519081016040528092919081815260200182805461123f9061377c565b801561128c5780601f106112615761010080835404028352916020019161128c565b820191906000526020600020905b81548152906001019060200180831161126f57829003601f168201915b5050505050908060020180546112a19061377c565b80601f01602080910402602001604051908101604052809291908181526020018280546112cd9061377c565b801561131a5780601f106112ef5761010080835404028352916020019161131a565b820191906000526020600020905b8154815290600101906020018083116112fd57829003601f168201915b50505050509080600301805461132f9061377c565b80601f016020809104026020016040519081016040528092919081815260200182805461135b9061377c565b80156113a85780601f1061137d576101008083540402835291602001916113a8565b820191906000526020600020905b81548152906001019060200180831161138b57829003601f168201915b5050505050908060040154908060050160009054906101000a900460ff16905086565b60008060006115b633600360008a815260200190815260200160002060010180546113f59061377c565b80601f01602080910402602001604051908101604052809291908181526020018280546114219061377c565b801561146e5780601f106114435761010080835404028352916020019161146e565b820191906000526020600020905b81548152906001019060200180831161145157829003601f168201915b5050505050600360008b815260200190815260200160002060020180546114949061377c565b80601f01602080910402602001604051908101604052809291908181526020018280546114c09061377c565b801561150d5780601f106114e25761010080835404028352916020019161150d565b820191906000526020600020905b8154815290600101906020018083116114f057829003601f168201915b5050505050600360008c815260200190815260200160002060030180546115339061377c565b80601f016020809104026020016040519081016040528092919081815260200182805461155f9061377c565b80156115ac5780601f10611581576101008083540402835291602001916115ac565b820191906000526020600020905b81548152906001019060200180831161158f57829003601f168201915b50505050506122f0565b9050600073ffffffffffffffffffffffffffffffffffffffff166005600083815260200190815260200160002060000160009054906101000a900473ffffffffffffffffffffffffffffffffffffffff1673ffffffffffffffffffffffffffffffffffffffff161461165d576040517f08c379a0000000000000000000000000000000000000000000000000000000008152600401611654906139e1565b60405180910390fd5b60006003905060006040518060c001604052803373ffffffffffffffffffffffffffffffffffffffff168152602001898152602001600360008c815260200190815260200160002060010180546116b39061377c565b80601f01602080910402602001604051908101604052809291908181526020018280546116df9061377c565b801561172c5780601f106117015761010080835404028352916020019161172c565b820191906000526020600020905b81548152906001019060200180831161170f57829003601f168201915b50505050508152602001888152602001670de0b6b3a7640000886117509190613687565b815260200183600481111561176857611767612d7d565b5b8152509050806005600085815260200190815260200160002060008201518160000160006101000a81548173ffffffffffffffffffffffffffffffffffffffff021916908373ffffffffffffffffffffffffffffffffffffffff16021790555060208201518160010190805190602001906117e49291906125cf565b5060408201518160020190805190602001906118019291906125cf565b50606082015181600301908051906020019061181e9291906125cf565b506080820151816004015560a08201518160050160006101000a81548160ff0219169083600481111561185457611853612d7d565b5b0217905550905050600183908060018154018082558091505060019003906000526020600020016000909190919091505582945050505050949350505050565b6000806000905060006118a9338888886122f0565b905060006040518060e001604052803373ffffffffffffffffffffffffffffffffffffffff168152602001898152602001888152602001878152602001868152602001610e10426118fa9190613a30565b815260200184600481111561191257611911612d7d565b5b8152509050806003600084815260200190815260200160002060008201518160000160006101000a81548173ffffffffffffffffffffffffffffffffffffffff021916908373ffffffffffffffffffffffffffffffffffffffff160217905550602082015181600101908051906020019061198e9291906125cf565b5060408201518160020190805190602001906119ab9291906125cf565b5060608201518160030190805190602001906119c89291906125cf565b5060808201518160040190805190602001906119e59291906125cf565b5060a0820151816005015560c08201518160060160006101000a81548160ff02191690836004811115611a1b57611a1a612d7d565b5b02179055509050506000829080600181540180825580915050600190039060005260206000200160009091909190915055819350505050949350505050565b60026020528060005260406000206000915090508060000154908060010160009054906101000a900473ffffffffffffffffffffffffffffffffffffffff1690806002015490806003018054611aaf9061377c565b80601f0160208091040260200160405190810160405280929190818152602001828054611adb9061377c565b8015611b285780601f10611afd57610100808354040283529160200191611b28565b820191906000526020600020905b815481529060010190602001808311611b0b57829003601f168201915b5050505050908060040160009054906101000a900460ff16905085565b60606000805480602002602001604051908101604052809291908181526020018280548015611b9357602002820191906000526020600020905b815481526020019060010190808311611b7f575b5050505050905090565b60046020528060005260406000206000915090508060000160009054906101000a900473ffffffffffffffffffffffffffffffffffffffff1690806001018054611be69061377c565b80601f0160208091040260200160405190810160405280929190818152602001828054611c129061377c565b8015611c5f5780601f10611c3457610100808354040283529160200191611c5f565b820191906000526020600020905b815481529060010190602001808311611c4257829003601f168201915b505050505090806002018054611c749061377c565b80601f0160208091040260200160405190810160405280929190818152602001828054611ca09061377c565b8015611ced5780601f10611cc257610100808354040283529160200191611ced565b820191906000526020600020905b815481529060010190602001808311611cd057829003601f168201915b505050505090806003018054611d029061377c565b80601f0160208091040260200160405190810160405280929190818152602001828054611d2e9061377c565b8015611d7b5780601f10611d5057610100808354040283529160200191611d7b565b820191906000526020600020905b815481529060010190602001808311611d5e57829003601f168201915b50505050509080600a0154905085565b611d93612776565b600560008381526020019081526020016000206040518060c00160405290816000820160009054906101000a900473ffffffffffffffffffffffffffffffffffffffff1673ffffffffffffffffffffffffffffffffffffffff1673ffffffffffffffffffffffffffffffffffffffff168152602001600182018054611e179061377c565b80601f0160208091040260200160405190810160405280929190818152602001828054611e439061377c565b8015611e905780601f10611e6557610100808354040283529160200191611e90565b820191906000526020600020905b815481529060010190602001808311611e7357829003601f168201915b50505050508152602001600282018054611ea99061377c565b80601f0160208091040260200160405190810160405280929190818152602001828054611ed59061377c565b8015611f225780601f10611ef757610100808354040283529160200191611f22565b820191906000526020600020905b815481529060010190602001808311611f0557829003601f168201915b50505050508152602001600382018054611f3b9061377c565b80601f0160208091040260200160405190810160405280929190818152602001828054611f679061377c565b8015611fb45780601f10611f8957610100808354040283529160200191611fb4565b820191906000526020600020905b815481529060010190602001808311611f9757829003601f168201915b50505050508152602001600482015481526020016005820160009054906101000a900460ff166004811115611fec57611feb612d7d565b5b6004811115611ffe57611ffd612d7d565b5b815250509050919050565b6060600180548060200260200160405190810160405280929190818152602001828054801561205757602002820191906000526020600020905b815481526020019060010190808311612043575b5050505050905090565b60036020528060005260406000206000915090508060000160009054906101000a900473ffffffffffffffffffffffffffffffffffffffff16908060010180546120aa9061377c565b80601f01602080910402602001604051908101604052809291908181526020018280546120d69061377c565b80156121235780601f106120f857610100808354040283529160200191612123565b820191906000526020600020905b81548152906001019060200180831161210657829003601f168201915b5050505050908060020180546121389061377c565b80601f01602080910402602001604051908101604052809291908181526020018280546121649061377c565b80156121b15780601f10612186576101008083540402835291602001916121b1565b820191906000526020600020905b81548152906001019060200180831161219457829003601f168201915b5050505050908060030180546121c69061377c565b80601f01602080910402602001604051908101604052809291908181526020018280546121f29061377c565b801561223f5780601f106122145761010080835404028352916020019161223f565b820191906000526020600020905b81548152906001019060200180831161222257829003601f168201915b5050505050908060040180546122549061377c565b80601f01602080910402602001604051908101604052809291908181526020018280546122809061377c565b80156122cd5780601f106122a2576101008083540402835291602001916122cd565b820191906000526020600020905b8154815290600101906020018083116122b057829003601f168201915b5050505050908060050154908060060160009054906101000a900460ff16905087565b6000808560601b90506000859050600085905060008590506000815183518551601460ff1661231f9190613a61565b6123299190613a61565b6123339190613a61565b67ffffffffffffffff81111561234c5761234b61283d565b5b6040519080825280601f01601f19166020018201604052801561237e5781602001600182028036833780820191505090505b50905060008190506000805b601460ff1681101561240e578781601481106123a9576123a8613575565b5b1a60f81b8383806123b99061363f565b9450815181106123cc576123cb613575565b5b60200101907effffffffffffffffffffffffffffffffffffffffffffffffffffffffffffff1916908160001a90535080806124069061363f565b91505061238a565b600090505b865181101561249b5786818151811061242f5761242e613575565b5b602001015160f81c60f81b8383806124469061363f565b94508151811061245957612458613575565b5b60200101907effffffffffffffffffffffffffffffffffffffffffffffffffffffffffffff1916908160001a90535080806124939061363f565b915050612413565b600090505b8551811015612528578581815181106124bc576124bb613575565b5b602001015160f81c60f81b8383806124d39061363f565b9450815181106124e6576124e5613575565b5b60200101907effffffffffffffffffffffffffffffffffffffffffffffffffffffffffffff1916908160001a90535080806125209061363f565b9150506124a0565b600090505b84518110156125b55784818151811061254957612548613575565b5b602001015160f81c60f81b8383806125609061363f565b94508151811061257357612572613575565b5b60200101907effffffffffffffffffffffffffffffffffffffffffffffffffffffffffffff1916908160001a90535080806125ad9061363f565b91505061252d565b828051906020012098505050505050505050949350505050565b8280546125db9061377c565b90600052602060002090601f0160209004810192826125fd5760008555612644565b82601f1061261657805160ff1916838001178555612644565b82800160010185558215612644579182015b82811115612643578251825591602001919060010190612628565b5b50905061265191906127d4565b5090565b8260068101928215612684579160200282015b82811115612683578251825591602001919060010190612668565b5b50905061269191906127f1565b5090565b6040518060c00160405280600690602082028036833780820191505090505090565b6040518060a0016040528060008019168152602001600073ffffffffffffffffffffffffffffffffffffffff16815260200160008152602001606081526020016000600481111561270b5761270a612d7d565b5b81525090565b6040518060e00160405280600073ffffffffffffffffffffffffffffffffffffffff1681526020016060815260200160608152602001606081526020016060815260200160008152602001600060048111156127705761276f612d7d565b5b81525090565b6040518060c00160405280600073ffffffffffffffffffffffffffffffffffffffff16815260200160608152602001606081526020016060815260200160008152602001600060048111156127ce576127cd612d7d565b5b81525090565b5b808211156127ed5760008160009055506001016127d5565b5090565b5b8082111561280a5760008160009055506001016127f2565b5090565b6000604051905090565b600080fd5b600080fd5b600080fd5b600080fd5b6000601f19601f8301169050919050565b7f4e487b7100000000000000000000000000000000000000000000000000000000600052604160045260246000fd5b6128758261282c565b810181811067ffffffffffffffff821117156128945761289361283d565b5b80604052505050565b60006128a761280e565b90506128b3828261286c565b919050565b600067ffffffffffffffff8211156128d3576128d261283d565b5b6128dc8261282c565b9050602081019050919050565b82818337600083830152505050565b600061290b612906846128b8565b61289d565b90508281526020810184848401111561292757612926612827565b5b6129328482856128e9565b509392505050565b600082601f83011261294f5761294e612822565b5b813561295f8482602086016128f8565b91505092915050565b600067ffffffffffffffff8211156129835761298261283d565b5b602082029050919050565b600080fd5b6000819050919050565b6129a681612993565b81146129b157600080fd5b50565b6000813590506129c38161299d565b92915050565b60006129dc6129d784612968565b61289d565b905080602084028301858111156129f6576129f561298e565b5b835b81811015612a1f5780612a0b88826129b4565b8452602084019350506020810190506129f8565b5050509392505050565b600082601f830112612a3e57612a3d612822565b5b6006612a4b8482856129c9565b91505092915050565b6000819050919050565b612a6781612a54565b8114612a7257600080fd5b50565b600081359050612a8481612a5e565b92915050565b60008060008060006101408688031215612aa757612aa6612818565b5b600086013567ffffffffffffffff811115612ac557612ac461281d565b5b612ad18882890161293a565b955050602086013567ffffffffffffffff811115612af257612af161281d565b5b612afe8882890161293a565b945050604086013567ffffffffffffffff811115612b1f57612b1e61281d565b5b612b2b8882890161293a565b9350506060612b3c88828901612a29565b925050610120612b4e88828901612a75565b9150509295509295909350565b612b6481612993565b82525050565b6000602082019050612b7f6000830184612b5b565b92915050565b600060208284031215612b9b57612b9a612818565b5b6000612ba984828501612a75565b91505092915050565b600060208284031215612bc857612bc7612818565b5b6000612bd6848285016129b4565b91505092915050565b600060069050919050565b600081905092915050565b6000819050919050565b612c0881612993565b82525050565b6000612c1a8383612bff565b60208301905092915050565b6000602082019050919050565b612c3c81612bdf565b612c468184612bea565b9250612c5182612bf5565b8060005b83811015612c82578151612c698782612c0e565b9650612c7483612c26565b925050600181019050612c55565b505050505050565b600060c082019050612c9f6000830184612c33565b92915050565b600073ffffffffffffffffffffffffffffffffffffffff82169050919050565b6000612cd082612ca5565b9050919050565b612ce081612cc5565b82525050565b612cef81612a54565b82525050565b600081519050919050565b600082825260208201905092915050565b60005b83811015612d2f578082015181840152602081019050612d14565b83811115612d3e576000848401525b50505050565b6000612d4f82612cf5565b612d598185612d00565b9350612d69818560208601612d11565b612d728161282c565b840191505092915050565b7f4e487b7100000000000000000000000000000000000000000000000000000000600052602160045260246000fd5b60058110612dbd57612dbc612d7d565b5b50565b6000819050612dce82612dac565b919050565b6000612dde82612dc0565b9050919050565b612dee81612dd3565b82525050565b600060a083016000830151612e0c6000860182612bff565b506020830151612e1f6020860182612cd7565b506040830151612e326040860182612ce6565b5060608301518482036060860152612e4a8282612d44565b9150506080830151612e5f6080860182612de5565b508091505092915050565b60006020820190508181036000830152612e848184612df4565b905092915050565b6000612e9782612ca5565b9050919050565b612ea781612e8c565b8114612eb257600080fd5b50565b600081359050612ec481612e9e565b92915050565b60008060408385031215612ee157612ee0612818565b5b6000612eef85828601612eb5565b9250506020612f00858286016129b4565b9150509250929050565b60008115159050919050565b612f1f81612f0a565b82525050565b6000602082019050612f3a6000830184612f16565b92915050565b60008060408385031215612f5757612f56612818565b5b6000612f65858286016129b4565b9250506020612f76858286016129b4565b9150509250929050565b600060e083016000830151612f986000860182612cd7565b5060208301518482036020860152612fb08282612d44565b91505060408301518482036040860152612fca8282612d44565b91505060608301518482036060860152612fe48282612d44565b91505060808301518482036080860152612ffe8282612d44565b91505060a083015161301360a0860182612ce6565b5060c083015161302660c0860182612de5565b508091505092915050565b6000602082019050818103600083015261304b8184612f80565b905092915050565b61305c81612cc5565b82525050565b600082825260208201905092915050565b600061307e82612cf5565b6130888185613062565b9350613098818560208601612d11565b6130a18161282c565b840191505092915050565b6130b581612a54565b82525050565b6130c481612dd3565b82525050565b600060c0820190506130df6000830189613053565b81810360208301526130f18188613073565b905081810360408301526131058187613073565b905081810360608301526131198186613073565b905061312860808301856130ac565b61313560a08301846130bb565b979650505050505050565b6000806000806080858703121561315a57613159612818565b5b6000613168878288016129b4565b945050602085013567ffffffffffffffff8111156131895761318861281d565b5b6131958782880161293a565b935050604085013567ffffffffffffffff8111156131b6576131b561281d565b5b6131c28782880161293a565b92505060606131d387828801612a75565b91505092959194509250565b600080600080608085870312156131f9576131f8612818565b5b600085013567ffffffffffffffff8111156132175761321661281d565b5b6132238782880161293a565b945050602085013567ffffffffffffffff8111156132445761324361281d565b5b6132508782880161293a565b935050604085013567ffffffffffffffff8111156132715761327061281d565b5b61327d8782880161293a565b925050606085013567ffffffffffffffff81111561329e5761329d61281d565b5b6132aa8782880161293a565b91505092959194509250565b600060a0820190506132cb6000830188612b5b565b6132d86020830187613053565b6132e560408301866130ac565b81810360608301526132f78185613073565b905061330660808301846130bb565b9695505050505050565b600081519050919050565b600082825260208201905092915050565b6000819050602082019050919050565b6000602082019050919050565b600061335482613310565b61335e818561331b565b93506133698361332c565b8060005b8381101561339a5781516133818882612c0e565b975061338c8361333c565b92505060018101905061336d565b5085935050505092915050565b600060208201905081810360008301526133c18184613349565b905092915050565b600060a0820190506133de6000830188613053565b81810360208301526133f08187613073565b905081810360408301526134048186613073565b905081810360608301526134188185613073565b905061342760808301846130ac565b9695505050505050565b600060c0830160008301516134496000860182612cd7565b50602083015184820360208601526134618282612d44565b9150506040830151848203604086015261347b8282612d44565b915050606083015184820360608601526134958282612d44565b91505060808301516134aa6080860182612ce6565b5060a08301516134bd60a0860182612de5565b508091505092915050565b600060208201905081810360008301526134e28184613431565b905092915050565b600060e0820190506134ff600083018a613053565b81810360208301526135118189613073565b905081810360408301526135258188613073565b905081810360608301526135398187613073565b9050818103608083015261354d8186613073565b905061355c60a08301856130ac565b61356960c08301846130bb565b98975050505050505050565b7f4e487b7100000000000000000000000000000000000000000000000000000000600052603260045260246000fd5b7f70617274206e6f7420617661696c61626c650000000000000000000000000000600082015250565b60006135da601283613062565b91506135e5826135a4565b602082019050919050565b60006020820190508181036000830152613609816135cd565b9050919050565b7f4e487b7100000000000000000000000000000000000000000000000000000000600052601160045260246000fd5b600061364a82612a54565b91507fffffffffffffffffffffffffffffffffffffffffffffffffffffffffffffffff820361367c5761367b613610565b5b600182019050919050565b600061369282612a54565b915061369d83612a54565b9250817fffffffffffffffffffffffffffffffffffffffffffffffffffffffffffffffff04831182151516156136d6576136d5613610565b5b828202905092915050565b7f50726f6475637420696e6578697374656e740000000000000000000000000000600082015250565b6000613717601283613062565b9150613722826136e1565b602082019050919050565b600060208201905081810360008301526137468161370a565b9050919050565b7f4e487b7100000000000000000000000000000000000000000000000000000000600052602260045260246000fd5b6000600282049050600182168061379457607f821691505b6020821081036137a7576137a661374d565b5b50919050565b7f63686f6f736520726967687420737570706c6965720000000000000000000000600082015250565b60006137e3601583613062565b91506137ee826137ad565b602082019050919050565b60006020820190508181036000830152613812816137d6565b9050919050565b7f6e6f7420746865207269676874206d616e756661637475726572000000000000600082015250565b600061384f601a83613062565b915061385a82613819565b602082019050919050565b6000602082019050818103600083015261387e81613842565b9050919050565b7f737570706c696572207072696365206e6f74206d617463686564000000000000600082015250565b60006138bb601a83613062565b91506138c682613885565b602082019050919050565b600060208201905081810360008301526138ea816138ae565b9050919050565b6000819050919050565b600061391661391161390c84612ca5565b6138f1565b612ca5565b9050919050565b6000613928826138fb565b9050919050565b600061393a8261391d565b9050919050565b61394a8161392f565b82525050565b60006080820190506139656000830187613941565b6139726020830186613053565b61397f60408301856130ac565b61398c6060830184612b5b565b95945050505050565b7f70726f6475637420416c72656164792065786973747300000000000000000000600082015250565b60006139cb601683613062565b91506139d682613995565b602082019050919050565b600060208201905081810360008301526139fa816139be565b9050919050565b7f4e487b7100000000000000000000000000000000000000000000000000000000600052601260045260246000fd5b6000613a3b82612a54565b9150613a4683612a54565b925082613a5657613a55613a01565b5b828204905092915050565b6000613a6c82612a54565b9150613a7783612a54565b9250827fffffffffffffffffffffffffffffffffffffffffffffffffffffffffffffffff03821115613aac57613aab613610565b5b82820190509291505056fea264697066735822122084d395c2624bc9b614819872eca401eb2c5aef7f7e1e704d8366b8c2912cd07a64736f6c634300080d0033",
  "immutableReferences": {},
  "source": "// SPDX-License-Identifier: MIT\npragma solidity >=0.5.22 <=0.9.0;\n\ncontract Supply_Chain {\n    bytes32[] public arr;\n    bytes32[] public arry;\n    enum State {\n        NOTVIEWED,\n        ACCEPTED,\n        DECLINED,\n        PENDING,\n        PAID\n    }\n    struct Order {\n        address manufactureradd;\n        string part_type;\n        string deliverOn;\n        string orderdate;\n        string quantity;\n        uint256 time;\n        State state;\n    }\n\n    struct Part {\n        address supplier;\n        string manufacturedate;\n        string part_type;\n        string serialno;\n        uint256 price;\n        State state;\n    }\n\n    struct Product {\n        address manufacturer;\n        string serial_number;\n        string product_type;\n        string manufacturedate;\n        bytes32[6] parts;\n        uint256 price;\n    }\n\n    struct part_recepit {\n        bytes32 orderhash;\n        address supplier;\n        uint256 partPrice;\n        string parttype;\n        State state;\n    }\n    mapping(bytes32 => part_recepit) public part_detail;\n    mapping(bytes32 => Order) public order;\n    mapping(bytes32 => Product) public product;\n    mapping(bytes32 => Part) public part;\n    event paymentDone(address reciver, address sender, uint256 amount, bytes32);\n\n    modifier onlymanufacturer(bytes32 hash) {\n        require(\n            order[hash].manufactureradd == msg.sender,\n            \"not the right manufacturer\"\n        );\n        _;\n    }\n    modifier rightsupplier(bytes32 hash, address receiver) {\n        require(\n            part_detail[hash].supplier == receiver,\n            \"choose right supplier\"\n        );\n        _;\n    }\n\n    //making hash\n    function INFO_AND_HASH(\n        address _address,\n        string memory orderdate,\n        string memory part_type,\n        string memory deliverOn\n    ) private pure returns (bytes32) {\n        bytes20 b_a1 = bytes20(_address);\n        bytes memory b_s1 = bytes(orderdate);\n        bytes memory b_s2 = bytes(part_type);\n        bytes memory b_s3 = bytes(deliverOn);\n\n        string memory s_full = new string(\n            b_a1.length + b_s1.length + b_s2.length + b_s3.length\n        );\n        bytes memory b_full = bytes(s_full);\n        uint256 j = 0;\n        uint256 i;\n        for (i = 0; i < b_a1.length; i++) {\n            b_full[j++] = b_a1[i];\n        }\n        for (i = 0; i < b_s1.length; i++) {\n            b_full[j++] = b_s1[i];\n        }\n        for (i = 0; i < b_s2.length; i++) {\n            b_full[j++] = b_s2[i];\n        }\n        for (i = 0; i < b_s3.length; i++) {\n            b_full[j++] = b_s3[i];\n        }\n        return keccak256(b_full);\n    }\n\n    // creating order\n    function create_order(\n        string memory part_type,\n        string memory deliverOn,\n        string memory orderdate,\n        string memory quantity\n    ) public returns (bytes32) {\n        State state = State.NOTVIEWED;\n        bytes32 order_hash = INFO_AND_HASH(\n            msg.sender,\n            part_type,\n            deliverOn,\n            orderdate\n        );\n        Order memory new_order = Order(\n            msg.sender,\n            part_type,\n            deliverOn,\n            orderdate,\n            quantity,\n            block.timestamp / 3600,\n            state\n        );\n\n        order[order_hash] = new_order;\n        arr.push(order_hash);\n        return order_hash;\n    }\n\n    function view_order(bytes32 orderhash) public returns (Order memory) {\n        State s = State.ACCEPTED;\n        order[orderhash].state = s;\n        return order[orderhash];\n    }\n\n    //accepting the order\n\n    function accept_order() public view returns (bytes32[] memory) {\n        return arr;\n    }\n\n    //making part after order recivied\n    function make_part(\n        bytes32 orderhash,\n        string memory manufacturedate,\n        string memory serialno,\n        uint256 price\n    ) public returns (bytes32 partHash) {\n        int256[] storage arr;\n        bytes32 part_hash = INFO_AND_HASH(\n            msg.sender,\n            order[orderhash].part_type,\n            order[orderhash].deliverOn,\n            order[orderhash].orderdate\n        );\n        require(\n            part[part_hash].supplier == address(0),\n            \"product Already exists\"\n        );\n        State state = State.PENDING;\n        Part memory new_part = Part(\n            msg.sender,\n            manufacturedate,\n            order[orderhash].part_type,\n            serialno,\n            price * 10**18,\n            state\n        );\n        part[part_hash] = new_part;\n        arry.push(part_hash);\n        return part_hash;\n    }\n    function partowned() public view returns(bytes32[] memory){\n        return arry;\n    }\n    //after making part ,configuring part receipt\n    function partrecepit(bytes32 orderhash, bytes32 partHash)\n        public\n        returns (bytes32)\n    {\n        uint256 price = part[partHash].price;\n        string memory parttype = part[partHash].part_type;\n        address supplier = part[partHash].supplier;\n        State state = State.PENDING;\n        part_recepit memory recepit = part_recepit(\n            orderhash,\n            supplier,\n            price,\n            parttype,\n            state\n        );\n        part_detail[orderhash] = recepit;\n        return orderhash;\n    }\n\n    function getpartrecepit(bytes32 orderhash)\n        public\n        view\n        returns (part_recepit memory)\n    {\n        return part_detail[orderhash];\n    }\n\n    //making payment to get part\n    function getparts(address payable receiver, bytes32 orderh)\n        external\n        payable\n        rightsupplier(orderh, receiver)\n        onlymanufacturer(orderh)\n        returns (bool)\n    {\n        uint256 amount = msg.value;\n        require(\n            part_detail[orderh].partPrice == amount,\n            \"supplier price not matched\"\n        );\n\n        receiver.transfer(amount);\n        State state = State.PAID;\n        order[orderh].state = state;\n        emit paymentDone(receiver, msg.sender, msg.value, orderh);\n        return true;\n    }\n\n    function make_Product(\n        string memory serialno,\n        string memory product_type,\n        string memory creation_date,\n        bytes32[6] memory parts_array,\n        uint256 price\n    ) public returns (bytes32) {\n        for (uint256 index = 0; index < parts_array.length; index++) {\n            require(\n                part[parts_array[index]].supplier != address(0),\n                \"part not available\"\n            );\n        }\n        bytes32 product_hash = INFO_AND_HASH(\n            msg.sender,\n            serialno,\n            product_type,\n            creation_date\n        );\n\n        Product memory new_product = Product(\n            msg.sender,\n            serialno,\n            product_type,\n            creation_date,\n            parts_array,\n            price * 10**18\n        );\n\n        product[product_hash] = new_product;\n\n        return product_hash;\n    }\n\n    function getProductParts(bytes32 product_hash)\n        public\n        view\n        returns (bytes32[6] memory)\n    {\n        require(\n            product[product_hash].manufacturer != address(0),\n            \"Product inexistent\"\n        );\n        return product[product_hash].parts;\n    }\n\n    function getPartInfo(bytes32 parthash)\n        public\n        view\n        returns (Part memory detail)\n    {\n        return part[parthash];\n    }\n}\n",
  "sourcePath": "/home/surajkumarprajapati/Desktop/SupplyChain/2_supplychain/contracts/supplychain.sol",
  "compiler": {
    "name": "solc",
    "version": "0.8.13+commit.abaa5c0e.Emscripten.clang"
  },
  "schemaVersion": "3.4.7",
  "updatedAt": "2022-06-30T09:38:13.374Z",
  "networkType": "ethereum",
  "devdoc": {
    "kind": "dev",
    "methods": {},
    "version": 1
  },
  "userdoc": {
    "kind": "user",
    "methods": {},
    "version": 1
  }
}