{
  "contractName": "ownwership",
  "abi": [
    {
      "inputs": [
        {
          "internalType": "address",
          "name": "product_contract",
          "type": "address"
        }
      ],
      "stateMutability": "nonpayable",
      "type": "constructor"
    },
    {
      "anonymous": false,
      "inputs": [
        {
          "indexed": true,
          "internalType": "bytes32",
          "name": "p",
          "type": "bytes32"
        },
        {
          "indexed": true,
          "internalType": "address",
          "name": "account",
          "type": "address"
        }
      ],
      "name": "TransferPartOwnership",
      "type": "event"
    },
    {
      "anonymous": false,
      "inputs": [
        {
          "indexed": true,
          "internalType": "bytes32",
          "name": "p",
          "type": "bytes32"
        },
        {
          "indexed": true,
          "internalType": "address",
          "name": "account",
          "type": "address"
        }
      ],
      "name": "TransferProductOwnership",
      "type": "event"
    },
    {
      "inputs": [
        {
          "internalType": "bytes32",
          "name": "",
          "type": "bytes32"
        }
      ],
      "name": "currentPartOwner",
      "outputs": [
        {
          "internalType": "address",
          "name": "",
          "type": "address"
        }
      ],
      "stateMutability": "view",
      "type": "function",
      "constant": true
    },
    {
      "inputs": [
        {
          "internalType": "bytes32",
          "name": "",
          "type": "bytes32"
        }
      ],
      "name": "currentProductOwner",
      "outputs": [
        {
          "internalType": "address",
          "name": "",
          "type": "address"
        }
      ],
      "stateMutability": "view",
      "type": "function",
      "constant": true
    },
    {
      "inputs": [
        {
          "internalType": "uint256",
          "name": "op_type",
          "type": "uint256"
        },
        {
          "internalType": "bytes32",
          "name": "p_hash",
          "type": "bytes32"
        }
      ],
      "name": "add_ownership",
      "outputs": [
        {
          "internalType": "bool",
          "name": "sucess",
          "type": "bool"
        }
      ],
      "stateMutability": "nonpayable",
      "type": "function"
    },
    {
      "inputs": [
        {
          "internalType": "uint256",
          "name": "op_type",
          "type": "uint256"
        },
        {
          "internalType": "bytes32",
          "name": "p_hash",
          "type": "bytes32"
        },
        {
          "internalType": "address",
          "name": "to",
          "type": "address"
        }
      ],
      "name": "changeOwnership",
      "outputs": [
        {
          "internalType": "bool",
          "name": "sucess",
          "type": "bool"
        }
      ],
      "stateMutability": "nonpayable",
      "type": "function"
    }
  ],
  "bytecode": "0x60806040523480156200001157600080fd5b506040516200141f3803806200141f8339818101604052810190620000379190620000e9565b80600260006101000a81548173ffffffffffffffffffffffffffffffffffffffff021916908373ffffffffffffffffffffffffffffffffffffffff160217905550506200011b565b600080fd5b600073ffffffffffffffffffffffffffffffffffffffff82169050919050565b6000620000b18262000084565b9050919050565b620000c381620000a4565b8114620000cf57600080fd5b50565b600081519050620000e381620000b8565b92915050565b6000602082840312156200010257620001016200007f565b5b60006200011284828501620000d2565b91505092915050565b6112f4806200012b6000396000f3fe608060405234801561001057600080fd5b506004361061004c5760003560e01c806379ab6eba14610051578063978011bd14610081578063ac814490146100b1578063f0fddc94146100e1575b600080fd5b61006b60048036038101906100669190610af2565b610111565b6040516100789190610b60565b60405180910390f35b61009b60048036038101906100969190610bb1565b610144565b6040516100a89190610c0c565b60405180910390f35b6100cb60048036038101906100c69190610c53565b610637565b6040516100d89190610c0c565b60405180910390f35b6100fb60048036038101906100f69190610af2565b610a75565b6040516101089190610b60565b60405180910390f35b60006020528060005260406000206000915054906101000a900473ffffffffffffffffffffffffffffffffffffffff1681565b600080600181111561015957610158610ca6565b5b83036103ba576000600260009054906101000a900473ffffffffffffffffffffffffffffffffffffffff1673ffffffffffffffffffffffffffffffffffffffff16637281a039846040518263ffffffff1660e01b81526004016101bc9190610ce4565b600060405180830381865afa1580156101d9573d6000803e3d6000fd5b505050506040513d6000823e3d601f19601f820116820180604052508101906102029190610e7e565b90915090505080915050600073ffffffffffffffffffffffffffffffffffffffff1660008085815260200190815260200160002060009054906101000a900473ffffffffffffffffffffffffffffffffffffffff1673ffffffffffffffffffffffffffffffffffffffff16146102ad576040517f08c379a00000000000000000000000000000000000000000000000000000000081526004016102a490610f96565b60405180910390fd5b3373ffffffffffffffffffffffffffffffffffffffff168173ffffffffffffffffffffffffffffffffffffffff161461031b576040517f08c379a000000000000000000000000000000000000000000000000000000000815260040161031290611002565b60405180910390fd5b3360008085815260200190815260200160002060006101000a81548173ffffffffffffffffffffffffffffffffffffffff021916908373ffffffffffffffffffffffffffffffffffffffff1602179055503373ffffffffffffffffffffffffffffffffffffffff16837f6a67eae68bb9deea9cbb16299fce22702092dc03cbcfd6a7babc7ac0036c7d4b60405160405180910390a36001915050610631565b6001808111156103cd576103cc610ca6565b5b8303610630576000600260009054906101000a900473ffffffffffffffffffffffffffffffffffffffff1673ffffffffffffffffffffffffffffffffffffffff1663b224149c846040518263ffffffff1660e01b81526004016104309190610ce4565b600060405180830381865afa15801561044d573d6000803e3d6000fd5b505050506040513d6000823e3d601f19601f820116820180604052508101906104769190610e7e565b90915090505080915050600073ffffffffffffffffffffffffffffffffffffffff166001600085815260200190815260200160002060009054906101000a900473ffffffffffffffffffffffffffffffffffffffff1673ffffffffffffffffffffffffffffffffffffffff1614610522576040517f08c379a000000000000000000000000000000000000000000000000000000000815260040161051990610f96565b60405180910390fd5b3373ffffffffffffffffffffffffffffffffffffffff168173ffffffffffffffffffffffffffffffffffffffff1614610590576040517f08c379a000000000000000000000000000000000000000000000000000000000815260040161058790611002565b60405180910390fd5b336001600085815260200190815260200160002060006101000a81548173ffffffffffffffffffffffffffffffffffffffff021916908373ffffffffffffffffffffffffffffffffffffffff1602179055503373ffffffffffffffffffffffffffffffffffffffff16837fe2d5b74efaa0dc370d71f08be6bc6c865613194b7345262a998fb5232622c0b260405160405180910390a36001915050610631565b5b92915050565b600080600181111561064c5761064b610ca6565b5b8403610790573373ffffffffffffffffffffffffffffffffffffffff1660008085815260200190815260200160002060009054906101000a900473ffffffffffffffffffffffffffffffffffffffff1673ffffffffffffffffffffffffffffffffffffffff16146106f2576040517f08c379a00000000000000000000000000000000000000000000000000000000081526004016106e99061106e565b60405180910390fd5b8160008085815260200190815260200160002060006101000a81548173ffffffffffffffffffffffffffffffffffffffff021916908373ffffffffffffffffffffffffffffffffffffffff1602179055508173ffffffffffffffffffffffffffffffffffffffff16837f6a67eae68bb9deea9cbb16299fce22702092dc03cbcfd6a7babc7ac0036c7d4b60405160405180910390a360019050610a6e565b6001808111156107a3576107a2610ca6565b5b8403610a6d573373ffffffffffffffffffffffffffffffffffffffff166001600085815260200190815260200160002060009054906101000a900473ffffffffffffffffffffffffffffffffffffffff1673ffffffffffffffffffffffffffffffffffffffff161461084a576040517f08c379a000000000000000000000000000000000000000000000000000000000815260040161084190611100565b60405180910390fd5b816001600085815260200190815260200160002060006101000a81548173ffffffffffffffffffffffffffffffffffffffff021916908373ffffffffffffffffffffffffffffffffffffffff1602179055508173ffffffffffffffffffffffffffffffffffffffff16837fe2d5b74efaa0dc370d71f08be6bc6c865613194b7345262a998fb5232622c0b260405160405180910390a36000600260009054906101000a900473ffffffffffffffffffffffffffffffffffffffff1673ffffffffffffffffffffffffffffffffffffffff16636e730329856040518263ffffffff1660e01b815260040161093d9190610ce4565b60c060405180830381865afa15801561095a573d6000803e3d6000fd5b505050506040513d601f19601f8201168201806040525081019061097e91906111eb565b905060005b6006811015610a6257836000808484600681106109a3576109a2611218565b5b6020020151815260200190815260200160002060006101000a81548173ffffffffffffffffffffffffffffffffffffffff021916908373ffffffffffffffffffffffffffffffffffffffff1602179055508373ffffffffffffffffffffffffffffffffffffffff16828260068110610a1e57610a1d611218565b5b60200201517f6a67eae68bb9deea9cbb16299fce22702092dc03cbcfd6a7babc7ac0036c7d4b60405160405180910390a38080610a5a90611276565b915050610983565b506001915050610a6e565b5b9392505050565b60016020528060005260406000206000915054906101000a900473ffffffffffffffffffffffffffffffffffffffff1681565b6000604051905090565b600080fd5b600080fd5b6000819050919050565b610acf81610abc565b8114610ada57600080fd5b50565b600081359050610aec81610ac6565b92915050565b600060208284031215610b0857610b07610ab2565b5b6000610b1684828501610add565b91505092915050565b600073ffffffffffffffffffffffffffffffffffffffff82169050919050565b6000610b4a82610b1f565b9050919050565b610b5a81610b3f565b82525050565b6000602082019050610b756000830184610b51565b92915050565b6000819050919050565b610b8e81610b7b565b8114610b9957600080fd5b50565b600081359050610bab81610b85565b92915050565b60008060408385031215610bc857610bc7610ab2565b5b6000610bd685828601610b9c565b9250506020610be785828601610add565b9150509250929050565b60008115159050919050565b610c0681610bf1565b82525050565b6000602082019050610c216000830184610bfd565b92915050565b610c3081610b3f565b8114610c3b57600080fd5b50565b600081359050610c4d81610c27565b92915050565b600080600060608486031215610c6c57610c6b610ab2565b5b6000610c7a86828701610b9c565b9350506020610c8b86828701610add565b9250506040610c9c86828701610c3e565b9150509250925092565b7f4e487b7100000000000000000000000000000000000000000000000000000000600052602160045260246000fd5b610cde81610abc565b82525050565b6000602082019050610cf96000830184610cd5565b92915050565b600081519050610d0e81610c27565b92915050565b600080fd5b600080fd5b6000601f19601f8301169050919050565b7f4e487b7100000000000000000000000000000000000000000000000000000000600052604160045260246000fd5b610d6782610d1e565b810181811067ffffffffffffffff82111715610d8657610d85610d2f565b5b80604052505050565b6000610d99610aa8565b9050610da58282610d5e565b919050565b600067ffffffffffffffff821115610dc557610dc4610d2f565b5b610dce82610d1e565b9050602081019050919050565b60005b83811015610df9578082015181840152602081019050610dde565b83811115610e08576000848401525b50505050565b6000610e21610e1c84610daa565b610d8f565b905082815260208101848484011115610e3d57610e3c610d19565b5b610e48848285610ddb565b509392505050565b600082601f830112610e6557610e64610d14565b5b8151610e75848260208601610e0e565b91505092915050565b60008060008060808587031215610e9857610e97610ab2565b5b6000610ea687828801610cff565b945050602085015167ffffffffffffffff811115610ec757610ec6610ab7565b5b610ed387828801610e50565b935050604085015167ffffffffffffffff811115610ef457610ef3610ab7565b5b610f0087828801610e50565b925050606085015167ffffffffffffffff811115610f2157610f20610ab7565b5b610f2d87828801610e50565b91505092959194509250565b600082825260208201905092915050565b7f7061727420697320616c72656164792072656769737465726564000000000000600082015250565b6000610f80601a83610f39565b9150610f8b82610f4a565b602082019050919050565b60006020820190508181036000830152610faf81610f73565b9050919050565b7f7061727420776173206e6f74206d616465206279207265717565737465720000600082015250565b6000610fec601e83610f39565b9150610ff782610fb6565b602082019050919050565b6000602082019050818103600083015261101b81610fdf565b9050919050565b7f50617274206973206e6f74206f776e6564206279207265717565737465720000600082015250565b6000611058601e83610f39565b915061106382611022565b602082019050919050565b600060208201905081810360008301526110878161104b565b9050919050565b7f50726f64756374206973206e6f74206f776e656420627920726571756573746560008201527f7200000000000000000000000000000000000000000000000000000000000000602082015250565b60006110ea602183610f39565b91506110f58261108e565b604082019050919050565b60006020820190508181036000830152611119816110dd565b9050919050565b600067ffffffffffffffff82111561113b5761113a610d2f565b5b602082029050919050565b600080fd5b60008151905061115a81610ac6565b92915050565b600061117361116e84611120565b610d8f565b9050806020840283018581111561118d5761118c611146565b5b835b818110156111b657806111a2888261114b565b84526020840193505060208101905061118f565b5050509392505050565b600082601f8301126111d5576111d4610d14565b5b60066111e2848285611160565b91505092915050565b600060c0828403121561120157611200610ab2565b5b600061120f848285016111c0565b91505092915050565b7f4e487b7100000000000000000000000000000000000000000000000000000000600052603260045260246000fd5b7f4e487b7100000000000000000000000000000000000000000000000000000000600052601160045260246000fd5b600061128182610b7b565b91507fffffffffffffffffffffffffffffffffffffffffffffffffffffffffffffffff82036112b3576112b2611247565b5b60018201905091905056fea2646970667358221220ec8a7a854bfdf34672be401be03a9e50465bf24df35e354d0e3abd10d43dcb3964736f6c634300080e0033",
  "immutableReferences": {},
  "source": "// SPDX-License-Identifier: MIT\npragma solidity >=0.5.22 <=0.9.0;\n\ncontract Supply_Chain {\n    struct Part {\n        address manufacturer;\n        string serial_number;\n        string part_type;\n        string creation_date;\n    }\n    struct Product {\n        address manufacturer;\n        string serial_number;\n        string product_type;\n        string creation_date;\n        bytes32[6] parts;\n    }\n\n    mapping(bytes32 => Product) public product;\n    mapping(bytes32 => Part) public part;\n\n    function getParts(bytes32 product_hash)\n        public\n        view\n        returns (bytes32[6] memory)\n    {}\n}\n\ncontract ownwership {\n    enum Operation {PART,PRODUCT}\n    mapping(bytes32=>address) public currentPartOwner;\n    mapping(bytes32=>address) public currentProductOwner;\n    event TransferPartOwnership(bytes32 indexed p,address indexed account );\n    event TransferProductOwnership(bytes32 indexed p,address indexed account );\n    Supply_Chain private SC;\n\n    constructor(address product_contract){\n        SC = Supply_Chain(product_contract);\n\n    }\n\n    function add_ownership(uint op_type,bytes32 p_hash) public returns (bool sucess){\n        if(op_type==uint (Operation.PART)){\n            address manufacturer;\n            (manufacturer, , ,) = SC.part(p_hash);\n            require(currentPartOwner[p_hash]==address(0),\"part is already registered\");\n            require(manufacturer==msg.sender,\"part was not made by requester\");\n            currentPartOwner[p_hash]=msg.sender;\n            emit TransferPartOwnership(p_hash,msg.sender);\n                return true;\n        }\n        else if (op_type==uint (Operation.PRODUCT)){\n                address manufacturer;\n                (manufacturer, , ,) = SC.product(p_hash);\n               require(currentProductOwner[p_hash]==address(0),\"part is already registered\");\n            require(manufacturer==msg.sender,\"part was not made by requester\");\n            currentProductOwner[p_hash]=msg.sender;\n            emit TransferProductOwnership(p_hash,msg.sender); \n            return true;\n        }\n    }\n\n    function changeOwnership(uint op_type, bytes32 p_hash, address to) public returns (bool sucess) {\n      \n        if(op_type == uint(Operation.PART)){\n            require(currentPartOwner[p_hash] == msg.sender, \"Part is not owned by requester\");\n            currentPartOwner[p_hash] = to;\n            emit TransferPartOwnership(p_hash, to);\n            return true;\n        } else if (op_type == uint(Operation.PRODUCT)){\n            require(currentProductOwner[p_hash] == msg.sender, \"Product is not owned by requester\");\n            currentProductOwner[p_hash] = to;\n            emit TransferProductOwnership(p_hash, to);\n            \n            bytes32[6] memory part_list = SC.getParts(p_hash);\n            for(uint i = 0; i < part_list.length; i++){\n                currentPartOwner[part_list[i]] = to;\n                emit TransferPartOwnership(part_list[i], to);\n            }\n            return true;\n        }\n    }\n}\n",
  "sourcePath": "/Users/surajprajapati/Downloads/SupplyChain/2_supplychain/contracts/changeownership.sol",
  "compiler": {
    "name": "solc",
    "version": "0.8.14+commit.80d49f37.Emscripten.clang"
  },
  "schemaVersion": "3.4.7",
  "updatedAt": "2022-06-29T19:20:42.858Z",
  "networkType": "ethereum",
  "devdoc": {
    "kind": "dev",
    "methods": {},
    "version": 1
  },
  "userdoc": {
    "kind": "user",
    "methods": {},
    "version": 1
  }
}