{
  "contractName": "Supply_Chain",
  "abi": [
    {
      "anonymous": false,
      "inputs": [
        {
          "indexed": false,
          "internalType": "address",
          "name": "reciver",
          "type": "address"
        },
        {
          "indexed": false,
          "internalType": "address",
          "name": "sender",
          "type": "address"
        },
        {
          "indexed": false,
          "internalType": "uint256",
          "name": "amount",
          "type": "uint256"
        },
        {
          "indexed": false,
          "internalType": "bytes32",
          "name": "",
          "type": "bytes32"
        }
      ],
      "name": "paymentDone",
      "type": "event"
    },
    {
      "inputs": [
        {
          "internalType": "uint256",
          "name": "",
          "type": "uint256"
        }
      ],
      "name": "arr",
      "outputs": [
        {
          "internalType": "bytes32",
          "name": "",
          "type": "bytes32"
        }
      ],
      "stateMutability": "view",
      "type": "function",
      "constant": true
    },
    {
      "inputs": [
        {
          "internalType": "bytes32",
          "name": "",
          "type": "bytes32"
        }
      ],
      "name": "order",
      "outputs": [
        {
          "internalType": "address",
          "name": "manufactureradd",
          "type": "address"
        },
        {
          "internalType": "string",
          "name": "part_type",
          "type": "string"
        },
        {
          "internalType": "string",
          "name": "deliverOn",
          "type": "string"
        },
        {
          "internalType": "string",
          "name": "orderdate",
          "type": "string"
        },
        {
          "internalType": "string",
          "name": "quantity",
          "type": "string"
        },
        {
          "internalType": "uint256",
          "name": "time",
          "type": "uint256"
        },
        {
          "internalType": "enum Supply_Chain.State",
          "name": "state",
          "type": "uint8"
        }
      ],
      "stateMutability": "view",
      "type": "function",
      "constant": true
    },
    {
      "inputs": [
        {
          "internalType": "bytes32",
          "name": "",
          "type": "bytes32"
        }
      ],
      "name": "part",
      "outputs": [
        {
          "internalType": "address",
          "name": "supplier",
          "type": "address"
        },
        {
          "internalType": "string",
          "name": "manufacturedate",
          "type": "string"
        },
        {
          "internalType": "string",
          "name": "part_type",
          "type": "string"
        },
        {
          "internalType": "string",
          "name": "serialno",
          "type": "string"
        },
        {
          "internalType": "uint256",
          "name": "price",
          "type": "uint256"
        }
      ],
      "stateMutability": "view",
      "type": "function",
      "constant": true
    },
    {
      "inputs": [
        {
          "internalType": "bytes32",
          "name": "",
          "type": "bytes32"
        }
      ],
      "name": "part_detail",
      "outputs": [
        {
          "internalType": "bytes32",
          "name": "orderhash",
          "type": "bytes32"
        },
        {
          "internalType": "address",
          "name": "supplier",
          "type": "address"
        },
        {
          "internalType": "uint256",
          "name": "partPrice",
          "type": "uint256"
        },
        {
          "internalType": "string",
          "name": "parttype",
          "type": "string"
        }
      ],
      "stateMutability": "view",
      "type": "function",
      "constant": true
    },
    {
      "inputs": [
        {
          "internalType": "bytes32",
          "name": "",
          "type": "bytes32"
        }
      ],
      "name": "product",
      "outputs": [
        {
          "internalType": "address",
          "name": "manufacturer",
          "type": "address"
        },
        {
          "internalType": "string",
          "name": "serial_number",
          "type": "string"
        },
        {
          "internalType": "string",
          "name": "product_type",
          "type": "string"
        },
        {
          "internalType": "string",
          "name": "manufacturedate",
          "type": "string"
        },
        {
          "internalType": "uint256",
          "name": "price",
          "type": "uint256"
        }
      ],
      "stateMutability": "view",
      "type": "function",
      "constant": true
    },
    {
      "inputs": [
        {
          "internalType": "string",
          "name": "part_type",
          "type": "string"
        },
        {
          "internalType": "string",
          "name": "deliverOn",
          "type": "string"
        },
        {
          "internalType": "string",
          "name": "orderdate",
          "type": "string"
        },
        {
          "internalType": "string",
          "name": "quantity",
          "type": "string"
        }
      ],
      "name": "create_order",
      "outputs": [
        {
          "internalType": "bytes32",
          "name": "",
          "type": "bytes32"
        }
      ],
      "stateMutability": "nonpayable",
      "type": "function"
    },
    {
      "inputs": [
        {
          "internalType": "bytes32",
          "name": "orderhash",
          "type": "bytes32"
        }
      ],
      "name": "view_order",
      "outputs": [
        {
          "components": [
            {
              "internalType": "address",
              "name": "manufactureradd",
              "type": "address"
            },
            {
              "internalType": "string",
              "name": "part_type",
              "type": "string"
            },
            {
              "internalType": "string",
              "name": "deliverOn",
              "type": "string"
            },
            {
              "internalType": "string",
              "name": "orderdate",
              "type": "string"
            },
            {
              "internalType": "string",
              "name": "quantity",
              "type": "string"
            },
            {
              "internalType": "uint256",
              "name": "time",
              "type": "uint256"
            },
            {
              "internalType": "enum Supply_Chain.State",
              "name": "state",
              "type": "uint8"
            }
          ],
          "internalType": "struct Supply_Chain.Order",
          "name": "",
          "type": "tuple"
        }
      ],
      "stateMutability": "nonpayable",
      "type": "function"
    },
    {
      "inputs": [],
      "name": "accept_order",
      "outputs": [
        {
          "internalType": "bytes32[]",
          "name": "",
          "type": "bytes32[]"
        }
      ],
      "stateMutability": "view",
      "type": "function",
      "constant": true
    },
    {
      "inputs": [
        {
          "internalType": "bytes32",
          "name": "orderhash",
          "type": "bytes32"
        },
        {
          "internalType": "string",
          "name": "manufacturedate",
          "type": "string"
        },
        {
          "internalType": "string",
          "name": "serialno",
          "type": "string"
        },
        {
          "internalType": "uint256",
          "name": "price",
          "type": "uint256"
        }
      ],
      "name": "make_part",
      "outputs": [
        {
          "internalType": "bytes32",
          "name": "partHash",
          "type": "bytes32"
        }
      ],
      "stateMutability": "nonpayable",
      "type": "function"
    },
    {
      "inputs": [
        {
          "internalType": "bytes32",
          "name": "orderhash",
          "type": "bytes32"
        },
        {
          "internalType": "bytes32",
          "name": "partHash",
          "type": "bytes32"
        }
      ],
      "name": "partrecepit",
      "outputs": [
        {
          "internalType": "bytes32",
          "name": "",
          "type": "bytes32"
        }
      ],
      "stateMutability": "nonpayable",
      "type": "function"
    },
    {
      "inputs": [
        {
          "internalType": "bytes32",
          "name": "orderhash",
          "type": "bytes32"
        }
      ],
      "name": "getpartrecepit",
      "outputs": [
        {
          "components": [
            {
              "internalType": "bytes32",
              "name": "orderhash",
              "type": "bytes32"
            },
            {
              "internalType": "address",
              "name": "supplier",
              "type": "address"
            },
            {
              "internalType": "uint256",
              "name": "partPrice",
              "type": "uint256"
            },
            {
              "internalType": "string",
              "name": "parttype",
              "type": "string"
            }
          ],
          "internalType": "struct Supply_Chain.part_recepit",
          "name": "",
          "type": "tuple"
        }
      ],
      "stateMutability": "view",
      "type": "function",
      "constant": true
    },
    {
      "inputs": [
        {
          "internalType": "address payable",
          "name": "receiver",
          "type": "address"
        },
        {
          "internalType": "bytes32",
          "name": "orderh",
          "type": "bytes32"
        }
      ],
      "name": "getparts",
      "outputs": [
        {
          "internalType": "bool",
          "name": "",
          "type": "bool"
        }
      ],
      "stateMutability": "payable",
      "type": "function",
      "payable": true
    },
    {
      "inputs": [
        {
          "internalType": "string",
          "name": "serialno",
          "type": "string"
        },
        {
          "internalType": "string",
          "name": "product_type",
          "type": "string"
        },
        {
          "internalType": "string",
          "name": "creation_date",
          "type": "string"
        },
        {
          "internalType": "bytes32[6]",
          "name": "parts_array",
          "type": "bytes32[6]"
        },
        {
          "internalType": "uint256",
          "name": "price",
          "type": "uint256"
        }
      ],
      "name": "make_Product",
      "outputs": [
        {
          "internalType": "bytes32",
          "name": "",
          "type": "bytes32"
        }
      ],
      "stateMutability": "nonpayable",
      "type": "function"
    },
    {
      "inputs": [
        {
          "internalType": "bytes32",
          "name": "product_hash",
          "type": "bytes32"
        }
      ],
      "name": "getProductParts",
      "outputs": [
        {
          "internalType": "bytes32[6]",
          "name": "",
          "type": "bytes32[6]"
        }
      ],
      "stateMutability": "view",
      "type": "function",
      "constant": true
    },
    {
      "inputs": [
        {
          "internalType": "bytes32",
          "name": "parthash",
          "type": "bytes32"
        }
      ],
      "name": "getPartInfo",
      "outputs": [
        {
          "components": [
            {
              "internalType": "address",
              "name": "supplier",
              "type": "address"
            },
            {
              "internalType": "string",
              "name": "manufacturedate",
              "type": "string"
            },
            {
              "internalType": "string",
              "name": "part_type",
              "type": "string"
            },
            {
              "internalType": "string",
              "name": "serialno",
              "type": "string"
            },
            {
              "internalType": "uint256",
              "name": "price",
              "type": "uint256"
            }
          ],
          "internalType": "struct Supply_Chain.Part",
          "name": "detail",
          "type": "tuple"
        }
      ],
      "stateMutability": "view",
      "type": "function",
      "constant": true
    }
  ],
  "bytecode": "0x608060405234801561001057600080fd5b5061376d806100206000396000f3fe6080604052600436106100e85760003560e01c80637281a0391161008a5780639a069a42116100595780639a069a4214610386578063b224149c146103b1578063d760fa3d146103f2578063e80160ab1461042f576100e8565b80637281a0391461028b57806379f3c588146102cc5780639670c79c146103095780639779908014610346576100e8565b80634c9b90e9116100c65780634c9b90e9146101a4578063622f0694146101d457806371e5ee5f14610211578063724e203d1461024e576100e8565b8063016d9974146100ed57806320ff3f4e1461012a5780634bc8e47b14610167575b600080fd5b3480156100f957600080fd5b50610114600480360381019061010f91906127b4565b610472565b6040516101219190612894565b60405180910390f35b34801561013657600080fd5b50610151600480360381019061014c91906128af565b6106a2565b60405161015e9190612987565b60405180910390f35b34801561017357600080fd5b5061018e600480360381019061018991906128af565b6107a8565b60405161019b9190612add565b60405180910390f35b6101be60048036038101906101b99190612b3d565b6108d1565b6040516101cb9190612b98565b60405180910390f35b3480156101e057600080fd5b506101fb60048036038101906101f69190612bb3565b610b0d565b6040516102089190612894565b60405180910390f35b34801561021d57600080fd5b5061023860048036038101906102339190612bf3565b610cde565b6040516102459190612894565b60405180910390f35b34801561025a57600080fd5b50610275600480360381019061027091906128af565b610d02565b6040516102829190612d48565b60405180910390f35b34801561029757600080fd5b506102b260048036038101906102ad91906128af565b611057565b6040516102c3959493929190612dd2565b60405180910390f35b3480156102d857600080fd5b506102f360048036038101906102ee9190612e3a565b611245565b6040516103009190612894565b60405180910390f35b34801561031557600080fd5b50610330600480360381019061032b9190612ed9565b611696565b60405161033d9190612894565b60405180910390f35b34801561035257600080fd5b5061036d600480360381019061036891906128af565b61185c565b60405161037d9493929190612fb0565b60405180910390f35b34801561039257600080fd5b5061039b611934565b6040516103a89190613093565b60405180910390f35b3480156103bd57600080fd5b506103d860048036038101906103d391906128af565b61198c565b6040516103e9959493929190612dd2565b60405180910390f35b3480156103fe57600080fd5b50610419600480360381019061041491906128af565b611b7a565b6040516104269190613139565b60405180910390f35b34801561043b57600080fd5b50610456600480360381019061045191906128af565b611dbd565b604051610469979695949392919061316a565b60405180910390f35b600080600090505b600681101561055257600073ffffffffffffffffffffffffffffffffffffffff16600460008684600681106104b2576104b16131f5565b5b6020020151815260200190815260200160002060000160009054906101000a900473ffffffffffffffffffffffffffffffffffffffff1673ffffffffffffffffffffffffffffffffffffffff160361053f576040517f08c379a000000000000000000000000000000000000000000000000000000000815260040161053690613270565b60405180910390fd5b808061054a906132bf565b91505061047a565b5060006105613388888861204c565b905060006040518060c001604052803373ffffffffffffffffffffffffffffffffffffffff168152602001898152602001888152602001878152602001868152602001670de0b6b3a7640000866105b89190613307565b8152509050806003600084815260200190815260200160002060008201518160000160006101000a81548173ffffffffffffffffffffffffffffffffffffffff021916908373ffffffffffffffffffffffffffffffffffffffff160217905550602082015181600101908051906020019061063492919061232b565b50604082015181600201908051906020019061065192919061232b565b50606082015181600301908051906020019061066e92919061232b565b506080820151816004019060066106869291906123b1565b5060a082015181600a0155905050819250505095945050505050565b6106aa6123f1565b600073ffffffffffffffffffffffffffffffffffffffff166003600084815260200190815260200160002060000160009054906101000a900473ffffffffffffffffffffffffffffffffffffffff1673ffffffffffffffffffffffffffffffffffffffff160361074f576040517f08c379a0000000000000000000000000000000000000000000000000000000008152600401610746906133ad565b60405180910390fd5b6003600083815260200190815260200160002060040160068060200260405190810160405280929190826006801561079c576020028201915b815481526020019060010190808311610788575b50505050509050919050565b6107b0612413565b60016000838152602001908152602001600020604051806080016040529081600082015481526020016001820160009054906101000a900473ffffffffffffffffffffffffffffffffffffffff1673ffffffffffffffffffffffffffffffffffffffff1673ffffffffffffffffffffffffffffffffffffffff16815260200160028201548152602001600382018054610848906133fc565b80601f0160208091040260200160405190810160405280929190818152602001828054610874906133fc565b80156108c15780601f10610896576101008083540402835291602001916108c1565b820191906000526020600020905b8154815290600101906020018083116108a457829003601f168201915b5050505050815250509050919050565b600081838073ffffffffffffffffffffffffffffffffffffffff166001600084815260200190815260200160002060010160009054906101000a900473ffffffffffffffffffffffffffffffffffffffff1673ffffffffffffffffffffffffffffffffffffffff1614610979576040517f08c379a000000000000000000000000000000000000000000000000000000000815260040161097090613479565b60405180910390fd5b833373ffffffffffffffffffffffffffffffffffffffff166002600083815260200190815260200160002060000160009054906101000a900473ffffffffffffffffffffffffffffffffffffffff1673ffffffffffffffffffffffffffffffffffffffff1614610a1e576040517f08c379a0000000000000000000000000000000000000000000000000000000008152600401610a15906134e5565b60405180910390fd5b600034905080600160008881526020019081526020016000206002015414610a7b576040517f08c379a0000000000000000000000000000000000000000000000000000000008152600401610a7290613551565b60405180910390fd5b8673ffffffffffffffffffffffffffffffffffffffff166108fc829081150290604051600060405180830381858888f19350505050158015610ac1573d6000803e3d6000fd5b507f8872194aef2c35bdaa0eea5f770ce68d7262902a3c74661704a2912c56a88f9e87333489604051610af794939291906135d0565b60405180910390a1600194505050505092915050565b600080600460008481526020019081526020016000206004015490506000600460008581526020019081526020016000206002018054610b4c906133fc565b80601f0160208091040260200160405190810160405280929190818152602001828054610b78906133fc565b8015610bc55780601f10610b9a57610100808354040283529160200191610bc5565b820191906000526020600020905b815481529060010190602001808311610ba857829003601f168201915b5050505050905060006004600086815260200190815260200160002060000160009054906101000a900473ffffffffffffffffffffffffffffffffffffffff169050600060405180608001604052808881526020018373ffffffffffffffffffffffffffffffffffffffff16815260200185815260200184815250905080600160008981526020019081526020016000206000820151816000015560208201518160010160006101000a81548173ffffffffffffffffffffffffffffffffffffffff021916908373ffffffffffffffffffffffffffffffffffffffff160217905550604082015181600201556060820151816003019080519060200190610ccd92919061232b565b509050508694505050505092915050565b60008181548110610cee57600080fd5b906000526020600020016000915090505481565b610d0a612454565b600060019050806002600085815260200190815260200160002060060160006101000a81548160ff02191690836003811115610d4957610d48612c20565b5b0217905550600260008481526020019081526020016000206040518060e00160405290816000820160009054906101000a900473ffffffffffffffffffffffffffffffffffffffff1673ffffffffffffffffffffffffffffffffffffffff1673ffffffffffffffffffffffffffffffffffffffff168152602001600182018054610dd2906133fc565b80601f0160208091040260200160405190810160405280929190818152602001828054610dfe906133fc565b8015610e4b5780601f10610e2057610100808354040283529160200191610e4b565b820191906000526020600020905b815481529060010190602001808311610e2e57829003601f168201915b50505050508152602001600282018054610e64906133fc565b80601f0160208091040260200160405190810160405280929190818152602001828054610e90906133fc565b8015610edd5780601f10610eb257610100808354040283529160200191610edd565b820191906000526020600020905b815481529060010190602001808311610ec057829003601f168201915b50505050508152602001600382018054610ef6906133fc565b80601f0160208091040260200160405190810160405280929190818152602001828054610f22906133fc565b8015610f6f5780601f10610f4457610100808354040283529160200191610f6f565b820191906000526020600020905b815481529060010190602001808311610f5257829003601f168201915b50505050508152602001600482018054610f88906133fc565b80601f0160208091040260200160405190810160405280929190818152602001828054610fb4906133fc565b80156110015780601f10610fd657610100808354040283529160200191611001565b820191906000526020600020905b815481529060010190602001808311610fe457829003601f168201915b50505050508152602001600582015481526020016006820160009054906101000a900460ff16600381111561103957611038612c20565b5b600381111561104b5761104a612c20565b5b81525050915050919050565b60046020528060005260406000206000915090508060000160009054906101000a900473ffffffffffffffffffffffffffffffffffffffff16908060010180546110a0906133fc565b80601f01602080910402602001604051908101604052809291908181526020018280546110cc906133fc565b80156111195780601f106110ee57610100808354040283529160200191611119565b820191906000526020600020905b8154815290600101906020018083116110fc57829003601f168201915b50505050509080600201805461112e906133fc565b80601f016020809104026020016040519081016040528092919081815260200182805461115a906133fc565b80156111a75780601f1061117c576101008083540402835291602001916111a7565b820191906000526020600020905b81548152906001019060200180831161118a57829003601f168201915b5050505050908060030180546111bc906133fc565b80601f01602080910402602001604051908101604052809291908181526020018280546111e8906133fc565b80156112355780601f1061120a57610100808354040283529160200191611235565b820191906000526020600020905b81548152906001019060200180831161121857829003601f168201915b5050505050908060040154905085565b600080600061143033600260008a8152602001908152602001600020600101805461126f906133fc565b80601f016020809104026020016040519081016040528092919081815260200182805461129b906133fc565b80156112e85780601f106112bd576101008083540402835291602001916112e8565b820191906000526020600020905b8154815290600101906020018083116112cb57829003601f168201915b5050505050600260008b8152602001908152602001600020600201805461130e906133fc565b80601f016020809104026020016040519081016040528092919081815260200182805461133a906133fc565b80156113875780601f1061135c57610100808354040283529160200191611387565b820191906000526020600020905b81548152906001019060200180831161136a57829003601f168201915b5050505050600260008c815260200190815260200160002060030180546113ad906133fc565b80601f01602080910402602001604051908101604052809291908181526020018280546113d9906133fc565b80156114265780601f106113fb57610100808354040283529160200191611426565b820191906000526020600020905b81548152906001019060200180831161140957829003601f168201915b505050505061204c565b9050600073ffffffffffffffffffffffffffffffffffffffff166004600083815260200190815260200160002060000160009054906101000a900473ffffffffffffffffffffffffffffffffffffffff1673ffffffffffffffffffffffffffffffffffffffff16146114d7576040517f08c379a00000000000000000000000000000000000000000000000000000000081526004016114ce90613661565b60405180910390fd5b60006040518060a001604052803373ffffffffffffffffffffffffffffffffffffffff168152602001888152602001600260008b81526020019081526020016000206001018054611527906133fc565b80601f0160208091040260200160405190810160405280929190818152602001828054611553906133fc565b80156115a05780601f10611575576101008083540402835291602001916115a0565b820191906000526020600020905b81548152906001019060200180831161158357829003601f168201915b50505050508152602001878152602001670de0b6b3a7640000876115c49190613307565b8152509050806004600084815260200190815260200160002060008201518160000160006101000a81548173ffffffffffffffffffffffffffffffffffffffff021916908373ffffffffffffffffffffffffffffffffffffffff160217905550602082015181600101908051906020019061164092919061232b565b50604082015181600201908051906020019061165d92919061232b565b50606082015181600301908051906020019061167a92919061232b565b5060808201518160040155905050819350505050949350505050565b6000806000905060006116ab3388888861204c565b905060006040518060e001604052803373ffffffffffffffffffffffffffffffffffffffff168152602001898152602001888152602001878152602001868152602001610e10426116fc91906136b0565b815260200184600381111561171457611713612c20565b5b8152509050806002600084815260200190815260200160002060008201518160000160006101000a81548173ffffffffffffffffffffffffffffffffffffffff021916908373ffffffffffffffffffffffffffffffffffffffff160217905550602082015181600101908051906020019061179092919061232b565b5060408201518160020190805190602001906117ad92919061232b565b5060608201518160030190805190602001906117ca92919061232b565b5060808201518160040190805190602001906117e792919061232b565b5060a0820151816005015560c08201518160060160006101000a81548160ff0219169083600381111561181d5761181c612c20565b5b02179055509050506000829080600181540180825580915050600190039060005260206000200160009091909190915055819350505050949350505050565b60016020528060005260406000206000915090508060000154908060010160009054906101000a900473ffffffffffffffffffffffffffffffffffffffff16908060020154908060030180546118b1906133fc565b80601f01602080910402602001604051908101604052809291908181526020018280546118dd906133fc565b801561192a5780601f106118ff5761010080835404028352916020019161192a565b820191906000526020600020905b81548152906001019060200180831161190d57829003601f168201915b5050505050905084565b6060600080548060200260200160405190810160405280929190818152602001828054801561198257602002820191906000526020600020905b81548152602001906001019080831161196e575b5050505050905090565b60036020528060005260406000206000915090508060000160009054906101000a900473ffffffffffffffffffffffffffffffffffffffff16908060010180546119d5906133fc565b80601f0160208091040260200160405190810160405280929190818152602001828054611a01906133fc565b8015611a4e5780601f10611a2357610100808354040283529160200191611a4e565b820191906000526020600020905b815481529060010190602001808311611a3157829003601f168201915b505050505090806002018054611a63906133fc565b80601f0160208091040260200160405190810160405280929190818152602001828054611a8f906133fc565b8015611adc5780601f10611ab157610100808354040283529160200191611adc565b820191906000526020600020905b815481529060010190602001808311611abf57829003601f168201915b505050505090806003018054611af1906133fc565b80601f0160208091040260200160405190810160405280929190818152602001828054611b1d906133fc565b8015611b6a5780601f10611b3f57610100808354040283529160200191611b6a565b820191906000526020600020905b815481529060010190602001808311611b4d57829003601f168201915b50505050509080600a0154905085565b611b826124b9565b600460008381526020019081526020016000206040518060a00160405290816000820160009054906101000a900473ffffffffffffffffffffffffffffffffffffffff1673ffffffffffffffffffffffffffffffffffffffff1673ffffffffffffffffffffffffffffffffffffffff168152602001600182018054611c06906133fc565b80601f0160208091040260200160405190810160405280929190818152602001828054611c32906133fc565b8015611c7f5780601f10611c5457610100808354040283529160200191611c7f565b820191906000526020600020905b815481529060010190602001808311611c6257829003601f168201915b50505050508152602001600282018054611c98906133fc565b80601f0160208091040260200160405190810160405280929190818152602001828054611cc4906133fc565b8015611d115780601f10611ce657610100808354040283529160200191611d11565b820191906000526020600020905b815481529060010190602001808311611cf457829003601f168201915b50505050508152602001600382018054611d2a906133fc565b80601f0160208091040260200160405190810160405280929190818152602001828054611d56906133fc565b8015611da35780601f10611d7857610100808354040283529160200191611da3565b820191906000526020600020905b815481529060010190602001808311611d8657829003601f168201915b505050505081526020016004820154815250509050919050565b60026020528060005260406000206000915090508060000160009054906101000a900473ffffffffffffffffffffffffffffffffffffffff1690806001018054611e06906133fc565b80601f0160208091040260200160405190810160405280929190818152602001828054611e32906133fc565b8015611e7f5780601f10611e5457610100808354040283529160200191611e7f565b820191906000526020600020905b815481529060010190602001808311611e6257829003601f168201915b505050505090806002018054611e94906133fc565b80601f0160208091040260200160405190810160405280929190818152602001828054611ec0906133fc565b8015611f0d5780601f10611ee257610100808354040283529160200191611f0d565b820191906000526020600020905b815481529060010190602001808311611ef057829003601f168201915b505050505090806003018054611f22906133fc565b80601f0160208091040260200160405190810160405280929190818152602001828054611f4e906133fc565b8015611f9b5780601f10611f7057610100808354040283529160200191611f9b565b820191906000526020600020905b815481529060010190602001808311611f7e57829003601f168201915b505050505090806004018054611fb0906133fc565b80601f0160208091040260200160405190810160405280929190818152602001828054611fdc906133fc565b80156120295780601f10611ffe57610100808354040283529160200191612029565b820191906000526020600020905b81548152906001019060200180831161200c57829003601f168201915b5050505050908060050154908060060160009054906101000a900460ff16905087565b6000808560601b90506000859050600085905060008590506000815183518551601460ff1661207b91906136e1565b61208591906136e1565b61208f91906136e1565b67ffffffffffffffff8111156120a8576120a7612567565b5b6040519080825280601f01601f1916602001820160405280156120da5781602001600182028036833780820191505090505b50905060008190506000805b601460ff1681101561216a57878160148110612105576121046131f5565b5b1a60f81b838380612115906132bf565b945081518110612128576121276131f5565b5b60200101907effffffffffffffffffffffffffffffffffffffffffffffffffffffffffffff1916908160001a9053508080612162906132bf565b9150506120e6565b600090505b86518110156121f75786818151811061218b5761218a6131f5565b5b602001015160f81c60f81b8383806121a2906132bf565b9450815181106121b5576121b46131f5565b5b60200101907effffffffffffffffffffffffffffffffffffffffffffffffffffffffffffff1916908160001a90535080806121ef906132bf565b91505061216f565b600090505b855181101561228457858181518110612218576122176131f5565b5b602001015160f81c60f81b83838061222f906132bf565b945081518110612242576122416131f5565b5b60200101907effffffffffffffffffffffffffffffffffffffffffffffffffffffffffffff1916908160001a905350808061227c906132bf565b9150506121fc565b600090505b8451811015612311578481815181106122a5576122a46131f5565b5b602001015160f81c60f81b8383806122bc906132bf565b9450815181106122cf576122ce6131f5565b5b60200101907effffffffffffffffffffffffffffffffffffffffffffffffffffffffffffff1916908160001a9053508080612309906132bf565b915050612289565b828051906020012098505050505050505050949350505050565b828054612337906133fc565b90600052602060002090601f01602090048101928261235957600085556123a0565b82601f1061237257805160ff19168380011785556123a0565b828001600101855582156123a0579182015b8281111561239f578251825591602001919060010190612384565b5b5090506123ad91906124fe565b5090565b82600681019282156123e0579160200282015b828111156123df5782518255916020019190600101906123c4565b5b5090506123ed919061251b565b5090565b6040518060c00160405280600690602082028036833780820191505090505090565b604051806080016040528060008019168152602001600073ffffffffffffffffffffffffffffffffffffffff16815260200160008152602001606081525090565b6040518060e00160405280600073ffffffffffffffffffffffffffffffffffffffff1681526020016060815260200160608152602001606081526020016060815260200160008152602001600060038111156124b3576124b2612c20565b5b81525090565b6040518060a00160405280600073ffffffffffffffffffffffffffffffffffffffff168152602001606081526020016060815260200160608152602001600081525090565b5b808211156125175760008160009055506001016124ff565b5090565b5b8082111561253457600081600090555060010161251c565b5090565b6000604051905090565b600080fd5b600080fd5b600080fd5b600080fd5b6000601f19601f8301169050919050565b7f4e487b7100000000000000000000000000000000000000000000000000000000600052604160045260246000fd5b61259f82612556565b810181811067ffffffffffffffff821117156125be576125bd612567565b5b80604052505050565b60006125d1612538565b90506125dd8282612596565b919050565b600067ffffffffffffffff8211156125fd576125fc612567565b5b61260682612556565b9050602081019050919050565b82818337600083830152505050565b6000612635612630846125e2565b6125c7565b90508281526020810184848401111561265157612650612551565b5b61265c848285612613565b509392505050565b600082601f8301126126795761267861254c565b5b8135612689848260208601612622565b91505092915050565b600067ffffffffffffffff8211156126ad576126ac612567565b5b602082029050919050565b600080fd5b6000819050919050565b6126d0816126bd565b81146126db57600080fd5b50565b6000813590506126ed816126c7565b92915050565b600061270661270184612692565b6125c7565b905080602084028301858111156127205761271f6126b8565b5b835b81811015612749578061273588826126de565b845260208401935050602081019050612722565b5050509392505050565b600082601f8301126127685761276761254c565b5b60066127758482856126f3565b91505092915050565b6000819050919050565b6127918161277e565b811461279c57600080fd5b50565b6000813590506127ae81612788565b92915050565b600080600080600061014086880312156127d1576127d0612542565b5b600086013567ffffffffffffffff8111156127ef576127ee612547565b5b6127fb88828901612664565b955050602086013567ffffffffffffffff81111561281c5761281b612547565b5b61282888828901612664565b945050604086013567ffffffffffffffff81111561284957612848612547565b5b61285588828901612664565b935050606061286688828901612753565b9250506101206128788882890161279f565b9150509295509295909350565b61288e816126bd565b82525050565b60006020820190506128a96000830184612885565b92915050565b6000602082840312156128c5576128c4612542565b5b60006128d3848285016126de565b91505092915050565b600060069050919050565b600081905092915050565b6000819050919050565b612905816126bd565b82525050565b600061291783836128fc565b60208301905092915050565b6000602082019050919050565b612939816128dc565b61294381846128e7565b925061294e826128f2565b8060005b8381101561297f578151612966878261290b565b965061297183612923565b925050600181019050612952565b505050505050565b600060c08201905061299c6000830184612930565b92915050565b600073ffffffffffffffffffffffffffffffffffffffff82169050919050565b60006129cd826129a2565b9050919050565b6129dd816129c2565b82525050565b6129ec8161277e565b82525050565b600081519050919050565b600082825260208201905092915050565b60005b83811015612a2c578082015181840152602081019050612a11565b83811115612a3b576000848401525b50505050565b6000612a4c826129f2565b612a5681856129fd565b9350612a66818560208601612a0e565b612a6f81612556565b840191505092915050565b6000608083016000830151612a9260008601826128fc565b506020830151612aa560208601826129d4565b506040830151612ab860408601826129e3565b5060608301518482036060860152612ad08282612a41565b9150508091505092915050565b60006020820190508181036000830152612af78184612a7a565b905092915050565b6000612b0a826129a2565b9050919050565b612b1a81612aff565b8114612b2557600080fd5b50565b600081359050612b3781612b11565b92915050565b60008060408385031215612b5457612b53612542565b5b6000612b6285828601612b28565b9250506020612b73858286016126de565b9150509250929050565b60008115159050919050565b612b9281612b7d565b82525050565b6000602082019050612bad6000830184612b89565b92915050565b60008060408385031215612bca57612bc9612542565b5b6000612bd8858286016126de565b9250506020612be9858286016126de565b9150509250929050565b600060208284031215612c0957612c08612542565b5b6000612c178482850161279f565b91505092915050565b7f4e487b7100000000000000000000000000000000000000000000000000000000600052602160045260246000fd5b60048110612c6057612c5f612c20565b5b50565b6000819050612c7182612c4f565b919050565b6000612c8182612c63565b9050919050565b612c9181612c76565b82525050565b600060e083016000830151612caf60008601826129d4565b5060208301518482036020860152612cc78282612a41565b91505060408301518482036040860152612ce18282612a41565b91505060608301518482036060860152612cfb8282612a41565b91505060808301518482036080860152612d158282612a41565b91505060a0830151612d2a60a08601826129e3565b5060c0830151612d3d60c0860182612c88565b508091505092915050565b60006020820190508181036000830152612d628184612c97565b905092915050565b612d73816129c2565b82525050565b600082825260208201905092915050565b6000612d95826129f2565b612d9f8185612d79565b9350612daf818560208601612a0e565b612db881612556565b840191505092915050565b612dcc8161277e565b82525050565b600060a082019050612de76000830188612d6a565b8181036020830152612df98187612d8a565b90508181036040830152612e0d8186612d8a565b90508181036060830152612e218185612d8a565b9050612e306080830184612dc3565b9695505050505050565b60008060008060808587031215612e5457612e53612542565b5b6000612e62878288016126de565b945050602085013567ffffffffffffffff811115612e8357612e82612547565b5b612e8f87828801612664565b935050604085013567ffffffffffffffff811115612eb057612eaf612547565b5b612ebc87828801612664565b9250506060612ecd8782880161279f565b91505092959194509250565b60008060008060808587031215612ef357612ef2612542565b5b600085013567ffffffffffffffff811115612f1157612f10612547565b5b612f1d87828801612664565b945050602085013567ffffffffffffffff811115612f3e57612f3d612547565b5b612f4a87828801612664565b935050604085013567ffffffffffffffff811115612f6b57612f6a612547565b5b612f7787828801612664565b925050606085013567ffffffffffffffff811115612f9857612f97612547565b5b612fa487828801612664565b91505092959194509250565b6000608082019050612fc56000830187612885565b612fd26020830186612d6a565b612fdf6040830185612dc3565b8181036060830152612ff18184612d8a565b905095945050505050565b600081519050919050565b600082825260208201905092915050565b6000819050602082019050919050565b6000602082019050919050565b600061304082612ffc565b61304a8185613007565b935061305583613018565b8060005b8381101561308657815161306d888261290b565b975061307883613028565b925050600181019050613059565b5085935050505092915050565b600060208201905081810360008301526130ad8184613035565b905092915050565b600060a0830160008301516130cd60008601826129d4565b50602083015184820360208601526130e58282612a41565b915050604083015184820360408601526130ff8282612a41565b915050606083015184820360608601526131198282612a41565b915050608083015161312e60808601826129e3565b508091505092915050565b6000602082019050818103600083015261315381846130b5565b905092915050565b61316481612c76565b82525050565b600060e08201905061317f600083018a612d6a565b81810360208301526131918189612d8a565b905081810360408301526131a58188612d8a565b905081810360608301526131b98187612d8a565b905081810360808301526131cd8186612d8a565b90506131dc60a0830185612dc3565b6131e960c083018461315b565b98975050505050505050565b7f4e487b7100000000000000000000000000000000000000000000000000000000600052603260045260246000fd5b7f70617274206e6f7420617661696c61626c650000000000000000000000000000600082015250565b600061325a601283612d79565b915061326582613224565b602082019050919050565b600060208201905081810360008301526132898161324d565b9050919050565b7f4e487b7100000000000000000000000000000000000000000000000000000000600052601160045260246000fd5b60006132ca8261277e565b91507fffffffffffffffffffffffffffffffffffffffffffffffffffffffffffffffff82036132fc576132fb613290565b5b600182019050919050565b60006133128261277e565b915061331d8361277e565b9250817fffffffffffffffffffffffffffffffffffffffffffffffffffffffffffffffff048311821515161561335657613355613290565b5b828202905092915050565b7f50726f6475637420696e6578697374656e740000000000000000000000000000600082015250565b6000613397601283612d79565b91506133a282613361565b602082019050919050565b600060208201905081810360008301526133c68161338a565b9050919050565b7f4e487b7100000000000000000000000000000000000000000000000000000000600052602260045260246000fd5b6000600282049050600182168061341457607f821691505b602082108103613427576134266133cd565b5b50919050565b7f63686f6f736520726967687420737570706c6965720000000000000000000000600082015250565b6000613463601583612d79565b915061346e8261342d565b602082019050919050565b6000602082019050818103600083015261349281613456565b9050919050565b7f6e6f7420746865207269676874206d616e756661637475726572000000000000600082015250565b60006134cf601a83612d79565b91506134da82613499565b602082019050919050565b600060208201905081810360008301526134fe816134c2565b9050919050565b7f737570706c696572207072696365206e6f74206d617463686564000000000000600082015250565b600061353b601a83612d79565b915061354682613505565b602082019050919050565b6000602082019050818103600083015261356a8161352e565b9050919050565b6000819050919050565b600061359661359161358c846129a2565b613571565b6129a2565b9050919050565b60006135a88261357b565b9050919050565b60006135ba8261359d565b9050919050565b6135ca816135af565b82525050565b60006080820190506135e560008301876135c1565b6135f26020830186612d6a565b6135ff6040830185612dc3565b61360c6060830184612885565b95945050505050565b7f70726f6475637420416c72656164792065786973747300000000000000000000600082015250565b600061364b601683612d79565b915061365682613615565b602082019050919050565b6000602082019050818103600083015261367a8161363e565b9050919050565b7f4e487b7100000000000000000000000000000000000000000000000000000000600052601260045260246000fd5b60006136bb8261277e565b91506136c68361277e565b9250826136d6576136d5613681565b5b828204905092915050565b60006136ec8261277e565b91506136f78361277e565b9250827fffffffffffffffffffffffffffffffffffffffffffffffffffffffffffffffff0382111561372c5761372b613290565b5b82820190509291505056fea264697066735822122048187bb405a882a4c9b4ad0d6ca072f3f6cbd58362e91ab9b65681b26731e8c364736f6c634300080e0033",
  "immutableReferences": {},
  "source": "// SPDX-License-Identifier: MIT\npragma solidity >=0.5.22 <=0.9.0;\n\ncontract Supply_Chain {\n    bytes32[] public  arr;\n  enum  State   {NOTVIEWED,ACCEPTED,DECLINED,PENDING}\n    struct Order {\n        address manufactureradd;\n        string part_type;\n        string deliverOn;\n        string orderdate;\n        string quantity;\n        uint time;\n        State state;\n        \n    }\n\n    struct Part {\n        address supplier;\n        string manufacturedate;\n        string part_type;\n        string serialno;\n        uint256 price;\n    }\n\n    struct Product {\n        address manufacturer;\n        string serial_number;\n        string product_type;\n        string manufacturedate;\n        bytes32[6] parts;\n        uint256 price;\n    }\n\n    struct part_recepit {\n        bytes32 orderhash;\n        address supplier;\n        uint256 partPrice;\n        string parttype;\n    }\n    mapping(bytes32 => part_recepit) public part_detail;\n    mapping(bytes32 => Order) public order;\n    mapping(bytes32 => Product) public product;\n    mapping(bytes32 => Part) public part;\n    event paymentDone(address reciver, address sender, uint256 amount, bytes32);\n\n    modifier onlymanufacturer(bytes32 hash) {\n        require(\n            order[hash].manufactureradd == msg.sender,\n            \"not the right manufacturer\"\n        );\n        _;\n    }\n    modifier rightsupplier(bytes32 hash, address receiver) {\n        require(\n            part_detail[hash].supplier == receiver,\n            \"choose right supplier\"\n        );\n        _;\n    }\n\n    //making hash\n    function INFO_AND_HASH(\n        address _address,\n        string memory orderdate,\n        string memory part_type,\n        string memory deliverOn\n    ) private pure returns (bytes32) {\n        bytes20 b_a1 = bytes20(_address);\n        bytes memory b_s1 = bytes(orderdate);\n        bytes memory b_s2 = bytes(part_type);\n        bytes memory b_s3 = bytes(deliverOn);\n\n        string memory s_full = new string(\n            b_a1.length + b_s1.length + b_s2.length + b_s3.length\n        );\n        bytes memory b_full = bytes(s_full);\n        uint256 j = 0;\n        uint256 i;\n        for (i = 0; i < b_a1.length; i++) {\n            b_full[j++] = b_a1[i];\n        }\n        for (i = 0; i < b_s1.length; i++) {\n            b_full[j++] = b_s1[i];\n        }\n        for (i = 0; i < b_s2.length; i++) {\n            b_full[j++] = b_s2[i];\n        }\n        for (i = 0; i < b_s3.length; i++) {\n            b_full[j++] = b_s3[i];\n        }\n        return keccak256(b_full);\n    }\n\n    // creating order\n    function create_order(\n        string memory part_type,\n        string memory deliverOn,\n        string memory orderdate,\n        string memory quantity\n        \n    ) public returns (bytes32) {\n        State state = State.NOTVIEWED;\n        bytes32 order_hash = INFO_AND_HASH(\n            msg.sender,\n            part_type,\n            deliverOn,\n            orderdate\n        );\n       Order memory new_order = Order(\n           msg.sender,\n           part_type,\n           deliverOn,\n           orderdate,\n           quantity,\n           block.timestamp/3600,\n           state\n           \n       );\n\n        order[order_hash] = new_order;\n        arr.push(order_hash);\n         return order_hash;\n    }\n\n    function view_order(bytes32 orderhash) public  returns (Order memory) {\n        State s= State.ACCEPTED;\n        order[orderhash].state=s;\n        return order[orderhash];\n    }\n\n    //accepting the order\n\n    function accept_order() view public returns (bytes32[] memory) {\n       \n        return arr;\n    }\n\n    //making part after order recivied\n    function make_part(\n        bytes32 orderhash,\n        string memory manufacturedate,\n        string memory serialno,\n        uint256 price\n    ) public returns (bytes32 partHash) {\n            int[] storage  arr;\n        bytes32 part_hash = INFO_AND_HASH(\n            msg.sender,\n            order[orderhash].part_type,\n            order[orderhash].deliverOn,\n            order[orderhash].orderdate\n        );\n        require(\n            part[part_hash].supplier == address(0),\n            \"product Already exists\"\n        );\n        Part memory new_part = Part(\n            msg.sender,\n            manufacturedate,\n            order[orderhash].part_type,\n            serialno,\n            price * 10**18\n        );\n        part[part_hash] = new_part;\n        return part_hash;\n    }\n\n    //after making part ,configuring part receipt\n    function partrecepit(bytes32 orderhash, bytes32 partHash)\n        public\n        returns (bytes32)\n    {\n        uint256 price = part[partHash].price;\n        string memory parttype = part[partHash].part_type;\n        address supplier = part[partHash].supplier;\n        part_recepit memory recepit = part_recepit(\n            orderhash,\n            supplier,\n            price,\n            parttype\n        );\n        part_detail[orderhash] = recepit;\n        return orderhash;\n    }\n\n    function getpartrecepit(bytes32 orderhash)\n        public\n        view\n        returns (part_recepit memory)\n    {\n        return part_detail[orderhash];\n    }\n\n    //making payment to get part\n    function getparts(address payable receiver, bytes32 orderh)\n        external\n        payable\n        rightsupplier(orderh, receiver)\n        onlymanufacturer(orderh)\n        returns (bool)\n    {\n        uint256 amount = msg.value;\n        require(\n            part_detail[orderh].partPrice == amount,\n            \"supplier price not matched\"\n        );\n\n        receiver.transfer(amount);\n        emit paymentDone(receiver, msg.sender, msg.value, orderh);\n        return true;\n    }\n\n    function make_Product(\n        string memory serialno,\n        string memory product_type,\n        string memory creation_date,\n        bytes32[6] memory parts_array,\n        uint256 price\n    ) public returns (bytes32) {\n        for (uint256 index = 0; index < parts_array.length; index++) {\n            require(\n                part[parts_array[index]].supplier != address(0),\n                \"part not available\"\n            );\n        }\n        bytes32 product_hash = INFO_AND_HASH(\n            msg.sender,\n            serialno,\n            product_type,\n            creation_date\n        );\n\n        Product memory new_product = Product(\n            msg.sender,\n            serialno,\n            product_type,\n            creation_date,\n            parts_array,\n            price * 10**18\n        );\n\n        product[product_hash] = new_product;\n\n        return product_hash;\n    }\n\n    function getProductParts(bytes32 product_hash)\n        public\n        view\n        returns (bytes32[6] memory)\n    {\n        require(\n            product[product_hash].manufacturer != address(0),\n            \"Product inexistent\"\n        );\n        return product[product_hash].parts;\n    }\n\n    function getPartInfo(bytes32 parthash)\n        public\n        view\n        returns (Part memory detail)\n    {\n        return part[parthash];\n    }\n}\n\n",
  "sourcePath": "/Users/surajprajapati/Downloads/SupplyChain/2_supplychain/contracts/supplychain.sol",
  "compiler": {
    "name": "solc",
    "version": "0.8.14+commit.80d49f37.Emscripten.clang"
  },
  "schemaVersion": "3.4.7",
  "updatedAt": "2022-06-29T19:20:42.850Z",
  "networkType": "ethereum",
  "devdoc": {
    "kind": "dev",
    "methods": {},
    "version": 1
  },
  "userdoc": {
    "kind": "user",
    "methods": {},
    "version": 1
  }
}