{
  "contractName": "Supply_Chain",
  "abi": [
    {
      "anonymous": false,
      "inputs": [
        {
          "indexed": false,
          "internalType": "address",
          "name": "reciver",
          "type": "address"
        },
        {
          "indexed": false,
          "internalType": "address",
          "name": "sender",
          "type": "address"
        },
        {
          "indexed": false,
          "internalType": "uint256",
          "name": "amount",
          "type": "uint256"
        },
        {
          "indexed": false,
          "internalType": "bytes32",
          "name": "",
          "type": "bytes32"
        }
      ],
      "name": "paymentDone",
      "type": "event"
    },
    {
      "inputs": [
        {
          "internalType": "bytes32",
          "name": "",
          "type": "bytes32"
        }
      ],
      "name": "order",
      "outputs": [
        {
          "internalType": "address",
          "name": "manufactureradd",
          "type": "address"
        },
        {
          "internalType": "string",
          "name": "part_type",
          "type": "string"
        },
        {
          "internalType": "string",
          "name": "deliverOn",
          "type": "string"
        },
        {
          "internalType": "string",
          "name": "orderdate",
          "type": "string"
        },
        {
          "internalType": "string",
          "name": "quantity",
          "type": "string"
        }
      ],
      "stateMutability": "view",
      "type": "function",
      "constant": true
    },
    {
      "inputs": [
        {
          "internalType": "bytes32",
          "name": "",
          "type": "bytes32"
        }
      ],
      "name": "part",
      "outputs": [
        {
          "internalType": "address",
          "name": "supplier",
          "type": "address"
        },
        {
          "internalType": "string",
          "name": "manufacturedate",
          "type": "string"
        },
        {
          "internalType": "string",
          "name": "part_type",
          "type": "string"
        },
        {
          "internalType": "string",
          "name": "serialno",
          "type": "string"
        },
        {
          "internalType": "uint256",
          "name": "price",
          "type": "uint256"
        }
      ],
      "stateMutability": "view",
      "type": "function",
      "constant": true
    },
    {
      "inputs": [
        {
          "internalType": "bytes32",
          "name": "",
          "type": "bytes32"
        }
      ],
      "name": "part_detail",
      "outputs": [
        {
          "internalType": "bytes32",
          "name": "orderhash",
          "type": "bytes32"
        },
        {
          "internalType": "address",
          "name": "supplier",
          "type": "address"
        },
        {
          "internalType": "uint256",
          "name": "partPrice",
          "type": "uint256"
        },
        {
          "internalType": "string",
          "name": "parttype",
          "type": "string"
        }
      ],
      "stateMutability": "view",
      "type": "function",
      "constant": true
    },
    {
      "inputs": [
        {
          "internalType": "bytes32",
          "name": "",
          "type": "bytes32"
        }
      ],
      "name": "product",
      "outputs": [
        {
          "internalType": "address",
          "name": "manufacturer",
          "type": "address"
        },
        {
          "internalType": "string",
          "name": "serial_number",
          "type": "string"
        },
        {
          "internalType": "string",
          "name": "product_type",
          "type": "string"
        },
        {
          "internalType": "string",
          "name": "manufacturedate",
          "type": "string"
        },
        {
          "internalType": "uint256",
          "name": "price",
          "type": "uint256"
        }
      ],
      "stateMutability": "view",
      "type": "function",
      "constant": true
    },
    {
      "inputs": [
        {
          "internalType": "string",
          "name": "part_type",
          "type": "string"
        },
        {
          "internalType": "string",
          "name": "deliverOn",
          "type": "string"
        },
        {
          "internalType": "string",
          "name": "orderdate",
          "type": "string"
        },
        {
          "internalType": "string",
          "name": "quantity",
          "type": "string"
        }
      ],
      "name": "create_order",
      "outputs": [
        {
          "internalType": "bytes32",
          "name": "",
          "type": "bytes32"
        }
      ],
      "stateMutability": "nonpayable",
      "type": "function"
    },
    {
      "inputs": [
        {
          "internalType": "bytes32",
          "name": "orderhash",
          "type": "bytes32"
        }
      ],
      "name": "view_order",
      "outputs": [
        {
          "components": [
            {
              "internalType": "address",
              "name": "manufactureradd",
              "type": "address"
            },
            {
              "internalType": "string",
              "name": "part_type",
              "type": "string"
            },
            {
              "internalType": "string",
              "name": "deliverOn",
              "type": "string"
            },
            {
              "internalType": "string",
              "name": "orderdate",
              "type": "string"
            },
            {
              "internalType": "string",
              "name": "quantity",
              "type": "string"
            }
          ],
          "internalType": "struct Supply_Chain.Order",
          "name": "",
          "type": "tuple"
        }
      ],
      "stateMutability": "view",
      "type": "function",
      "constant": true
    },
    {
      "inputs": [
        {
          "internalType": "bytes32",
          "name": "orderhash",
          "type": "bytes32"
        }
      ],
      "name": "accept_order",
      "outputs": [
        {
          "internalType": "bool",
          "name": "",
          "type": "bool"
        }
      ],
      "stateMutability": "pure",
      "type": "function",
      "constant": true
    },
    {
      "inputs": [
        {
          "internalType": "bytes32",
          "name": "orderhash",
          "type": "bytes32"
        },
        {
          "internalType": "string",
          "name": "manufacturedate",
          "type": "string"
        },
        {
          "internalType": "string",
          "name": "serialno",
          "type": "string"
        },
        {
          "internalType": "uint256",
          "name": "price",
          "type": "uint256"
        }
      ],
      "name": "make_part",
      "outputs": [
        {
          "internalType": "bytes32",
          "name": "partHash",
          "type": "bytes32"
        }
      ],
      "stateMutability": "nonpayable",
      "type": "function"
    },
    {
      "inputs": [
        {
          "internalType": "bytes32",
          "name": "orderhash",
          "type": "bytes32"
        },
        {
          "internalType": "bytes32",
          "name": "partHash",
          "type": "bytes32"
        }
      ],
      "name": "partrecepit",
      "outputs": [
        {
          "internalType": "bytes32",
          "name": "",
          "type": "bytes32"
        }
      ],
      "stateMutability": "nonpayable",
      "type": "function"
    },
    {
      "inputs": [
        {
          "internalType": "bytes32",
          "name": "orderhash",
          "type": "bytes32"
        }
      ],
      "name": "getpartrecepit",
      "outputs": [
        {
          "components": [
            {
              "internalType": "bytes32",
              "name": "orderhash",
              "type": "bytes32"
            },
            {
              "internalType": "address",
              "name": "supplier",
              "type": "address"
            },
            {
              "internalType": "uint256",
              "name": "partPrice",
              "type": "uint256"
            },
            {
              "internalType": "string",
              "name": "parttype",
              "type": "string"
            }
          ],
          "internalType": "struct Supply_Chain.part_recepit",
          "name": "",
          "type": "tuple"
        }
      ],
      "stateMutability": "view",
      "type": "function",
      "constant": true
    },
    {
      "inputs": [
        {
          "internalType": "address payable",
          "name": "receiver",
          "type": "address"
        },
        {
          "internalType": "bytes32",
          "name": "orderh",
          "type": "bytes32"
        }
      ],
      "name": "getparts",
      "outputs": [
        {
          "internalType": "bool",
          "name": "",
          "type": "bool"
        }
      ],
      "stateMutability": "payable",
      "type": "function",
      "payable": true
    },
    {
      "inputs": [
        {
          "internalType": "string",
          "name": "serialno",
          "type": "string"
        },
        {
          "internalType": "string",
          "name": "product_type",
          "type": "string"
        },
        {
          "internalType": "string",
          "name": "creation_date",
          "type": "string"
        },
        {
          "internalType": "bytes32[6]",
          "name": "parts_array",
          "type": "bytes32[6]"
        },
        {
          "internalType": "uint256",
          "name": "price",
          "type": "uint256"
        }
      ],
      "name": "make_Product",
      "outputs": [
        {
          "internalType": "bytes32",
          "name": "",
          "type": "bytes32"
        }
      ],
      "stateMutability": "nonpayable",
      "type": "function"
    },
    {
      "inputs": [
        {
          "internalType": "bytes32",
          "name": "product_hash",
          "type": "bytes32"
        }
      ],
      "name": "getProductParts",
      "outputs": [
        {
          "internalType": "bytes32[6]",
          "name": "",
          "type": "bytes32[6]"
        }
      ],
      "stateMutability": "view",
      "type": "function",
      "constant": true
    },
    {
      "inputs": [
        {
          "internalType": "bytes32",
          "name": "parthash",
          "type": "bytes32"
        }
      ],
      "name": "getPartInfo",
      "outputs": [
        {
          "components": [
            {
              "internalType": "address",
              "name": "supplier",
              "type": "address"
            },
            {
              "internalType": "string",
              "name": "manufacturedate",
              "type": "string"
            },
            {
              "internalType": "string",
              "name": "part_type",
              "type": "string"
            },
            {
              "internalType": "string",
              "name": "serialno",
              "type": "string"
            },
            {
              "internalType": "uint256",
              "name": "price",
              "type": "uint256"
            }
          ],
          "internalType": "struct Supply_Chain.Part",
          "name": "detail",
          "type": "tuple"
        }
      ],
      "stateMutability": "view",
      "type": "function",
      "constant": true
    }
  ],
  "bytecode": "0x608060405234801561001057600080fd5b50613357806100206000396000f3fe6080604052600436106100dd5760003560e01c806379f3c5881161007f578063b224149c11610059578063b224149c1461033e578063d75318ee1461037f578063d760fa3d146103bc578063e80160ab146103f9576100dd565b806379f3c588146102845780639670c79c146102c157806397799080146102fe576100dd565b80634c9b90e9116100bb5780634c9b90e914610199578063622f0694146101c9578063724e203d146102065780637281a03914610243576100dd565b8063016d9974146100e257806320ff3f4e1461011f5780634bc8e47b1461015c575b600080fd5b3480156100ee57600080fd5b50610109600480360381019061010491906125ac565b61043a565b604051610116919061268c565b60405180910390f35b34801561012b57600080fd5b50610146600480360381019061014191906126a7565b61066a565b604051610153919061277f565b60405180910390f35b34801561016857600080fd5b50610183600480360381019061017e91906126a7565b610770565b60405161019091906128d5565b60405180910390f35b6101b360048036038101906101ae9190612935565b610898565b6040516101c09190612990565b60405180910390f35b3480156101d557600080fd5b506101f060048036038101906101eb91906129ab565b610ad2565b6040516101fd919061268c565b60405180910390f35b34801561021257600080fd5b5061022d600480360381019061022891906126a7565b610ca2565b60405161023a9190612a76565b60405180910390f35b34801561024f57600080fd5b5061026a600480360381019061026591906126a7565b610f6d565b60405161027b959493929190612b00565b60405180910390f35b34801561029057600080fd5b506102ab60048036038101906102a69190612b68565b61115b565b6040516102b8919061268c565b60405180910390f35b3480156102cd57600080fd5b506102e860048036038101906102e39190612c07565b6115a9565b6040516102f5919061268c565b60405180910390f35b34801561030a57600080fd5b50610325600480360381019061032091906126a7565b6116da565b6040516103359493929190612cde565b60405180910390f35b34801561034a57600080fd5b50610365600480360381019061036091906126a7565b6117b2565b604051610376959493929190612b00565b60405180910390f35b34801561038b57600080fd5b506103a660048036038101906103a191906126a7565b6119a0565b6040516103b39190612990565b60405180910390f35b3480156103c857600080fd5b506103e360048036038101906103de91906126a7565b6119ab565b6040516103f09190612dae565b60405180910390f35b34801561040557600080fd5b50610420600480360381019061041b91906126a7565b611bee565b604051610431959493929190612dd0565b60405180910390f35b600080600090505b600681101561051a57600073ffffffffffffffffffffffffffffffffffffffff166003600086846006811061047a57610479612e3f565b5b6020020151815260200190815260200160002060000160009054906101000a900473ffffffffffffffffffffffffffffffffffffffff1673ffffffffffffffffffffffffffffffffffffffff1603610507576040517f08c379a00000000000000000000000000000000000000000000000000000000081526004016104fe90612eba565b60405180910390fd5b808061051290612f09565b915050610442565b50600061052933888888611e64565b905060006040518060c001604052803373ffffffffffffffffffffffffffffffffffffffff168152602001898152602001888152602001878152602001868152602001670de0b6b3a7640000866105809190612f51565b8152509050806002600084815260200190815260200160002060008201518160000160006101000a81548173ffffffffffffffffffffffffffffffffffffffff021916908373ffffffffffffffffffffffffffffffffffffffff16021790555060208201518160010190805190602001906105fc929190612143565b506040820151816002019080519060200190610619929190612143565b506060820151816003019080519060200190610636929190612143565b5060808201518160040190600661064e9291906121c9565b5060a082015181600a0155905050819250505095945050505050565b610672612209565b600073ffffffffffffffffffffffffffffffffffffffff166002600084815260200190815260200160002060000160009054906101000a900473ffffffffffffffffffffffffffffffffffffffff1673ffffffffffffffffffffffffffffffffffffffff1603610717576040517f08c379a000000000000000000000000000000000000000000000000000000000815260040161070e90612ff7565b60405180910390fd5b60026000838152602001908152602001600020600401600680602002604051908101604052809291908260068015610764576020028201915b815481526020019060010190808311610750575b50505050509050919050565b61077861222b565b600080838152602001908152602001600020604051806080016040529081600082015481526020016001820160009054906101000a900473ffffffffffffffffffffffffffffffffffffffff1673ffffffffffffffffffffffffffffffffffffffff1673ffffffffffffffffffffffffffffffffffffffff1681526020016002820154815260200160038201805461080f90613046565b80601f016020809104026020016040519081016040528092919081815260200182805461083b90613046565b80156108885780601f1061085d57610100808354040283529160200191610888565b820191906000526020600020905b81548152906001019060200180831161086b57829003601f168201915b5050505050815250509050919050565b600081838073ffffffffffffffffffffffffffffffffffffffff1660008084815260200190815260200160002060010160009054906101000a900473ffffffffffffffffffffffffffffffffffffffff1673ffffffffffffffffffffffffffffffffffffffff161461093f576040517f08c379a0000000000000000000000000000000000000000000000000000000008152600401610936906130c3565b60405180910390fd5b833373ffffffffffffffffffffffffffffffffffffffff166001600083815260200190815260200160002060000160009054906101000a900473ffffffffffffffffffffffffffffffffffffffff1673ffffffffffffffffffffffffffffffffffffffff16146109e4576040517f08c379a00000000000000000000000000000000000000000000000000000000081526004016109db9061312f565b60405180910390fd5b6000349050806000808881526020019081526020016000206002015414610a40576040517f08c379a0000000000000000000000000000000000000000000000000000000008152600401610a379061319b565b60405180910390fd5b8673ffffffffffffffffffffffffffffffffffffffff166108fc829081150290604051600060405180830381858888f19350505050158015610a86573d6000803e3d6000fd5b507f8872194aef2c35bdaa0eea5f770ce68d7262902a3c74661704a2912c56a88f9e87333489604051610abc949392919061321a565b60405180910390a1600194505050505092915050565b600080600360008481526020019081526020016000206004015490506000600360008581526020019081526020016000206002018054610b1190613046565b80601f0160208091040260200160405190810160405280929190818152602001828054610b3d90613046565b8015610b8a5780601f10610b5f57610100808354040283529160200191610b8a565b820191906000526020600020905b815481529060010190602001808311610b6d57829003601f168201915b5050505050905060006003600086815260200190815260200160002060000160009054906101000a900473ffffffffffffffffffffffffffffffffffffffff169050600060405180608001604052808881526020018373ffffffffffffffffffffffffffffffffffffffff168152602001858152602001848152509050806000808981526020019081526020016000206000820151816000015560208201518160010160006101000a81548173ffffffffffffffffffffffffffffffffffffffff021916908373ffffffffffffffffffffffffffffffffffffffff160217905550604082015181600201556060820151816003019080519060200190610c91929190612143565b509050508694505050505092915050565b610caa61226c565b600160008381526020019081526020016000206040518060a00160405290816000820160009054906101000a900473ffffffffffffffffffffffffffffffffffffffff1673ffffffffffffffffffffffffffffffffffffffff1673ffffffffffffffffffffffffffffffffffffffff168152602001600182018054610d2e90613046565b80601f0160208091040260200160405190810160405280929190818152602001828054610d5a90613046565b8015610da75780601f10610d7c57610100808354040283529160200191610da7565b820191906000526020600020905b815481529060010190602001808311610d8a57829003601f168201915b50505050508152602001600282018054610dc090613046565b80601f0160208091040260200160405190810160405280929190818152602001828054610dec90613046565b8015610e395780601f10610e0e57610100808354040283529160200191610e39565b820191906000526020600020905b815481529060010190602001808311610e1c57829003601f168201915b50505050508152602001600382018054610e5290613046565b80601f0160208091040260200160405190810160405280929190818152602001828054610e7e90613046565b8015610ecb5780601f10610ea057610100808354040283529160200191610ecb565b820191906000526020600020905b815481529060010190602001808311610eae57829003601f168201915b50505050508152602001600482018054610ee490613046565b80601f0160208091040260200160405190810160405280929190818152602001828054610f1090613046565b8015610f5d5780601f10610f3257610100808354040283529160200191610f5d565b820191906000526020600020905b815481529060010190602001808311610f4057829003601f168201915b5050505050815250509050919050565b60036020528060005260406000206000915090508060000160009054906101000a900473ffffffffffffffffffffffffffffffffffffffff1690806001018054610fb690613046565b80601f0160208091040260200160405190810160405280929190818152602001828054610fe290613046565b801561102f5780601f106110045761010080835404028352916020019161102f565b820191906000526020600020905b81548152906001019060200180831161101257829003601f168201915b50505050509080600201805461104490613046565b80601f016020809104026020016040519081016040528092919081815260200182805461107090613046565b80156110bd5780601f10611092576101008083540402835291602001916110bd565b820191906000526020600020905b8154815290600101906020018083116110a057829003601f168201915b5050505050908060030180546110d290613046565b80601f01602080910402602001604051908101604052809291908181526020018280546110fe90613046565b801561114b5780601f106111205761010080835404028352916020019161114b565b820191906000526020600020905b81548152906001019060200180831161112e57829003601f168201915b5050505050908060040154905085565b6000806113443360016000898152602001908152602001600020600101805461118390613046565b80601f01602080910402602001604051908101604052809291908181526020018280546111af90613046565b80156111fc5780601f106111d1576101008083540402835291602001916111fc565b820191906000526020600020905b8154815290600101906020018083116111df57829003601f168201915b5050505050600160008a8152602001908152602001600020600201805461122290613046565b80601f016020809104026020016040519081016040528092919081815260200182805461124e90613046565b801561129b5780601f106112705761010080835404028352916020019161129b565b820191906000526020600020905b81548152906001019060200180831161127e57829003601f168201915b5050505050600160008b815260200190815260200160002060030180546112c190613046565b80601f01602080910402602001604051908101604052809291908181526020018280546112ed90613046565b801561133a5780601f1061130f5761010080835404028352916020019161133a565b820191906000526020600020905b81548152906001019060200180831161131d57829003601f168201915b5050505050611e64565b9050600073ffffffffffffffffffffffffffffffffffffffff166003600083815260200190815260200160002060000160009054906101000a900473ffffffffffffffffffffffffffffffffffffffff1673ffffffffffffffffffffffffffffffffffffffff16146113eb576040517f08c379a00000000000000000000000000000000000000000000000000000000081526004016113e2906132ab565b60405180910390fd5b60006040518060a001604052803373ffffffffffffffffffffffffffffffffffffffff168152602001878152602001600160008a8152602001908152602001600020600101805461143b90613046565b80601f016020809104026020016040519081016040528092919081815260200182805461146790613046565b80156114b45780601f10611489576101008083540402835291602001916114b4565b820191906000526020600020905b81548152906001019060200180831161149757829003601f168201915b50505050508152602001868152602001670de0b6b3a7640000866114d89190612f51565b8152509050806003600084815260200190815260200160002060008201518160000160006101000a81548173ffffffffffffffffffffffffffffffffffffffff021916908373ffffffffffffffffffffffffffffffffffffffff1602179055506020820151816001019080519060200190611554929190612143565b506040820151816002019080519060200190611571929190612143565b50606082015181600301908051906020019061158e929190612143565b50608082015181600401559050508192505050949350505050565b6000806115b833878787611e64565b905060006040518060a001604052803373ffffffffffffffffffffffffffffffffffffffff168152602001888152602001878152602001868152602001858152509050806001600084815260200190815260200160002060008201518160000160006101000a81548173ffffffffffffffffffffffffffffffffffffffff021916908373ffffffffffffffffffffffffffffffffffffffff1602179055506020820151816001019080519060200190611672929190612143565b50604082015181600201908051906020019061168f929190612143565b5060608201518160030190805190602001906116ac929190612143565b5060808201518160040190805190602001906116c9929190612143565b509050508192505050949350505050565b60006020528060005260406000206000915090508060000154908060010160009054906101000a900473ffffffffffffffffffffffffffffffffffffffff169080600201549080600301805461172f90613046565b80601f016020809104026020016040519081016040528092919081815260200182805461175b90613046565b80156117a85780601f1061177d576101008083540402835291602001916117a8565b820191906000526020600020905b81548152906001019060200180831161178b57829003601f168201915b5050505050905084565b60026020528060005260406000206000915090508060000160009054906101000a900473ffffffffffffffffffffffffffffffffffffffff16908060010180546117fb90613046565b80601f016020809104026020016040519081016040528092919081815260200182805461182790613046565b80156118745780601f1061184957610100808354040283529160200191611874565b820191906000526020600020905b81548152906001019060200180831161185757829003601f168201915b50505050509080600201805461188990613046565b80601f01602080910402602001604051908101604052809291908181526020018280546118b590613046565b80156119025780601f106118d757610100808354040283529160200191611902565b820191906000526020600020905b8154815290600101906020018083116118e557829003601f168201915b50505050509080600301805461191790613046565b80601f016020809104026020016040519081016040528092919081815260200182805461194390613046565b80156119905780601f1061196557610100808354040283529160200191611990565b820191906000526020600020905b81548152906001019060200180831161197357829003601f168201915b50505050509080600a0154905085565b600060019050919050565b6119b36122b1565b600360008381526020019081526020016000206040518060a00160405290816000820160009054906101000a900473ffffffffffffffffffffffffffffffffffffffff1673ffffffffffffffffffffffffffffffffffffffff1673ffffffffffffffffffffffffffffffffffffffff168152602001600182018054611a3790613046565b80601f0160208091040260200160405190810160405280929190818152602001828054611a6390613046565b8015611ab05780601f10611a8557610100808354040283529160200191611ab0565b820191906000526020600020905b815481529060010190602001808311611a9357829003601f168201915b50505050508152602001600282018054611ac990613046565b80601f0160208091040260200160405190810160405280929190818152602001828054611af590613046565b8015611b425780601f10611b1757610100808354040283529160200191611b42565b820191906000526020600020905b815481529060010190602001808311611b2557829003601f168201915b50505050508152602001600382018054611b5b90613046565b80601f0160208091040260200160405190810160405280929190818152602001828054611b8790613046565b8015611bd45780601f10611ba957610100808354040283529160200191611bd4565b820191906000526020600020905b815481529060010190602001808311611bb757829003601f168201915b505050505081526020016004820154815250509050919050565b60016020528060005260406000206000915090508060000160009054906101000a900473ffffffffffffffffffffffffffffffffffffffff1690806001018054611c3790613046565b80601f0160208091040260200160405190810160405280929190818152602001828054611c6390613046565b8015611cb05780601f10611c8557610100808354040283529160200191611cb0565b820191906000526020600020905b815481529060010190602001808311611c9357829003601f168201915b505050505090806002018054611cc590613046565b80601f0160208091040260200160405190810160405280929190818152602001828054611cf190613046565b8015611d3e5780601f10611d1357610100808354040283529160200191611d3e565b820191906000526020600020905b815481529060010190602001808311611d2157829003601f168201915b505050505090806003018054611d5390613046565b80601f0160208091040260200160405190810160405280929190818152602001828054611d7f90613046565b8015611dcc5780601f10611da157610100808354040283529160200191611dcc565b820191906000526020600020905b815481529060010190602001808311611daf57829003601f168201915b505050505090806004018054611de190613046565b80601f0160208091040260200160405190810160405280929190818152602001828054611e0d90613046565b8015611e5a5780601f10611e2f57610100808354040283529160200191611e5a565b820191906000526020600020905b815481529060010190602001808311611e3d57829003601f168201915b5050505050905085565b6000808560601b90506000859050600085905060008590506000815183518551601460ff16611e9391906132cb565b611e9d91906132cb565b611ea791906132cb565b67ffffffffffffffff811115611ec057611ebf61235f565b5b6040519080825280601f01601f191660200182016040528015611ef25781602001600182028036833780820191505090505b50905060008190506000805b601460ff16811015611f8257878160148110611f1d57611f1c612e3f565b5b1a60f81b838380611f2d90612f09565b945081518110611f4057611f3f612e3f565b5b60200101907effffffffffffffffffffffffffffffffffffffffffffffffffffffffffffff1916908160001a9053508080611f7a90612f09565b915050611efe565b600090505b865181101561200f57868181518110611fa357611fa2612e3f565b5b602001015160f81c60f81b838380611fba90612f09565b945081518110611fcd57611fcc612e3f565b5b60200101907effffffffffffffffffffffffffffffffffffffffffffffffffffffffffffff1916908160001a905350808061200790612f09565b915050611f87565b600090505b855181101561209c578581815181106120305761202f612e3f565b5b602001015160f81c60f81b83838061204790612f09565b94508151811061205a57612059612e3f565b5b60200101907effffffffffffffffffffffffffffffffffffffffffffffffffffffffffffff1916908160001a905350808061209490612f09565b915050612014565b600090505b8451811015612129578481815181106120bd576120bc612e3f565b5b602001015160f81c60f81b8383806120d490612f09565b9450815181106120e7576120e6612e3f565b5b60200101907effffffffffffffffffffffffffffffffffffffffffffffffffffffffffffff1916908160001a905350808061212190612f09565b9150506120a1565b828051906020012098505050505050505050949350505050565b82805461214f90613046565b90600052602060002090601f01602090048101928261217157600085556121b8565b82601f1061218a57805160ff19168380011785556121b8565b828001600101855582156121b8579182015b828111156121b757825182559160200191906001019061219c565b5b5090506121c591906122f6565b5090565b82600681019282156121f8579160200282015b828111156121f75782518255916020019190600101906121dc565b5b5090506122059190612313565b5090565b6040518060c00160405280600690602082028036833780820191505090505090565b604051806080016040528060008019168152602001600073ffffffffffffffffffffffffffffffffffffffff16815260200160008152602001606081525090565b6040518060a00160405280600073ffffffffffffffffffffffffffffffffffffffff168152602001606081526020016060815260200160608152602001606081525090565b6040518060a00160405280600073ffffffffffffffffffffffffffffffffffffffff168152602001606081526020016060815260200160608152602001600081525090565b5b8082111561230f5760008160009055506001016122f7565b5090565b5b8082111561232c576000816000905550600101612314565b5090565b6000604051905090565b600080fd5b600080fd5b600080fd5b600080fd5b6000601f19601f8301169050919050565b7f4e487b7100000000000000000000000000000000000000000000000000000000600052604160045260246000fd5b6123978261234e565b810181811067ffffffffffffffff821117156123b6576123b561235f565b5b80604052505050565b60006123c9612330565b90506123d5828261238e565b919050565b600067ffffffffffffffff8211156123f5576123f461235f565b5b6123fe8261234e565b9050602081019050919050565b82818337600083830152505050565b600061242d612428846123da565b6123bf565b90508281526020810184848401111561244957612448612349565b5b61245484828561240b565b509392505050565b600082601f83011261247157612470612344565b5b813561248184826020860161241a565b91505092915050565b600067ffffffffffffffff8211156124a5576124a461235f565b5b602082029050919050565b600080fd5b6000819050919050565b6124c8816124b5565b81146124d357600080fd5b50565b6000813590506124e5816124bf565b92915050565b60006124fe6124f98461248a565b6123bf565b90508060208402830185811115612518576125176124b0565b5b835b81811015612541578061252d88826124d6565b84526020840193505060208101905061251a565b5050509392505050565b600082601f8301126125605761255f612344565b5b600661256d8482856124eb565b91505092915050565b6000819050919050565b61258981612576565b811461259457600080fd5b50565b6000813590506125a681612580565b92915050565b600080600080600061014086880312156125c9576125c861233a565b5b600086013567ffffffffffffffff8111156125e7576125e661233f565b5b6125f38882890161245c565b955050602086013567ffffffffffffffff8111156126145761261361233f565b5b6126208882890161245c565b945050604086013567ffffffffffffffff8111156126415761264061233f565b5b61264d8882890161245c565b935050606061265e8882890161254b565b92505061012061267088828901612597565b9150509295509295909350565b612686816124b5565b82525050565b60006020820190506126a1600083018461267d565b92915050565b6000602082840312156126bd576126bc61233a565b5b60006126cb848285016124d6565b91505092915050565b600060069050919050565b600081905092915050565b6000819050919050565b6126fd816124b5565b82525050565b600061270f83836126f4565b60208301905092915050565b6000602082019050919050565b612731816126d4565b61273b81846126df565b9250612746826126ea565b8060005b8381101561277757815161275e8782612703565b96506127698361271b565b92505060018101905061274a565b505050505050565b600060c0820190506127946000830184612728565b92915050565b600073ffffffffffffffffffffffffffffffffffffffff82169050919050565b60006127c58261279a565b9050919050565b6127d5816127ba565b82525050565b6127e481612576565b82525050565b600081519050919050565b600082825260208201905092915050565b60005b83811015612824578082015181840152602081019050612809565b83811115612833576000848401525b50505050565b6000612844826127ea565b61284e81856127f5565b935061285e818560208601612806565b6128678161234e565b840191505092915050565b600060808301600083015161288a60008601826126f4565b50602083015161289d60208601826127cc565b5060408301516128b060408601826127db565b50606083015184820360608601526128c88282612839565b9150508091505092915050565b600060208201905081810360008301526128ef8184612872565b905092915050565b60006129028261279a565b9050919050565b612912816128f7565b811461291d57600080fd5b50565b60008135905061292f81612909565b92915050565b6000806040838503121561294c5761294b61233a565b5b600061295a85828601612920565b925050602061296b858286016124d6565b9150509250929050565b60008115159050919050565b61298a81612975565b82525050565b60006020820190506129a56000830184612981565b92915050565b600080604083850312156129c2576129c161233a565b5b60006129d0858286016124d6565b92505060206129e1858286016124d6565b9150509250929050565b600060a083016000830151612a0360008601826127cc565b5060208301518482036020860152612a1b8282612839565b91505060408301518482036040860152612a358282612839565b91505060608301518482036060860152612a4f8282612839565b91505060808301518482036080860152612a698282612839565b9150508091505092915050565b60006020820190508181036000830152612a9081846129eb565b905092915050565b612aa1816127ba565b82525050565b600082825260208201905092915050565b6000612ac3826127ea565b612acd8185612aa7565b9350612add818560208601612806565b612ae68161234e565b840191505092915050565b612afa81612576565b82525050565b600060a082019050612b156000830188612a98565b8181036020830152612b278187612ab8565b90508181036040830152612b3b8186612ab8565b90508181036060830152612b4f8185612ab8565b9050612b5e6080830184612af1565b9695505050505050565b60008060008060808587031215612b8257612b8161233a565b5b6000612b90878288016124d6565b945050602085013567ffffffffffffffff811115612bb157612bb061233f565b5b612bbd8782880161245c565b935050604085013567ffffffffffffffff811115612bde57612bdd61233f565b5b612bea8782880161245c565b9250506060612bfb87828801612597565b91505092959194509250565b60008060008060808587031215612c2157612c2061233a565b5b600085013567ffffffffffffffff811115612c3f57612c3e61233f565b5b612c4b8782880161245c565b945050602085013567ffffffffffffffff811115612c6c57612c6b61233f565b5b612c788782880161245c565b935050604085013567ffffffffffffffff811115612c9957612c9861233f565b5b612ca58782880161245c565b925050606085013567ffffffffffffffff811115612cc657612cc561233f565b5b612cd28782880161245c565b91505092959194509250565b6000608082019050612cf3600083018761267d565b612d006020830186612a98565b612d0d6040830185612af1565b8181036060830152612d1f8184612ab8565b905095945050505050565b600060a083016000830151612d4260008601826127cc565b5060208301518482036020860152612d5a8282612839565b91505060408301518482036040860152612d748282612839565b91505060608301518482036060860152612d8e8282612839565b9150506080830151612da360808601826127db565b508091505092915050565b60006020820190508181036000830152612dc88184612d2a565b905092915050565b600060a082019050612de56000830188612a98565b8181036020830152612df78187612ab8565b90508181036040830152612e0b8186612ab8565b90508181036060830152612e1f8185612ab8565b90508181036080830152612e338184612ab8565b90509695505050505050565b7f4e487b7100000000000000000000000000000000000000000000000000000000600052603260045260246000fd5b7f70617274206e6f7420617661696c61626c650000000000000000000000000000600082015250565b6000612ea4601283612aa7565b9150612eaf82612e6e565b602082019050919050565b60006020820190508181036000830152612ed381612e97565b9050919050565b7f4e487b7100000000000000000000000000000000000000000000000000000000600052601160045260246000fd5b6000612f1482612576565b91507fffffffffffffffffffffffffffffffffffffffffffffffffffffffffffffffff8203612f4657612f45612eda565b5b600182019050919050565b6000612f5c82612576565b9150612f6783612576565b9250817fffffffffffffffffffffffffffffffffffffffffffffffffffffffffffffffff0483118215151615612fa057612f9f612eda565b5b828202905092915050565b7f50726f6475637420696e6578697374656e740000000000000000000000000000600082015250565b6000612fe1601283612aa7565b9150612fec82612fab565b602082019050919050565b6000602082019050818103600083015261301081612fd4565b9050919050565b7f4e487b7100000000000000000000000000000000000000000000000000000000600052602260045260246000fd5b6000600282049050600182168061305e57607f821691505b60208210810361307157613070613017565b5b50919050565b7f63686f6f736520726967687420737570706c6965720000000000000000000000600082015250565b60006130ad601583612aa7565b91506130b882613077565b602082019050919050565b600060208201905081810360008301526130dc816130a0565b9050919050565b7f6e6f7420746865207269676874206d616e756661637475726572000000000000600082015250565b6000613119601a83612aa7565b9150613124826130e3565b602082019050919050565b600060208201905081810360008301526131488161310c565b9050919050565b7f737570706c696572207072696365206e6f74206d617463686564000000000000600082015250565b6000613185601a83612aa7565b91506131908261314f565b602082019050919050565b600060208201905081810360008301526131b481613178565b9050919050565b6000819050919050565b60006131e06131db6131d68461279a565b6131bb565b61279a565b9050919050565b60006131f2826131c5565b9050919050565b6000613204826131e7565b9050919050565b613214816131f9565b82525050565b600060808201905061322f600083018761320b565b61323c6020830186612a98565b6132496040830185612af1565b613256606083018461267d565b95945050505050565b7f70726f6475637420416c72656164792065786973747300000000000000000000600082015250565b6000613295601683612aa7565b91506132a08261325f565b602082019050919050565b600060208201905081810360008301526132c481613288565b9050919050565b60006132d682612576565b91506132e183612576565b9250827fffffffffffffffffffffffffffffffffffffffffffffffffffffffffffffffff0382111561331657613315612eda565b5b82820190509291505056fea26469706673582212202f17074d5cafe995c3d8aa29f224a441e72dce1753e1854b96804dcfc5c3533064736f6c634300080d0033",
  "immutableReferences": {},
  "source": "// SPDX-License-Identifier: MIT\npragma solidity >=0.5.22 <0.9.0;\n\ncontract Supply_Chain {\n    \n   \n    struct Order {\n        address manufactureradd;\n        string part_type;\n        string deliverOn;\n        string orderdate;\n        string quantity;\n        \n    }\n\n    struct Part {\n        address supplier;\n        string manufacturedate;\n        string part_type;\n        string serialno;\n        uint256 price;\n    }\n\n    struct Product {\n        address manufacturer;\n        string serial_number;\n        string product_type;\n        string manufacturedate;\n        bytes32[6] parts;\n        uint256 price;\n    }\n\n    struct part_recepit {\n        bytes32 orderhash;\n        address supplier;\n        uint256 partPrice;\n        string parttype;\n    }\n    mapping(bytes32 => part_recepit) public part_detail;\n    mapping(bytes32 => Order) public order;\n    mapping(bytes32 => Product) public product;\n    mapping(bytes32 => Part) public part;\n    event paymentDone(address reciver, address sender, uint256 amount, bytes32);\n\n    modifier onlymanufacturer(bytes32 hash) {\n        require(\n            order[hash].manufactureradd == msg.sender,\n            \"not the right manufacturer\"\n        );\n        _;\n    }\n    modifier rightsupplier(bytes32 hash, address receiver) {\n        require(\n            part_detail[hash].supplier == receiver,\n            \"choose right supplier\"\n        );\n        _;\n    }\n\n    //making hash\n    function INFO_AND_HASH(\n        address _address,\n        string memory orderdate,\n        string memory part_type,\n        string memory deliverOn\n    ) private pure returns (bytes32) {\n        bytes20 b_a1 = bytes20(_address);\n        bytes memory b_s1 = bytes(orderdate);\n        bytes memory b_s2 = bytes(part_type);\n        bytes memory b_s3 = bytes(deliverOn);\n\n        string memory s_full = new string(\n            b_a1.length + b_s1.length + b_s2.length + b_s3.length\n        );\n        bytes memory b_full = bytes(s_full);\n        uint256 j = 0;\n        uint256 i;\n        for (i = 0; i < b_a1.length; i++) {\n            b_full[j++] = b_a1[i];\n        }\n        for (i = 0; i < b_s1.length; i++) {\n            b_full[j++] = b_s1[i];\n        }\n        for (i = 0; i < b_s2.length; i++) {\n            b_full[j++] = b_s2[i];\n        }\n        for (i = 0; i < b_s3.length; i++) {\n            b_full[j++] = b_s3[i];\n        }\n        return keccak256(b_full);\n    }\n\n    // creating order\n    function create_order(\n        string memory part_type,\n        string memory deliverOn,\n        string memory orderdate,\n        string memory quantity\n        \n    ) public returns (bytes32) {\n        bytes32 order_hash = INFO_AND_HASH(\n            msg.sender,\n            part_type,\n            deliverOn,\n            orderdate\n        );\n       Order memory new_order = Order(\n           msg.sender,\n           part_type,\n           deliverOn,\n           orderdate,\n           quantity\n           \n       );\n\n        order[order_hash] = new_order;\n         return order_hash;\n    }\n\n    function view_order(bytes32 orderhash) public view returns (Order memory) {\n        return order[orderhash];\n    }\n\n    //accepting the order\n\n    function accept_order(bytes32 orderhash) pure public returns (bool) {\n       \n        return true;\n    }\n\n    //making part after order recivied\n    function make_part(\n        bytes32 orderhash,\n        string memory manufacturedate,\n        string memory serialno,\n        uint256 price\n    ) public returns (bytes32 partHash) {\n      \n        bytes32 part_hash = INFO_AND_HASH(\n            msg.sender,\n            order[orderhash].part_type,\n            order[orderhash].deliverOn,\n            order[orderhash].orderdate\n        );\n        require(\n            part[part_hash].supplier == address(0),\n            \"product Already exists\"\n        );\n        Part memory new_part = Part(\n            msg.sender,\n            manufacturedate,\n            order[orderhash].part_type,\n            serialno,\n            price * 10**18\n        );\n        part[part_hash] = new_part;\n        return part_hash;\n    }\n\n    //after making part ,configuring part receipt\n    function partrecepit(bytes32 orderhash, bytes32 partHash)\n        public\n        returns (bytes32)\n    {\n        uint256 price = part[partHash].price;\n        string memory parttype = part[partHash].part_type;\n        address supplier = part[partHash].supplier;\n        part_recepit memory recepit = part_recepit(\n            orderhash,\n            supplier,\n            price,\n            parttype\n        );\n        part_detail[orderhash] = recepit;\n        return orderhash;\n    }\n\n    function getpartrecepit(bytes32 orderhash)\n        public\n        view\n        returns (part_recepit memory)\n    {\n        return part_detail[orderhash];\n    }\n\n    //making payment to get part\n    function getparts(address payable receiver, bytes32 orderh)\n        external\n        payable\n        rightsupplier(orderh, receiver)\n        onlymanufacturer(orderh)\n        returns (bool)\n    {\n        uint256 amount = msg.value;\n        require(\n            part_detail[orderh].partPrice == amount,\n            \"supplier price not matched\"\n        );\n\n        receiver.transfer(amount);\n        emit paymentDone(receiver, msg.sender, msg.value, orderh);\n        return true;\n    }\n\n    function make_Product(\n        string memory serialno,\n        string memory product_type,\n        string memory creation_date,\n        bytes32[6] memory parts_array,\n        uint256 price\n    ) public returns (bytes32) {\n        for (uint256 index = 0; index < parts_array.length; index++) {\n            require(\n                part[parts_array[index]].supplier != address(0),\n                \"part not available\"\n            );\n        }\n        bytes32 product_hash = INFO_AND_HASH(\n            msg.sender,\n            serialno,\n            product_type,\n            creation_date\n        );\n\n        Product memory new_product = Product(\n            msg.sender,\n            serialno,\n            product_type,\n            creation_date,\n            parts_array,\n            price * 10**18\n        );\n\n        product[product_hash] = new_product;\n\n        return product_hash;\n    }\n\n    function getProductParts(bytes32 product_hash)\n        public\n        view\n        returns (bytes32[6] memory)\n    {\n        require(\n            product[product_hash].manufacturer != address(0),\n            \"Product inexistent\"\n        );\n        return product[product_hash].parts;\n    }\n\n    function getPartInfo(bytes32 parthash)\n        public\n        view\n        returns (Part memory detail)\n    {\n        return part[parthash];\n    }\n}\n\n",
  "sourcePath": "/home/surajkumarprajapati/Documents/blockchain/application/2_supplychain/contracts/supplychain.sol",
  "compiler": {
    "name": "solc",
    "version": "0.8.13+commit.abaa5c0e.Emscripten.clang"
  },
  "schemaVersion": "3.4.7",
  "updatedAt": "2022-06-29T11:27:50.222Z",
  "networkType": "ethereum",
  "devdoc": {
    "kind": "dev",
    "methods": {},
    "version": 1
  },
  "userdoc": {
    "kind": "user",
    "methods": {},
    "version": 1
  }
}