{
  "contractName": "Supply_Chain",
  "abi": [
    {
      "anonymous": false,
      "inputs": [
        {
          "indexed": false,
          "internalType": "address",
          "name": "reciver",
          "type": "address"
        },
        {
          "indexed": false,
          "internalType": "address",
          "name": "sender",
          "type": "address"
        },
        {
          "indexed": false,
          "internalType": "uint256",
          "name": "amount",
          "type": "uint256"
        },
        {
          "indexed": false,
          "internalType": "bytes32",
          "name": "",
          "type": "bytes32"
        }
      ],
      "name": "paymentDone",
      "type": "event"
    },
    {
      "inputs": [
        {
          "internalType": "uint256",
          "name": "",
          "type": "uint256"
        }
      ],
      "name": "arr",
      "outputs": [
        {
          "internalType": "bytes32",
          "name": "",
          "type": "bytes32"
        }
      ],
      "stateMutability": "view",
      "type": "function",
      "constant": true
    },
    {
      "inputs": [
        {
          "internalType": "uint256",
          "name": "",
          "type": "uint256"
        }
      ],
      "name": "arry",
      "outputs": [
        {
          "internalType": "bytes32",
          "name": "",
          "type": "bytes32"
        }
      ],
      "stateMutability": "view",
      "type": "function",
      "constant": true
    },
    {
      "inputs": [
        {
          "internalType": "bytes32",
          "name": "",
          "type": "bytes32"
        }
      ],
      "name": "order",
      "outputs": [
        {
          "internalType": "address",
          "name": "manufactureradd",
          "type": "address"
        },
        {
          "internalType": "string",
          "name": "part_type",
          "type": "string"
        },
        {
          "internalType": "string",
          "name": "deliverOn",
          "type": "string"
        },
        {
          "internalType": "string",
          "name": "orderdate",
          "type": "string"
        },
        {
          "internalType": "string",
          "name": "quantity",
          "type": "string"
        },
        {
          "internalType": "uint256",
          "name": "time",
          "type": "uint256"
        },
        {
          "internalType": "enum Supply_Chain.State",
          "name": "state",
          "type": "uint8"
        }
      ],
      "stateMutability": "view",
      "type": "function",
      "constant": true
    },
    {
      "inputs": [
        {
          "internalType": "bytes32",
          "name": "",
          "type": "bytes32"
        }
      ],
      "name": "part",
      "outputs": [
        {
          "internalType": "address",
          "name": "supplier",
          "type": "address"
        },
        {
          "internalType": "string",
          "name": "manufacturedate",
          "type": "string"
        },
        {
          "internalType": "string",
          "name": "part_type",
          "type": "string"
        },
        {
          "internalType": "string",
          "name": "serialno",
          "type": "string"
        },
        {
          "internalType": "uint256",
          "name": "price",
          "type": "uint256"
        },
        {
          "internalType": "enum Supply_Chain.State",
          "name": "state",
          "type": "uint8"
        }
      ],
      "stateMutability": "view",
      "type": "function",
      "constant": true
    },
    {
      "inputs": [
        {
          "internalType": "bytes32",
          "name": "",
          "type": "bytes32"
        }
      ],
      "name": "part_detail",
      "outputs": [
        {
          "internalType": "bytes32",
          "name": "orderhash",
          "type": "bytes32"
        },
        {
          "internalType": "address",
          "name": "supplier",
          "type": "address"
        },
        {
          "internalType": "uint256",
          "name": "partPrice",
          "type": "uint256"
        },
        {
          "internalType": "string",
          "name": "parttype",
          "type": "string"
        },
        {
          "internalType": "enum Supply_Chain.State",
          "name": "state",
          "type": "uint8"
        }
      ],
      "stateMutability": "view",
      "type": "function",
      "constant": true
    },
    {
      "inputs": [
        {
          "internalType": "bytes32",
          "name": "",
          "type": "bytes32"
        }
      ],
      "name": "product",
      "outputs": [
        {
          "internalType": "address",
          "name": "manufacturer",
          "type": "address"
        },
        {
          "internalType": "string",
          "name": "serial_number",
          "type": "string"
        },
        {
          "internalType": "string",
          "name": "product_type",
          "type": "string"
        },
        {
          "internalType": "string",
          "name": "manufacturedate",
          "type": "string"
        },
        {
          "internalType": "uint256",
          "name": "price",
          "type": "uint256"
        }
      ],
      "stateMutability": "view",
      "type": "function",
      "constant": true
    },
    {
      "inputs": [
        {
          "internalType": "string",
          "name": "part_type",
          "type": "string"
        },
        {
          "internalType": "string",
          "name": "deliverOn",
          "type": "string"
        },
        {
          "internalType": "string",
          "name": "orderdate",
          "type": "string"
        },
        {
          "internalType": "string",
          "name": "quantity",
          "type": "string"
        }
      ],
      "name": "create_order",
      "outputs": [
        {
          "internalType": "bytes32",
          "name": "",
          "type": "bytes32"
        }
      ],
      "stateMutability": "nonpayable",
      "type": "function"
    },
    {
      "inputs": [
        {
          "internalType": "bytes32",
          "name": "orderhash",
          "type": "bytes32"
        }
      ],
      "name": "view_order",
      "outputs": [
        {
          "components": [
            {
              "internalType": "address",
              "name": "manufactureradd",
              "type": "address"
            },
            {
              "internalType": "string",
              "name": "part_type",
              "type": "string"
            },
            {
              "internalType": "string",
              "name": "deliverOn",
              "type": "string"
            },
            {
              "internalType": "string",
              "name": "orderdate",
              "type": "string"
            },
            {
              "internalType": "string",
              "name": "quantity",
              "type": "string"
            },
            {
              "internalType": "uint256",
              "name": "time",
              "type": "uint256"
            },
            {
              "internalType": "enum Supply_Chain.State",
              "name": "state",
              "type": "uint8"
            }
          ],
          "internalType": "struct Supply_Chain.Order",
          "name": "",
          "type": "tuple"
        }
      ],
      "stateMutability": "nonpayable",
      "type": "function"
    },
    {
      "inputs": [],
      "name": "accept_order",
      "outputs": [
        {
          "internalType": "bytes32[]",
          "name": "",
          "type": "bytes32[]"
        }
      ],
      "stateMutability": "view",
      "type": "function",
      "constant": true
    },
    {
      "inputs": [
        {
          "internalType": "bytes32",
          "name": "orderhash",
          "type": "bytes32"
        },
        {
          "internalType": "string",
          "name": "manufacturedate",
          "type": "string"
        },
        {
          "internalType": "string",
          "name": "serialno",
          "type": "string"
        },
        {
          "internalType": "uint256",
          "name": "price",
          "type": "uint256"
        }
      ],
      "name": "make_part",
      "outputs": [
        {
          "internalType": "bytes32",
          "name": "partHash",
          "type": "bytes32"
        }
      ],
      "stateMutability": "nonpayable",
      "type": "function"
    },
    {
      "inputs": [],
      "name": "partowned",
      "outputs": [
        {
          "internalType": "bytes32[]",
          "name": "",
          "type": "bytes32[]"
        }
      ],
      "stateMutability": "view",
      "type": "function",
      "constant": true
    },
    {
      "inputs": [
        {
          "internalType": "bytes32",
          "name": "orderhash",
          "type": "bytes32"
        },
        {
          "internalType": "bytes32",
          "name": "partHash",
          "type": "bytes32"
        }
      ],
      "name": "partrecepit",
      "outputs": [
        {
          "internalType": "bytes32",
          "name": "",
          "type": "bytes32"
        }
      ],
      "stateMutability": "nonpayable",
      "type": "function"
    },
    {
      "inputs": [
        {
          "internalType": "bytes32",
          "name": "orderhash",
          "type": "bytes32"
        }
      ],
      "name": "getpartrecepit",
      "outputs": [
        {
          "components": [
            {
              "internalType": "bytes32",
              "name": "orderhash",
              "type": "bytes32"
            },
            {
              "internalType": "address",
              "name": "supplier",
              "type": "address"
            },
            {
              "internalType": "uint256",
              "name": "partPrice",
              "type": "uint256"
            },
            {
              "internalType": "string",
              "name": "parttype",
              "type": "string"
            },
            {
              "internalType": "enum Supply_Chain.State",
              "name": "state",
              "type": "uint8"
            }
          ],
          "internalType": "struct Supply_Chain.part_recepit",
          "name": "",
          "type": "tuple"
        }
      ],
      "stateMutability": "view",
      "type": "function",
      "constant": true
    },
    {
      "inputs": [
        {
          "internalType": "address payable",
          "name": "receiver",
          "type": "address"
        },
        {
          "internalType": "bytes32",
          "name": "orderh",
          "type": "bytes32"
        }
      ],
      "name": "getparts",
      "outputs": [
        {
          "internalType": "bool",
          "name": "",
          "type": "bool"
        }
      ],
      "stateMutability": "payable",
      "type": "function",
      "payable": true
    },
    {
      "inputs": [
        {
          "internalType": "string",
          "name": "serialno",
          "type": "string"
        },
        {
          "internalType": "string",
          "name": "product_type",
          "type": "string"
        },
        {
          "internalType": "string",
          "name": "creation_date",
          "type": "string"
        },
        {
          "internalType": "bytes32[2]",
          "name": "parts_array",
          "type": "bytes32[2]"
        },
        {
          "internalType": "uint256",
          "name": "price",
          "type": "uint256"
        }
      ],
      "name": "make_Product",
      "outputs": [
        {
          "internalType": "bytes32",
          "name": "",
          "type": "bytes32"
        }
      ],
      "stateMutability": "nonpayable",
      "type": "function"
    },
    {
      "inputs": [
        {
          "internalType": "bytes32",
          "name": "product_hash",
          "type": "bytes32"
        }
      ],
      "name": "getProductParts",
      "outputs": [
        {
          "internalType": "bytes32[2]",
          "name": "",
          "type": "bytes32[2]"
        }
      ],
      "stateMutability": "view",
      "type": "function",
      "constant": true
    },
    {
      "inputs": [
        {
          "internalType": "bytes32",
          "name": "parthash",
          "type": "bytes32"
        }
      ],
      "name": "getPartInfo",
      "outputs": [
        {
          "components": [
            {
              "internalType": "address",
              "name": "supplier",
              "type": "address"
            },
            {
              "internalType": "string",
              "name": "manufacturedate",
              "type": "string"
            },
            {
              "internalType": "string",
              "name": "part_type",
              "type": "string"
            },
            {
              "internalType": "string",
              "name": "serialno",
              "type": "string"
            },
            {
              "internalType": "uint256",
              "name": "price",
              "type": "uint256"
            },
            {
              "internalType": "enum Supply_Chain.State",
              "name": "state",
              "type": "uint8"
            }
          ],
          "internalType": "struct Supply_Chain.Part",
          "name": "detail",
          "type": "tuple"
        }
      ],
      "stateMutability": "view",
      "type": "function",
      "constant": true
    }
  ],
  "bytecode": "0x608060405234801561001057600080fd5b50613aea806100206000396000f3fe6080604052600436106100fe5760003560e01c80637281a039116100955780639a069a42116100645780639a069a42146103db578063b224149c14610406578063d760fa3d14610447578063d9a2130814610484578063e80160ab146104af576100fe565b80637281a039146102de57806379f3c588146103205780639670c79c1461035d578063977990801461039a576100fe565b80634c9b90e9116100d15780634c9b90e9146101f7578063622f06941461022757806371e5ee5f14610264578063724e203d146102a1576100fe565b8063070660e514610103578063100775bb1461014057806320ff3f4e1461017d5780634bc8e47b146101ba575b600080fd5b34801561010f57600080fd5b5061012a60048036038101906101259190612857565b6104f2565b604051610137919061289d565b60405180910390f35b34801561014c57600080fd5b5061016760048036038101906101629190612ae0565b610516565b604051610174919061289d565b60405180910390f35b34801561018957600080fd5b506101a4600480360381019061019f9190612baf565b610745565b6040516101b19190612c87565b60405180910390f35b3480156101c657600080fd5b506101e160048036038101906101dc9190612baf565b61084b565b6040516101ee9190612e67565b60405180910390f35b610211600480360381019061020c9190612ec7565b6109af565b60405161021e9190612f22565b60405180910390f35b34801561023357600080fd5b5061024e60048036038101906102499190612f3d565b610c30565b60405161025b919061289d565b60405180910390f35b34801561027057600080fd5b5061028b60048036038101906102869190612857565b610e50565b604051610298919061289d565b60405180910390f35b3480156102ad57600080fd5b506102c860048036038101906102c39190612baf565b610e74565b6040516102d5919061302e565b60405180910390f35b3480156102ea57600080fd5b5061030560048036038101906103009190612baf565b6111c9565b604051610317969594939291906130c7565b60405180910390f35b34801561032c57600080fd5b506103476004803603810190610342919061313d565b6113ca565b604051610354919061289d565b60405180910390f35b34801561036957600080fd5b50610384600480360381019061037f91906131dc565b611893565b604051610391919061289d565b60405180910390f35b3480156103a657600080fd5b506103c160048036038101906103bc9190612baf565b611a59565b6040516103d29594939291906132b3565b60405180910390f35b3480156103e757600080fd5b506103f0611b44565b6040516103fd91906133a4565b60405180910390f35b34801561041257600080fd5b5061042d60048036038101906104289190612baf565b611b9c565b60405161043e9594939291906133c6565b60405180910390f35b34801561045357600080fd5b5061046e60048036038101906104699190612baf565b611d8a565b60405161047b91906134c5565b60405180910390f35b34801561049057600080fd5b50610499612008565b6040516104a691906133a4565b60405180910390f35b3480156104bb57600080fd5b506104d660048036038101906104d19190612baf565b612060565b6040516104e997969594939291906134e7565b60405180910390f35b6001818154811061050257600080fd5b906000526020600020016000915090505481565b600080600090505b60028110156105f5573373ffffffffffffffffffffffffffffffffffffffff166005600086846002811061055557610554613572565b5b6020020151815260200190815260200160002060000160009054906101000a900473ffffffffffffffffffffffffffffffffffffffff1673ffffffffffffffffffffffffffffffffffffffff16036105e2576040517f08c379a00000000000000000000000000000000000000000000000000000000081526004016105d9906135ed565b60405180910390fd5b80806105ed9061363c565b91505061051e565b506000610604338888886122ef565b905060006040518060c001604052803373ffffffffffffffffffffffffffffffffffffffff168152602001898152602001888152602001878152602001868152602001670de0b6b3a76400008661065b9190613684565b8152509050806004600084815260200190815260200160002060008201518160000160006101000a81548173ffffffffffffffffffffffffffffffffffffffff021916908373ffffffffffffffffffffffffffffffffffffffff16021790555060208201518160010190805190602001906106d79291906125ce565b5060408201518160020190805190602001906106f49291906125ce565b5060608201518160030190805190602001906107119291906125ce565b50608082015181600401906002610729929190612654565b5060a08201518160060155905050819250505095945050505050565b61074d612694565b600073ffffffffffffffffffffffffffffffffffffffff166004600084815260200190815260200160002060000160009054906101000a900473ffffffffffffffffffffffffffffffffffffffff1673ffffffffffffffffffffffffffffffffffffffff16036107f2576040517f08c379a00000000000000000000000000000000000000000000000000000000081526004016107e99061372a565b60405180910390fd5b6004600083815260200190815260200160002060040160028060200260405190810160405280929190826002801561083f576020028201915b81548152602001906001019080831161082b575b50505050509050919050565b6108536126b6565b600260008381526020019081526020016000206040518060a0016040529081600082015481526020016001820160009054906101000a900473ffffffffffffffffffffffffffffffffffffffff1673ffffffffffffffffffffffffffffffffffffffff1673ffffffffffffffffffffffffffffffffffffffff168152602001600282015481526020016003820180546108eb90613779565b80601f016020809104026020016040519081016040528092919081815260200182805461091790613779565b80156109645780601f1061093957610100808354040283529160200191610964565b820191906000526020600020905b81548152906001019060200180831161094757829003601f168201915b505050505081526020016004820160009054906101000a900460ff16600481111561099257610991612d7a565b5b60048111156109a4576109a3612d7a565b5b815250509050919050565b600081838073ffffffffffffffffffffffffffffffffffffffff166002600084815260200190815260200160002060010160009054906101000a900473ffffffffffffffffffffffffffffffffffffffff1673ffffffffffffffffffffffffffffffffffffffff1614610a57576040517f08c379a0000000000000000000000000000000000000000000000000000000008152600401610a4e906137f6565b60405180910390fd5b833373ffffffffffffffffffffffffffffffffffffffff166003600083815260200190815260200160002060000160009054906101000a900473ffffffffffffffffffffffffffffffffffffffff1673ffffffffffffffffffffffffffffffffffffffff1614610afc576040517f08c379a0000000000000000000000000000000000000000000000000000000008152600401610af390613862565b60405180910390fd5b600034905080600260008881526020019081526020016000206002015414610b59576040517f08c379a0000000000000000000000000000000000000000000000000000000008152600401610b50906138ce565b60405180910390fd5b8673ffffffffffffffffffffffffffffffffffffffff166108fc829081150290604051600060405180830381858888f19350505050158015610b9f573d6000803e3d6000fd5b50600060049050806003600089815260200190815260200160002060060160006101000a81548160ff02191690836004811115610bdf57610bde612d7a565b5b02179055507f8872194aef2c35bdaa0eea5f770ce68d7262902a3c74661704a2912c56a88f9e8833348a604051610c19949392919061394d565b60405180910390a160019550505050505092915050565b600080600560008481526020019081526020016000206004015490506000600560008581526020019081526020016000206002018054610c6f90613779565b80601f0160208091040260200160405190810160405280929190818152602001828054610c9b90613779565b8015610ce85780601f10610cbd57610100808354040283529160200191610ce8565b820191906000526020600020905b815481529060010190602001808311610ccb57829003601f168201915b5050505050905060006005600086815260200190815260200160002060000160009054906101000a900473ffffffffffffffffffffffffffffffffffffffff16905060006003905060006040518060a001604052808981526020018473ffffffffffffffffffffffffffffffffffffffff168152602001868152602001858152602001836004811115610d7e57610d7d612d7a565b5b815250905080600260008a81526020019081526020016000206000820151816000015560208201518160010160006101000a81548173ffffffffffffffffffffffffffffffffffffffff021916908373ffffffffffffffffffffffffffffffffffffffff160217905550604082015181600201556060820151816003019080519060200190610e0e9291906125ce565b5060808201518160040160006101000a81548160ff02191690836004811115610e3a57610e39612d7a565b5b0217905550905050879550505050505092915050565b60008181548110610e6057600080fd5b906000526020600020016000915090505481565b610e7c612710565b600060019050806003600085815260200190815260200160002060060160006101000a81548160ff02191690836004811115610ebb57610eba612d7a565b5b0217905550600360008481526020019081526020016000206040518060e00160405290816000820160009054906101000a900473ffffffffffffffffffffffffffffffffffffffff1673ffffffffffffffffffffffffffffffffffffffff1673ffffffffffffffffffffffffffffffffffffffff168152602001600182018054610f4490613779565b80601f0160208091040260200160405190810160405280929190818152602001828054610f7090613779565b8015610fbd5780601f10610f9257610100808354040283529160200191610fbd565b820191906000526020600020905b815481529060010190602001808311610fa057829003601f168201915b50505050508152602001600282018054610fd690613779565b80601f016020809104026020016040519081016040528092919081815260200182805461100290613779565b801561104f5780601f106110245761010080835404028352916020019161104f565b820191906000526020600020905b81548152906001019060200180831161103257829003601f168201915b5050505050815260200160038201805461106890613779565b80601f016020809104026020016040519081016040528092919081815260200182805461109490613779565b80156110e15780601f106110b6576101008083540402835291602001916110e1565b820191906000526020600020905b8154815290600101906020018083116110c457829003601f168201915b505050505081526020016004820180546110fa90613779565b80601f016020809104026020016040519081016040528092919081815260200182805461112690613779565b80156111735780601f1061114857610100808354040283529160200191611173565b820191906000526020600020905b81548152906001019060200180831161115657829003601f168201915b50505050508152602001600582015481526020016006820160009054906101000a900460ff1660048111156111ab576111aa612d7a565b5b60048111156111bd576111bc612d7a565b5b81525050915050919050565b60056020528060005260406000206000915090508060000160009054906101000a900473ffffffffffffffffffffffffffffffffffffffff169080600101805461121290613779565b80601f016020809104026020016040519081016040528092919081815260200182805461123e90613779565b801561128b5780601f106112605761010080835404028352916020019161128b565b820191906000526020600020905b81548152906001019060200180831161126e57829003601f168201915b5050505050908060020180546112a090613779565b80601f01602080910402602001604051908101604052809291908181526020018280546112cc90613779565b80156113195780601f106112ee57610100808354040283529160200191611319565b820191906000526020600020905b8154815290600101906020018083116112fc57829003601f168201915b50505050509080600301805461132e90613779565b80601f016020809104026020016040519081016040528092919081815260200182805461135a90613779565b80156113a75780601f1061137c576101008083540402835291602001916113a7565b820191906000526020600020905b81548152906001019060200180831161138a57829003601f168201915b5050505050908060040154908060050160009054906101000a900460ff16905086565b60008060006115b533600360008a815260200190815260200160002060010180546113f490613779565b80601f016020809104026020016040519081016040528092919081815260200182805461142090613779565b801561146d5780601f106114425761010080835404028352916020019161146d565b820191906000526020600020905b81548152906001019060200180831161145057829003601f168201915b5050505050600360008b8152602001908152602001600020600201805461149390613779565b80601f01602080910402602001604051908101604052809291908181526020018280546114bf90613779565b801561150c5780601f106114e15761010080835404028352916020019161150c565b820191906000526020600020905b8154815290600101906020018083116114ef57829003601f168201915b5050505050600360008c8152602001908152602001600020600301805461153290613779565b80601f016020809104026020016040519081016040528092919081815260200182805461155e90613779565b80156115ab5780601f10611580576101008083540402835291602001916115ab565b820191906000526020600020905b81548152906001019060200180831161158e57829003601f168201915b50505050506122ef565b9050600073ffffffffffffffffffffffffffffffffffffffff166005600083815260200190815260200160002060000160009054906101000a900473ffffffffffffffffffffffffffffffffffffffff1673ffffffffffffffffffffffffffffffffffffffff161461165c576040517f08c379a0000000000000000000000000000000000000000000000000000000008152600401611653906139de565b60405180910390fd5b60006003905060006040518060c001604052803373ffffffffffffffffffffffffffffffffffffffff168152602001898152602001600360008c815260200190815260200160002060010180546116b290613779565b80601f01602080910402602001604051908101604052809291908181526020018280546116de90613779565b801561172b5780601f106117005761010080835404028352916020019161172b565b820191906000526020600020905b81548152906001019060200180831161170e57829003601f168201915b50505050508152602001888152602001670de0b6b3a76400008861174f9190613684565b815260200183600481111561176757611766612d7a565b5b8152509050806005600085815260200190815260200160002060008201518160000160006101000a81548173ffffffffffffffffffffffffffffffffffffffff021916908373ffffffffffffffffffffffffffffffffffffffff16021790555060208201518160010190805190602001906117e39291906125ce565b5060408201518160020190805190602001906118009291906125ce565b50606082015181600301908051906020019061181d9291906125ce565b506080820151816004015560a08201518160050160006101000a81548160ff0219169083600481111561185357611852612d7a565b5b0217905550905050600183908060018154018082558091505060019003906000526020600020016000909190919091505582945050505050949350505050565b6000806000905060006118a8338888886122ef565b905060006040518060e001604052803373ffffffffffffffffffffffffffffffffffffffff168152602001898152602001888152602001878152602001868152602001610e10426118f99190613a2d565b815260200184600481111561191157611910612d7a565b5b8152509050806003600084815260200190815260200160002060008201518160000160006101000a81548173ffffffffffffffffffffffffffffffffffffffff021916908373ffffffffffffffffffffffffffffffffffffffff160217905550602082015181600101908051906020019061198d9291906125ce565b5060408201518160020190805190602001906119aa9291906125ce565b5060608201518160030190805190602001906119c79291906125ce565b5060808201518160040190805190602001906119e49291906125ce565b5060a0820151816005015560c08201518160060160006101000a81548160ff02191690836004811115611a1a57611a19612d7a565b5b02179055509050506000829080600181540180825580915050600190039060005260206000200160009091909190915055819350505050949350505050565b60026020528060005260406000206000915090508060000154908060010160009054906101000a900473ffffffffffffffffffffffffffffffffffffffff1690806002015490806003018054611aae90613779565b80601f0160208091040260200160405190810160405280929190818152602001828054611ada90613779565b8015611b275780601f10611afc57610100808354040283529160200191611b27565b820191906000526020600020905b815481529060010190602001808311611b0a57829003601f168201915b5050505050908060040160009054906101000a900460ff16905085565b60606000805480602002602001604051908101604052809291908181526020018280548015611b9257602002820191906000526020600020905b815481526020019060010190808311611b7e575b5050505050905090565b60046020528060005260406000206000915090508060000160009054906101000a900473ffffffffffffffffffffffffffffffffffffffff1690806001018054611be590613779565b80601f0160208091040260200160405190810160405280929190818152602001828054611c1190613779565b8015611c5e5780601f10611c3357610100808354040283529160200191611c5e565b820191906000526020600020905b815481529060010190602001808311611c4157829003601f168201915b505050505090806002018054611c7390613779565b80601f0160208091040260200160405190810160405280929190818152602001828054611c9f90613779565b8015611cec5780601f10611cc157610100808354040283529160200191611cec565b820191906000526020600020905b815481529060010190602001808311611ccf57829003601f168201915b505050505090806003018054611d0190613779565b80601f0160208091040260200160405190810160405280929190818152602001828054611d2d90613779565b8015611d7a5780601f10611d4f57610100808354040283529160200191611d7a565b820191906000526020600020905b815481529060010190602001808311611d5d57829003601f168201915b5050505050908060060154905085565b611d92612775565b600560008381526020019081526020016000206040518060c00160405290816000820160009054906101000a900473ffffffffffffffffffffffffffffffffffffffff1673ffffffffffffffffffffffffffffffffffffffff1673ffffffffffffffffffffffffffffffffffffffff168152602001600182018054611e1690613779565b80601f0160208091040260200160405190810160405280929190818152602001828054611e4290613779565b8015611e8f5780601f10611e6457610100808354040283529160200191611e8f565b820191906000526020600020905b815481529060010190602001808311611e7257829003601f168201915b50505050508152602001600282018054611ea890613779565b80601f0160208091040260200160405190810160405280929190818152602001828054611ed490613779565b8015611f215780601f10611ef657610100808354040283529160200191611f21565b820191906000526020600020905b815481529060010190602001808311611f0457829003601f168201915b50505050508152602001600382018054611f3a90613779565b80601f0160208091040260200160405190810160405280929190818152602001828054611f6690613779565b8015611fb35780601f10611f8857610100808354040283529160200191611fb3565b820191906000526020600020905b815481529060010190602001808311611f9657829003601f168201915b50505050508152602001600482015481526020016005820160009054906101000a900460ff166004811115611feb57611fea612d7a565b5b6004811115611ffd57611ffc612d7a565b5b815250509050919050565b6060600180548060200260200160405190810160405280929190818152602001828054801561205657602002820191906000526020600020905b815481526020019060010190808311612042575b5050505050905090565b60036020528060005260406000206000915090508060000160009054906101000a900473ffffffffffffffffffffffffffffffffffffffff16908060010180546120a990613779565b80601f01602080910402602001604051908101604052809291908181526020018280546120d590613779565b80156121225780601f106120f757610100808354040283529160200191612122565b820191906000526020600020905b81548152906001019060200180831161210557829003601f168201915b50505050509080600201805461213790613779565b80601f016020809104026020016040519081016040528092919081815260200182805461216390613779565b80156121b05780601f10612185576101008083540402835291602001916121b0565b820191906000526020600020905b81548152906001019060200180831161219357829003601f168201915b5050505050908060030180546121c590613779565b80601f01602080910402602001604051908101604052809291908181526020018280546121f190613779565b801561223e5780601f106122135761010080835404028352916020019161223e565b820191906000526020600020905b81548152906001019060200180831161222157829003601f168201915b50505050509080600401805461225390613779565b80601f016020809104026020016040519081016040528092919081815260200182805461227f90613779565b80156122cc5780601f106122a1576101008083540402835291602001916122cc565b820191906000526020600020905b8154815290600101906020018083116122af57829003601f168201915b5050505050908060050154908060060160009054906101000a900460ff16905087565b6000808560601b90506000859050600085905060008590506000815183518551601460ff1661231e9190613a5e565b6123289190613a5e565b6123329190613a5e565b67ffffffffffffffff81111561234b5761234a6128d3565b5b6040519080825280601f01601f19166020018201604052801561237d5781602001600182028036833780820191505090505b50905060008190506000805b601460ff1681101561240d578781601481106123a8576123a7613572565b5b1a60f81b8383806123b89061363c565b9450815181106123cb576123ca613572565b5b60200101907effffffffffffffffffffffffffffffffffffffffffffffffffffffffffffff1916908160001a90535080806124059061363c565b915050612389565b600090505b865181101561249a5786818151811061242e5761242d613572565b5b602001015160f81c60f81b8383806124459061363c565b94508151811061245857612457613572565b5b60200101907effffffffffffffffffffffffffffffffffffffffffffffffffffffffffffff1916908160001a90535080806124929061363c565b915050612412565b600090505b8551811015612527578581815181106124bb576124ba613572565b5b602001015160f81c60f81b8383806124d29061363c565b9450815181106124e5576124e4613572565b5b60200101907effffffffffffffffffffffffffffffffffffffffffffffffffffffffffffff1916908160001a905350808061251f9061363c565b91505061249f565b600090505b84518110156125b45784818151811061254857612547613572565b5b602001015160f81c60f81b83838061255f9061363c565b94508151811061257257612571613572565b5b60200101907effffffffffffffffffffffffffffffffffffffffffffffffffffffffffffff1916908160001a90535080806125ac9061363c565b91505061252c565b828051906020012098505050505050505050949350505050565b8280546125da90613779565b90600052602060002090601f0160209004810192826125fc5760008555612643565b82601f1061261557805160ff1916838001178555612643565b82800160010185558215612643579182015b82811115612642578251825591602001919060010190612627565b5b50905061265091906127d3565b5090565b8260028101928215612683579160200282015b82811115612682578251825591602001919060010190612667565b5b50905061269091906127f0565b5090565b6040518060400160405280600290602082028036833780820191505090505090565b6040518060a0016040528060008019168152602001600073ffffffffffffffffffffffffffffffffffffffff16815260200160008152602001606081526020016000600481111561270a57612709612d7a565b5b81525090565b6040518060e00160405280600073ffffffffffffffffffffffffffffffffffffffff16815260200160608152602001606081526020016060815260200160608152602001600081526020016000600481111561276f5761276e612d7a565b5b81525090565b6040518060c00160405280600073ffffffffffffffffffffffffffffffffffffffff16815260200160608152602001606081526020016060815260200160008152602001600060048111156127cd576127cc612d7a565b5b81525090565b5b808211156127ec5760008160009055506001016127d4565b5090565b5b808211156128095760008160009055506001016127f1565b5090565b6000604051905090565b600080fd5b600080fd5b6000819050919050565b61283481612821565b811461283f57600080fd5b50565b6000813590506128518161282b565b92915050565b60006020828403121561286d5761286c612817565b5b600061287b84828501612842565b91505092915050565b6000819050919050565b61289781612884565b82525050565b60006020820190506128b2600083018461288e565b92915050565b600080fd5b600080fd5b6000601f19601f8301169050919050565b7f4e487b7100000000000000000000000000000000000000000000000000000000600052604160045260246000fd5b61290b826128c2565b810181811067ffffffffffffffff8211171561292a576129296128d3565b5b80604052505050565b600061293d61280d565b90506129498282612902565b919050565b600067ffffffffffffffff821115612969576129686128d3565b5b612972826128c2565b9050602081019050919050565b82818337600083830152505050565b60006129a161299c8461294e565b612933565b9050828152602081018484840111156129bd576129bc6128bd565b5b6129c884828561297f565b509392505050565b600082601f8301126129e5576129e46128b8565b5b81356129f584826020860161298e565b91505092915050565b600067ffffffffffffffff821115612a1957612a186128d3565b5b602082029050919050565b600080fd5b612a3281612884565b8114612a3d57600080fd5b50565b600081359050612a4f81612a29565b92915050565b6000612a68612a63846129fe565b612933565b90508060208402830185811115612a8257612a81612a24565b5b835b81811015612aab5780612a978882612a40565b845260208401935050602081019050612a84565b5050509392505050565b600082601f830112612aca57612ac96128b8565b5b6002612ad7848285612a55565b91505092915050565b600080600080600060c08688031215612afc57612afb612817565b5b600086013567ffffffffffffffff811115612b1a57612b1961281c565b5b612b26888289016129d0565b955050602086013567ffffffffffffffff811115612b4757612b4661281c565b5b612b53888289016129d0565b945050604086013567ffffffffffffffff811115612b7457612b7361281c565b5b612b80888289016129d0565b9350506060612b9188828901612ab5565b92505060a0612ba288828901612842565b9150509295509295909350565b600060208284031215612bc557612bc4612817565b5b6000612bd384828501612a40565b91505092915050565b600060029050919050565b600081905092915050565b6000819050919050565b612c0581612884565b82525050565b6000612c178383612bfc565b60208301905092915050565b6000602082019050919050565b612c3981612bdc565b612c438184612be7565b9250612c4e82612bf2565b8060005b83811015612c7f578151612c668782612c0b565b9650612c7183612c23565b925050600181019050612c52565b505050505050565b6000604082019050612c9c6000830184612c30565b92915050565b600073ffffffffffffffffffffffffffffffffffffffff82169050919050565b6000612ccd82612ca2565b9050919050565b612cdd81612cc2565b82525050565b612cec81612821565b82525050565b600081519050919050565b600082825260208201905092915050565b60005b83811015612d2c578082015181840152602081019050612d11565b83811115612d3b576000848401525b50505050565b6000612d4c82612cf2565b612d568185612cfd565b9350612d66818560208601612d0e565b612d6f816128c2565b840191505092915050565b7f4e487b7100000000000000000000000000000000000000000000000000000000600052602160045260246000fd5b60058110612dba57612db9612d7a565b5b50565b6000819050612dcb82612da9565b919050565b6000612ddb82612dbd565b9050919050565b612deb81612dd0565b82525050565b600060a083016000830151612e096000860182612bfc565b506020830151612e1c6020860182612cd4565b506040830151612e2f6040860182612ce3565b5060608301518482036060860152612e478282612d41565b9150506080830151612e5c6080860182612de2565b508091505092915050565b60006020820190508181036000830152612e818184612df1565b905092915050565b6000612e9482612ca2565b9050919050565b612ea481612e89565b8114612eaf57600080fd5b50565b600081359050612ec181612e9b565b92915050565b60008060408385031215612ede57612edd612817565b5b6000612eec85828601612eb2565b9250506020612efd85828601612a40565b9150509250929050565b60008115159050919050565b612f1c81612f07565b82525050565b6000602082019050612f376000830184612f13565b92915050565b60008060408385031215612f5457612f53612817565b5b6000612f6285828601612a40565b9250506020612f7385828601612a40565b9150509250929050565b600060e083016000830151612f956000860182612cd4565b5060208301518482036020860152612fad8282612d41565b91505060408301518482036040860152612fc78282612d41565b91505060608301518482036060860152612fe18282612d41565b91505060808301518482036080860152612ffb8282612d41565b91505060a083015161301060a0860182612ce3565b5060c083015161302360c0860182612de2565b508091505092915050565b600060208201905081810360008301526130488184612f7d565b905092915050565b61305981612cc2565b82525050565b600082825260208201905092915050565b600061307b82612cf2565b613085818561305f565b9350613095818560208601612d0e565b61309e816128c2565b840191505092915050565b6130b281612821565b82525050565b6130c181612dd0565b82525050565b600060c0820190506130dc6000830189613050565b81810360208301526130ee8188613070565b905081810360408301526131028187613070565b905081810360608301526131168186613070565b905061312560808301856130a9565b61313260a08301846130b8565b979650505050505050565b6000806000806080858703121561315757613156612817565b5b600061316587828801612a40565b945050602085013567ffffffffffffffff8111156131865761318561281c565b5b613192878288016129d0565b935050604085013567ffffffffffffffff8111156131b3576131b261281c565b5b6131bf878288016129d0565b92505060606131d087828801612842565b91505092959194509250565b600080600080608085870312156131f6576131f5612817565b5b600085013567ffffffffffffffff8111156132145761321361281c565b5b613220878288016129d0565b945050602085013567ffffffffffffffff8111156132415761324061281c565b5b61324d878288016129d0565b935050604085013567ffffffffffffffff81111561326e5761326d61281c565b5b61327a878288016129d0565b925050606085013567ffffffffffffffff81111561329b5761329a61281c565b5b6132a7878288016129d0565b91505092959194509250565b600060a0820190506132c8600083018861288e565b6132d56020830187613050565b6132e260408301866130a9565b81810360608301526132f48185613070565b905061330360808301846130b8565b9695505050505050565b600081519050919050565b600082825260208201905092915050565b6000819050602082019050919050565b6000602082019050919050565b60006133518261330d565b61335b8185613318565b935061336683613329565b8060005b8381101561339757815161337e8882612c0b565b975061338983613339565b92505060018101905061336a565b5085935050505092915050565b600060208201905081810360008301526133be8184613346565b905092915050565b600060a0820190506133db6000830188613050565b81810360208301526133ed8187613070565b905081810360408301526134018186613070565b905081810360608301526134158185613070565b905061342460808301846130a9565b9695505050505050565b600060c0830160008301516134466000860182612cd4565b506020830151848203602086015261345e8282612d41565b915050604083015184820360408601526134788282612d41565b915050606083015184820360608601526134928282612d41565b91505060808301516134a76080860182612ce3565b5060a08301516134ba60a0860182612de2565b508091505092915050565b600060208201905081810360008301526134df818461342e565b905092915050565b600060e0820190506134fc600083018a613050565b818103602083015261350e8189613070565b905081810360408301526135228188613070565b905081810360608301526135368187613070565b9050818103608083015261354a8186613070565b905061355960a08301856130a9565b61356660c08301846130b8565b98975050505050505050565b7f4e487b7100000000000000000000000000000000000000000000000000000000600052603260045260246000fd5b7f70617274206e6f7420617661696c61626c650000000000000000000000000000600082015250565b60006135d760128361305f565b91506135e2826135a1565b602082019050919050565b60006020820190508181036000830152613606816135ca565b9050919050565b7f4e487b7100000000000000000000000000000000000000000000000000000000600052601160045260246000fd5b600061364782612821565b91507fffffffffffffffffffffffffffffffffffffffffffffffffffffffffffffffff82036136795761367861360d565b5b600182019050919050565b600061368f82612821565b915061369a83612821565b9250817fffffffffffffffffffffffffffffffffffffffffffffffffffffffffffffffff04831182151516156136d3576136d261360d565b5b828202905092915050565b7f50726f6475637420696e6578697374656e740000000000000000000000000000600082015250565b600061371460128361305f565b915061371f826136de565b602082019050919050565b6000602082019050818103600083015261374381613707565b9050919050565b7f4e487b7100000000000000000000000000000000000000000000000000000000600052602260045260246000fd5b6000600282049050600182168061379157607f821691505b6020821081036137a4576137a361374a565b5b50919050565b7f63686f6f736520726967687420737570706c6965720000000000000000000000600082015250565b60006137e060158361305f565b91506137eb826137aa565b602082019050919050565b6000602082019050818103600083015261380f816137d3565b9050919050565b7f6e6f7420746865207269676874206d616e756661637475726572000000000000600082015250565b600061384c601a8361305f565b915061385782613816565b602082019050919050565b6000602082019050818103600083015261387b8161383f565b9050919050565b7f737570706c696572207072696365206e6f74206d617463686564000000000000600082015250565b60006138b8601a8361305f565b91506138c382613882565b602082019050919050565b600060208201905081810360008301526138e7816138ab565b9050919050565b6000819050919050565b600061391361390e61390984612ca2565b6138ee565b612ca2565b9050919050565b6000613925826138f8565b9050919050565b60006139378261391a565b9050919050565b6139478161392c565b82525050565b6000608082019050613962600083018761393e565b61396f6020830186613050565b61397c60408301856130a9565b613989606083018461288e565b95945050505050565b7f70726f6475637420416c72656164792065786973747300000000000000000000600082015250565b60006139c860168361305f565b91506139d382613992565b602082019050919050565b600060208201905081810360008301526139f7816139bb565b9050919050565b7f4e487b7100000000000000000000000000000000000000000000000000000000600052601260045260246000fd5b6000613a3882612821565b9150613a4383612821565b925082613a5357613a526139fe565b5b828204905092915050565b6000613a6982612821565b9150613a7483612821565b9250827fffffffffffffffffffffffffffffffffffffffffffffffffffffffffffffffff03821115613aa957613aa861360d565b5b82820190509291505056fea264697066735822122027a3eaa85be79faf33358f0215fd682049e3b17acbe15fedccc34b669e5036cb64736f6c634300080d0033",
  "immutableReferences": {},
  "source": "// SPDX-License-Identifier: MIT\npragma solidity >=0.5.22 <0.9.0;\n\ncontract Supply_Chain {\n    bytes32[] public arr;\n    bytes32[] public arry;\n    enum State {\n        NOTVIEWED,\n        ACCEPTED,\n        DECLINED,\n        PENDING,\n        PAID\n    }\n    struct Order {\n        address manufactureradd;\n        string part_type;\n        string deliverOn;\n        string orderdate;\n        string quantity;\n        uint256 time;\n        State state;\n    }\n\n    struct Part {\n        address supplier;\n        string manufacturedate;\n        string part_type;\n        string serialno;\n        uint256 price;\n        State state;\n    }\n\n    struct Product {\n        address manufacturer;\n        string serial_number;\n        string product_type;\n        string manufacturedate;\n        bytes32[2] parts;\n        uint256 price;\n    }\n    struct part_recepit {\n        bytes32 orderhash;\n        address supplier;\n        uint256 partPrice;\n        string parttype;\n        State state;\n    }\n    mapping(bytes32 => part_recepit) public part_detail;\n    mapping(bytes32 => Order) public order;\n    mapping(bytes32 => Product) public product;\n    mapping(bytes32 => Part) public part;\n    event paymentDone(address reciver, address sender, uint256 amount, bytes32);\n\n    modifier onlymanufacturer(bytes32 hash) {\n        require(\n            order[hash].manufactureradd == msg.sender,\n            \"not the right manufacturer\"\n        );\n        _;\n    }\n    modifier rightsupplier(bytes32 hash, address receiver) {\n        require(\n            part_detail[hash].supplier == receiver,\n            \"choose right supplier\"\n        );\n        _;\n    }\n\n    //making hash\n    function INFO_AND_HASH(\n        address _address,\n        string memory orderdate,\n        string memory part_type,\n        string memory deliverOn\n    ) private pure returns (bytes32) {\n        bytes20 b_a1 = bytes20(_address);\n        bytes memory b_s1 = bytes(orderdate);\n        bytes memory b_s2 = bytes(part_type);\n        bytes memory b_s3 = bytes(deliverOn);\n\n        string memory s_full = new string(\n            b_a1.length + b_s1.length + b_s2.length + b_s3.length\n        );\n        bytes memory b_full = bytes(s_full);\n        uint256 j = 0;\n        uint256 i;\n        for (i = 0; i < b_a1.length; i++) {\n            b_full[j++] = b_a1[i];\n        }\n        for (i = 0; i < b_s1.length; i++) {\n            b_full[j++] = b_s1[i];\n        }\n        for (i = 0; i < b_s2.length; i++) {\n            b_full[j++] = b_s2[i];\n        }\n        for (i = 0; i < b_s3.length; i++) {\n            b_full[j++] = b_s3[i];\n        }\n        return keccak256(b_full);\n    }\n\n    // creating order\n    function create_order(\n        string memory part_type,\n        string memory deliverOn,\n        string memory orderdate,\n        string memory quantity\n    ) public returns (bytes32) {\n        State state = State.NOTVIEWED;\n        bytes32 order_hash = INFO_AND_HASH(\n            msg.sender,\n            part_type,\n            deliverOn,\n            orderdate\n        );\n        Order memory new_order = Order(\n            msg.sender,\n            part_type,\n            deliverOn,\n            orderdate,\n            quantity,\n            block.timestamp / 3600,\n            state\n        );\n\n        order[order_hash] = new_order;\n        arr.push(order_hash);\n        return order_hash;\n    }\n\n    function view_order(bytes32 orderhash) public returns (Order memory) {\n        State s = State.ACCEPTED;\n        order[orderhash].state = s;\n        return order[orderhash];\n    }\n\n    //accepting the order\n\n    function accept_order() public view returns (bytes32[] memory) {\n        return arr;\n    }\n\n    //making part after order recivied\n    function make_part(\n        bytes32 orderhash,\n        string memory manufacturedate,\n        string memory serialno,\n        uint256 price\n    ) public returns (bytes32 partHash) {\n        int256[] storage arr;\n        bytes32 part_hash = INFO_AND_HASH(\n            msg.sender,\n            order[orderhash].part_type,\n            order[orderhash].deliverOn,\n            order[orderhash].orderdate\n        );\n        require(\n            part[part_hash].supplier == address(0),\n            \"product Already exists\"\n        );\n        State state = State.PENDING;\n        Part memory new_part = Part(\n            msg.sender,\n            manufacturedate,\n            order[orderhash].part_type,\n            serialno,\n            price * 10**18,\n            state\n        );\n        part[part_hash] = new_part;\n        arry.push(part_hash);\n        return part_hash;\n    }\n    function partowned() public view returns(bytes32[] memory){\n        return arry;\n    }\n    //after making part ,configuring part receipt\n    function partrecepit(bytes32 orderhash, bytes32 partHash)\n        public\n        returns (bytes32)\n    {\n        uint256 price = part[partHash].price;\n        string memory parttype = part[partHash].part_type;\n        address supplier = part[partHash].supplier;\n        State state = State.PENDING;\n        part_recepit memory recepit = part_recepit(\n            orderhash,\n            supplier,\n            price,\n            parttype,\n            state\n        );\n        part_detail[orderhash] = recepit;\n        return orderhash;\n    }\n\n    function getpartrecepit(bytes32 orderhash)\n        public\n        view\n        returns (part_recepit memory)\n    {\n        return part_detail[orderhash];\n    }\n\n    //making payment to get part\n    function getparts(address payable receiver, bytes32 orderh)\n        external\n        payable\n        rightsupplier(orderh, receiver)\n        onlymanufacturer(orderh)\n        returns (bool)\n    {\n        uint256 amount = msg.value;\n        require(\n            part_detail[orderh].partPrice == amount,\n            \"supplier price not matched\"\n        );\n\n        receiver.transfer(amount);\n        State state = State.PAID;\n        order[orderh].state = state;\n        emit paymentDone(receiver, msg.sender, msg.value, orderh);\n        return true;\n    }\n\n    function make_Product(\n        string memory serialno,\n        string memory product_type,\n        string memory creation_date,\n        bytes32[2] memory parts_array,\n        uint256 price\n    ) public returns (bytes32) {\n        for (uint256 index = 0; index < parts_array.length; index++) {\n            require(\n                part[parts_array[index]].supplier != msg.sender,\n                \"part not available\"\n            );\n        }\n        bytes32 product_hash = INFO_AND_HASH(\n            msg.sender,\n            serialno,\n            product_type,\n            creation_date\n        );\n\n        Product memory new_product = Product(\n            msg.sender,\n            serialno,\n            product_type,\n            creation_date,\n            parts_array,\n            price * 10**18\n        );\n\n        product[product_hash] = new_product;\n\n        return product_hash;\n    }\n\n    function getProductParts(bytes32 product_hash)\n        public\n        view\n        returns (bytes32[2] memory)\n    {\n        require(\n            product[product_hash].manufacturer != address(0),\n            \"Product inexistent\"\n        );\n        return product[product_hash].parts;\n    }\n\n    function getPartInfo(bytes32 parthash)\n        public\n        view\n        returns (Part memory detail)\n    {\n        return part[parthash];\n    }\n}\n",
  "sourcePath": "/home/surajkumarprajapati/Desktop/SupplyChain/2_supplychain/contracts/supplychain.sol",
  "compiler": {
    "name": "solc",
    "version": "0.8.13+commit.abaa5c0e.Emscripten.clang"
  },
  "schemaVersion": "3.4.7",
  "updatedAt": "2022-07-01T12:40:31.945Z",
  "networkType": "ethereum",
  "devdoc": {
    "kind": "dev",
    "methods": {},
    "version": 1
  },
  "userdoc": {
    "kind": "user",
    "methods": {},
    "version": 1
  }
}